:020000040800F2
:10000000F8F5002051030008FB480008C33A000837
:10001000F9480008D71E0008754E000800000000CF
:10002000000000000000000000000000B90200080D
:100030001B1F000800000000FD020008AD4A000878
:100040006B0300086B0300086B0300086B030008D8
:100050006B0300086B0300086B0300086B030008C8
:100060006B0300086B0300086B0300086B030008B8
:100070006B0300086B030008D91E00086B0300081F
:100080006B030008E51E00086B0300086B03000803
:100090006B0300086B0300086B0300086B03000888
:1000A0006B0300086B0300086B0300086B03000878
:1000B0006B0300086B0300086B0300086B03000868
:1000C0006B0300086B0300086B0300086B03000858
:1000D0006B0300085D4E0008694E00086B030008C2
:1000E0006B0300086B0300086B0300086B03000838
:1000F0006B0300086B0300086B0300086B03000828
:100100006B0300086B0300086B0300086B03000817
:100110006B0300086B030008294B00086B03000801
:100120006B0300086B0300086B0300086B030008F7
:1001300000F002F800F0B0F80AA090E8000C824449
:100140008344AAF10107DA4501D100F0A5F8AFF226
:10015000090EBAE80F0013F0010F18BFFB1A43F0A5
:100160000103184738730200587302000A444FF025
:10017000000C10F8013B13F0070408BF10F8014B06
:100180001D1108BF10F8015B641E05D010F8016B4B
:10019000641E01F8016BF9D113F0080F1EBF10F8AF
:1001A000014BAD1C0C1B09D16D1E58BF01F801CBD2
:1001B000FAD505E014F8016B01F8016B6D1EF9D555
:1001C0009142D6D37047000000230024002500266A
:1001D000103A28BF78C1FBD8520728BF30C148BFAA
:1001E0000B6070476E2900F03D84702900F0AD87E8
:1001F00066291FF06A8565291FF0678567291FF04A
:10020000648561291FF0638503681B0A28BF41F0DC
:100210008001692900F04281642900F03F8175293D
:1002200000F03C816F2900F03A87782900F0798747
:10023000E92900F0D586E42900F0D286F52900F0FE
:10024000CF86EF2900F03787F82900F07887036818
:10025000DB0928BF41F08001632900F0568673292D
:1002600000F05B86E32901F08D81F32901F0928192
:10027000002070471FB500F073FF0400002000212C
:100280001FF030F8401C6060002000211FF014F8BF
:10029000E0601FBD10B510BD01F016FA1146FFF762
:1002A000E9FF1AF07DF901F03DFA03B4FFF7F2FF20
:1002B00003BC01F041FA0000224B19680868B0E85D
:1002C000F00F80F30988BFF36F8F4FF0000080F3C9
:1002D00011884EF00D0E70470000000006480068BF
:1002E000006880F3088862B661B6BFF34F8FBFF332
:1002F0006F8F00DF00BF00BF08ED00E0EFF3098063
:10030000BFF36F8F0F4B1A6820E9F00F106008B52C
:100310004FF0500080F31188BFF34F8FBFF36F8F02
:100320001EF0E4F94FF0000080F31188BDE80840AA
:1003300019680868B0E8F00F80F30988BFF36F8F81
:10034000704700BF44000020EFF3058070470000B5
:100350000948804709480047FEE7FEE7FEE7FEE759
:10036000FEE7FEE7FEE7FEE7FEE7FEE70448054995
:10037000054A064B70470000254B00083101000874
:10038000F8EF0020F8F50020F8F10020F8F1002047
:100390007CB51D4616460C00009001D02044401E3E
:1003A000074B7B442A4669460190304600F083FDA6
:1003B00005461CB10020694600F090FD28467CBD32
:1003C000410B00000FB47CB50C0009AA009001D0CD
:1003D0002044401E084B7B4469460190089800F079
:1003E0006AFD05461CB10020694600F077FD2846ED
:1003F0007CBC5DF814FB00000D0B000070B50446DA
:1004000085690068C10601D5302600E02026C007B6
:1004100007D070BDD4E9012130469047206A401CC6
:1004200020626D1EF6D570BD70B5044685690078F2
:10043000C00707D170BDD4E9012120209047206A70
:10044000401C20626D1EF6D570BD70B50C46054689
:10045000012A05D02878800600D5EA69002302E049
:10046000012305E05B1C934202D2E05C0028F9D135
:10047000A869E618C01AA861286A184428622846A4
:10048000FFF7BCFF04E0D5E9012114F8010B904708
:10049000B442F8D32846FFF7C7FF70BD2DE9F041FD
:1004A0000646002410687529314616A510D000F0C4
:1004B0006EFA002802DA404213A507E031688A0785
:1004C00001D512A502E0490704D511A5012401E0D8
:1004D00000F066FA00210A2206F1240709E0B0FBC9
:1004E000F2FCB0FBF2F302FB1C00303078541846EB
:1004F000491C0028F3D123462A463046BDE8F04186
:1005000000F057BA000000002D0000002B00000092
:10051000200000002DE9F05F894604464FF0000AF4
:10052000DFF874B1FB44C0F820A02046E16888479A
:10053000002874D0252806D0D4E901219047206AEC
:10054000401C2062F1E700265F462046E1688847AC
:100550002028054607DB312D05D2781910F8200C2C
:1005600008B10643F1E7B00701D526F00406C4F848
:100570001CA00027C4F818A02A2D09D0284604F092
:100580000FFE38B304EB8708303DC8F8185019E067
:1005900059F8041B204604EB87029161E168884703
:1005A000012F054618D1E069002820DA26F0200640
:1005B0001DE0D8F8180000EB800005EB4000303853
:1005C000C8F818002046E1688847054604F0E8FDB1
:1005D0000028EED1012F0AD02E2D08D12046E16847
:1005E00088477F1C0546022F46F02006C4DBA06921
:1005F000002803DA404246F00106A061F00701D06E
:1006000026F010066C2D0BD0682D09D04C2D39D05A
:100610006A2D35D0742D35D07A2D33D016E038E0E0
:10062000E1682F4620468847B842054609D16C2F1D
:1006300026D04FF48060E16806432046884705468F
:1006400004E06C2F1AD04FF4807006430DB3A5F16F
:100650004100192802D8203546F400664A4629464A
:10066000204626604E46FFF7BDFD80B101280BD025
:10067000F61D26F0070000F1080956E74020E4E7E0
:100680008020D8E70020D6E706F104094DE7284688
:1006900052E7206ABDE8F09FE06D020040EA0103E6
:1006A000024630B59B0710D14FF0013400E008C27C
:1006B00008C91D1B9D4315EAC41FF8D013F0FF01A4
:1006C00002F8011B0DD01B0AF8E711F8013B002BC3
:1006D00002F8013B05D011F8013B002B02F8013B69
:1006E000F3D130BD10B5431C02E010F8011B71B10D
:1006F0008107FAD14FF0013202C88C1A8C4314EAF8
:10070000C211F9D0C01A0A0603D0C01E10BDC01A0B
:1007100010BD0A0401D0801E10BD0902FCD0401E8D
:1007200010BD032A40F2308010F0030C00F0158059
:1007300011F8013BBCF1020F624498BF11F801CBE4
:1007400000F8013B38BF11F8013BA2F1040298BF49
:1007500000F801CB38BF00F8013B11F0030300F0B3
:100760002580083AC0F0088051F8043B083A51F857
:1007700004CBA0E80810F5E7121D5CBF51F8043B5C
:1007800040F8043BAFF30080D20724BF11F8013BCF
:1007900011F801CB48BF11F8012B24BF00F8013B31
:1007A00000F801CB48BF00F8012B704710B5203A84
:1007B000C0F00B80B1E81850203AA0E81850B1E81A
:1007C0001850A0E81850BFF4F5AF5FEA027C24BFD0
:1007D000B1E81850A0E8185044BF18C918C0BDE8C7
:1007E00010405FEA827C24BF51F8043B40F8043B90
:1007F00008BF7047D20728BF31F8023B48BF11F845
:10080000012B28BF20F8023B48BF00F8012B70479E
:1008100002F0FF0343EA032242EA024200F002B878
:100820004FF000020429C0F0128010F0030C00F019
:100830001B80CCF1040CBCF1020F18BF00F8012B97
:10084000A8BF20F8022BA1EB0C0100F00DB85FEA65
:10085000C17C24BF00F8012B00F8012B48BF00F831
:10086000012B70474FF0000200B5134694469646A0
:10087000203922BFA0E80C50A0E80C50B1F12001B3
:10088000BFF4F7AF090728BFA0E80C5048BF0CC061
:100890005DF804EB890028BF40F8042B08BF7047BF
:1008A00048BF20F8022B11F0804F18BF00F8012B31
:1008B000704710B5044610F0030F08BF11F0030F86
:1008C00040F015804FF0013E121FC0F20E8051F82B
:1008D000043BA3EB0E0C2CEA030C1CEACE1C08BF55
:1008E00040F8043BF0D0A1F1040102F10402521ED1
:1008F00008DB11F8013B002B00F8013BF7D1114652
:10090000FFF78EFF204610BD4FF0013C50F8042B3E
:1009100051F8043B9A4221D1A2EB0C03934313EA12
:10092000CC1317D150F8042B51F8043B9A4215D13F
:10093000A2EB0C03934313EACC130BD150F8042B16
:1009400051F8043B9A4209D1A2EB0C03934313EAFA
:10095000CC13DBD04FF00000704700BFD01A01BAB3
:10096000B1FA81F101F0180122FA01F0CB40C1F196
:100970002001DBB2C0B2C01A2CFA01F3D11A9143A4
:1009800011EAC311E6D17047704770477047096894
:100990004A0501D540B27047C905FCD500B2704781
:1009A00009684A0501D5C0B27047C905FCD580B2B7
:1009B00070472DE9F0470D4699469246044600F1EE
:1009C00024080168880604D5E06921F0100121603F
:1009D00000E00120A84201DD471B00E00027A169DB
:1009E0007A1902EB0900081AA0612078C00602D427
:1009F0002046FFF703FD002608E0D4E901211AF89C
:100A000006009047206A401C761C20624E45F4DBAD
:100A10002078C0060AD52046FFF7F0FC06E0D4E9AE
:100A2000012130209047206A401C2062381EA7F127
:100A30000107F4DC07E0D4E9012118F8050090472C
:100A4000206A401C2062281EA5F10105F3DC204627
:100A5000FFF7EAFC2078000602D50220BDE8F08707
:100A60000120FBE711680268006A530501D5087090
:100A70000AE0D30501D5088006E0130603D5C217A6
:100A8000C1E9000200E008600120704770472DE9CD
:100A9000FF4F0C461E464FF0FF378BB0D2E90001E6
:100AA000DDF860800A908A46C1F30A5505B93D46D3
:100AB000002108464FF00000BAF1000F00F440009A
:100AC00005DA00EB80004FF4400101EA50004FEAE4
:100AD0009059B9F1010F00DDB9460A9850EA4A0071
:100AE0000ED044F61050A5F2FF3545432F14B8F14F
:100AF000000F1ED07542291E1EDDC9F100021CE048
:100B0000B8F1010F4FF0000001D0302103E0F243B3
:100B100005E02154401CB042FBDB3046002200219E
:100B200021540B99C1F80880C1E900200FB0BDE83D
:100B3000F08FBD1B6D1CDEE74A4600DA694206A84D
:100B400000F02CFD06AB93E8070003AB83E8070039
:100B500050460A9900F0F7FD8DE80700A0F5005017
:100B60001F3800900398002D0ADD42F21F014A460B
:100B70000844002303A90390684601F060F809E0E7
:100B8000A0F500504A461F38002303A90390684689
:100B900001F06AF88DE807000004000C03D04FF064
:100BA000FF30410800E01046B8F1000F03D00022EA
:100BB000009215461EE0751E05D400F0D5FA3032BD
:100BC00062556D1EF9D5B3460122084302D00022BA
:100BD0007F1C04E02078302801D100227F1E002AEB
:100BE000099784D01DE0112D07DA00F0BDFA3032EC
:100BF00062556D1C50EA0102F5D1084302D00098FD
:100C0000C8B10EE00021681E05E0235C625C6354FD
:100C10002254401E491C8142F7DBAB46A81B401EF4
:100C20000990002004F80B000B98099AC0F808807E
:100C3000C0E9002B7AE711264FF0000857E72DE9AD
:100C4000F04F88460446D21D22F0070191B0D1E949
:100C50000001CDE90A0104F07FFA02460B98C00FAB
:100C600001D02D2007E02068810701D52B2002E06C
:100C7000202101EAC000032A099001D0072A05DBE0
:100C800003464146204600F033FC0BE12078800605
:100C900001D5E06900E00620B8F1650F814606D075
:100CA000B8F1660F18D0B8F1670F70D131E00020AD
:100CB000B9F1110F009001DB112301E009F10103EB
:100CC0000AAA01A90CA8FFF7E2FEDDE90C700026D4
:100CD00009F10105834647E001204B4600904FF0A3
:100CE00000470AAA01A90CA8FFF7D1FEDDE90DB063
:100CF0000C995D46002610B909F101000D18B9EBF9
:100D0000050003D4C0F1FF3609F10105A5EB090088
:100D10002BE0B9F1010F01DA4FF001090020B9F120
:100D2000110F0090484601DD112300E003460AAA96
:100D300001A90CA8FFF7ABFEDDE90C704D460026BB
:100D40008346207800070AD4AB4500DA5D4601A847
:100D5000012D04DD411911F8011C302907D04F4540
:100D600002DA17F1040F04DA012082460FE06D1E4B
:100D7000EEE7002F02DCED1B3E4403E0781CA842A6
:100D800000DD7D1CB81B00F1010A4FF00047207800
:100D9000000703D4AA4501DB4FF0FF3A0021B7F169
:100DA000004F0DF143088DF8431024D002202B236F
:100DB000002F01DA7F422D230A21021EA0F101003B
:100DC00000DC5FB197FBF1FC97FBF1F201FB1C7CAF
:100DD00017460CF1300C08F801CDEEE7A8F1010040
:100DE00003702188090501D5452100E06521A0F1A6
:100DF000010800F8011C09980FA9A1EB0807FF1DC5
:100E000000B10120411901EBEA70A1693844081AC8
:100E1000401EA0612078C00602D42046FFF7EEFAFB
:100E2000099828B1D4E901219047206A401C20622A
:100E30002078C00622D52046FFF7E0FA1EE0002EFB
:100E400004DBB34502DD01A8805D00E03020D4E979
:100E500001219047206A401C2062761CAAF1010003
:100E60005FEA000A0AD100F07BF9C0680168405CC3
:100E7000D4E901219047206A401C2062281EA5F178
:100E80000105DCDC07E0D4E9012118F8010B9047EB
:100E9000206A401C2062381EA7F10107F3DC2046BF
:100EA000FFF7C2FA032011B041E6000001694A1CB5
:100EB00002610878704700B58FB0CDE9013100219B
:100EC000059105497944CDE9031011466846FFF7BD
:100ED00021FB0FB000BD0000E5FFFFFF0A6802F82C
:100EE000010B0A607047D1E900239A4202D2531CD9
:100EF0000B601070704710B5436913B1AFF30080F9
:100F000001E0FFF7A2FA012010BD127800F12401E0
:100F10000A7000224A700122EDE711684FF0FF329B
:100F2000E9E700002DE9FF5F15468A460446DFF831
:100F3000AC80F8440027D8E900103E46CDE9001007
:100F400010E03AF816106A4602A800F099FB411C1E
:100F500007D02178890603D5E269391891420DD866
:100F60000744761C2078800602D5E069B84205DD8A
:100F7000AE42E6DB3AF816000028E2D1A069C01BB9
:100F8000A0612046FFF73AFAD8E90010CDE9001039
:100F9000002017E03AF818106A4602A800F070FB2B
:100FA000B0F1FF3F81460BD000250DF1080B05E0A5
:100FB000D4E901211BF8050090476D1C4D45F7D37E
:100FC00008F10100B0428046E4DB206A3844206228
:100FD0002046FFF729FABDE8FF9F0000E663020004
:100FE0002DE9F0418046D21D22F007020025D2E90A
:100FF0000002F52915A614D0011E72F1000106DACF
:101000000023D0EB030063EB020211A608E0D8F83E
:1010100000108B0701D50FA602E0490701D50EA6E7
:1010200001251146002408F1240704E000F09CF893
:1010300030323A55641C50EA0102F7D12B46324651
:1010400021464046BDE8F041FFF7B3BC0000000078
:101050002D0000002B0000002000000030B4002113
:1010600000F1240408E002F00705D208303542EA16
:101070004372DB086554491C52EA0305F3D1046846
:10108000002310A2250707D5A40600D421B1C46906
:1010900001230DA2641EC46130BCFFF78ABC10B5E9
:1010A000044621461068FFF77BFC02462046BDE857
:1010B00010400023D2E7D21D22F00701D1E900231E
:1010C000CCE700000000000030000000F0B40D4646
:1010D0000188090502D5214C7C4402E01F4C7C4468
:1010E0000E34002100F1240608E002F00F07120977
:1010F000E75D42EA03721B097754491C52EA030771
:10110000F3D102780023120704D5702D06D009B15F
:10111000022311342246F0BCFFF74BBC01231034EC
:10112000F8E770B504460D4621461068FFF738FC15
:10113000024629462046BDE870400023C6E7D21D7E
:1011400022F00703D3E90023C0E70368126843F0E5
:10115000200303600823C3610023B7E7486202004D
:1011600000487047B4EF002030B5B0F10A024FEAF2
:10117000900E71F100034EEA817EB0EB0E0061EB40
:1011800091014FEA101E4EEA017E10EB0E0041EB7A
:1011900011114FEA102E4EEA016E10EB0E0041EBDA
:1011A00011214FEA104E4EEA014E10EB0E0041EBBA
:1011B0001141401841F100014FEAD00040EA41706E
:1011C0004FEAD10110EB80054FEA810444EA9074A4
:1011D00044EB01046D1944EB0404521BA3414FF08E
:1011E000000348BF0A3200D530BD401C41F1000168
:1011F00030BD00002DE9F04F04460D46D21D22F00F
:10120000070089B0D0E900974846394603F0A4FFAB
:101210000246F80F01D02D2307E02068810701D591
:101220002B2302E0202101EAC0038DF820300BB10E
:10123000012000E00020032A824601D0072A04DBB7
:101240002946204600F054F93FE12078800601D479
:101250000D2500E0E569C7F30A560D2D49DA002196
:101260004FEA175B08464FF00000002F00F44000E3
:1012700007DA00EB80004FF4400100EBD07001EA88
:1012800060008115012901DD4FF0FF3100224FEA96
:10129000850CBCF1180F06D31346ACF118004FF0C3
:1012A0008052C24003E04FF4801323FA0CF30CF198
:1012B0000C0CBCF1200F04D3ACF1200C09FA0CF09B
:1012C00001E007FA0CF000294FF0004801DD18B9E1
:1012D0000FE00ED140450CD319EB02095F4121B953
:1012E000404502D19F4329EA0209BBEB175F00D0BA
:1012F000761C2088000502D57B48784402E07A48B5
:101300007844193808AA302302F80A30037C0AF11D
:101310000101002E0AF1020A53546A4602DC4FF022
:10132000300101E04FF031014FF001088DF800105D
:1013300002D0A6F2FF3603E059EA470100D06B4E17
:10134000002D02DC2178090704D54FF002082E2178
:101350008DF80110C44600210BE0C7F303433F01A1
:10136000C35C491C6D1E02F80830052908F101080C
:1013700001DA002DF1DC00210CE000EB1973491CAF
:101380001B786D1E082902F808304FEA091908F188
:10139000010801DA002DF0DC21688B0602D516E089
:1013A000A8F10108E04505DD02EB080313F8013C54
:1013B000302BF5D0B8F1000F09DD02EB080313F86C
:1013C000013C2E2B03D1090701D4A8F10108002DFF
:1013D00005DD3E2102F808106D1E08F10108407C71
:1013E000002E02F8080008F1010804DA2D207642E8
:1013F00002F8080002E02B2002F808000A214FF44E
:101400007A70864208F101080BDB96FBF0F330336B
:1014100002F8083096FBF0F308F1010800FB1366B0
:1014200001E0642E0CDB642096FBF0F3303302F80D
:10143000083096FBF0F308F1010800FB136601E0A9
:101440000A2E06DB96FBF1F0303002F8080008F1B6
:10145000010896FBF1F001FB1060303002F8080043
:10146000A16908F1010808EB050202EB0A00081A5D
:10147000A0612078C00602D42046FEF7BFFF216A93
:1014800008AE01EB0A00206204E0D4E9012116F85D
:10149000010B9047BAF1010AF7D22078C00602D5B5
:1014A0002046FEF7ABFF6E4609E016F8010B3E281A
:1014B0000FD0D4E901219047206A401C2062B8F186
:1014C0000108F2D22046FEF7AFFF09B00320BDE8C5
:1014D000F08F206A2844206203E0D4E90121302003
:1014E00090476D1EEBD3F8E76160020002FCFFFF3E
:1014F0002DE9F0411F46044603260168072A01F43E
:10150000006004DB08B116A505E016A503E008B1EC
:1015100015A500E015A521F010002060A069C01EEF
:10152000A0610FB1401EA0612046FEF767FF4FB1DA
:10153000D4E9012138469047206A401C2062C01C33
:10154000206206E0206AFAE7D4E9012115F8010BD0
:101550009047761EF8D22046FEF766FFBDE8F08180
:101560004E414E006E616E00494E4600696E660047
:1015700010B5436913B1AFF3008001E0FFF7D2FC6F
:10158000012010BD128800F1240182840022C2844F
:101590000122EDE711684FF0FF32E9E72DE9F0474E
:1015A000814616468AB0354878440DC88DE80D004E
:1015B00032487844801C03AC0DC884E80D0041F625
:1015C0009B300844372190FBF1F290FBF1F5A5F137
:1015D000800501FB12041B3C02D56442012000E09F
:1015E0000020DFF898A080460027FA44AAF1BE0A3E
:1015F0000EE0E0070AD03246684607EB47010123B8
:101600000AEB810100F030FB8DE8070064107F1CBD
:10161000002CEED1194F7F44AE3F19E0E80715D0FA
:1016200007EB04100DF1180A90E80E008AE80E008E
:10163000C068F04201D1981908903246012306A9EA
:1016400003A800F011FB03AB83E807006D10641CD6
:10165000002DE3D14FF0010332466946B8F1000F87
:1016600003A802D000F0EBFA01E000F0FDFAC9E9AE
:101670000001C9F808200AB0BDE8F087445E020006
:1016800070B516460C46054600F044F8036893F81A
:101690000101012806D0FF2C0FD8185D68B1012088
:1016A0002C7070BDD3F807013246214603F20713B0
:1016B00003442846BDE8704018474FF0FF3070BD26
:1016C0000048704794EF00207546FFF7F9FFAE46DB
:1016D00005006946534620F00700854618B020B53E
:1016E000FEF744FEBDE820404FF000064FF0000733
:1016F0004FF000084FF0000B21F00701AC46ACE8BA
:10170000C009ACE8C009ACE8C009ACE8C0098D4626
:101710007047000010B5FFF723FD001D10BD00BF8E
:10172000C5DB010010B50446AFF300802046BDE8DC
:101730001040FEF7BABD000001491820ABBEFEE71D
:101740002600020070475FEA400C08BF91F0000FCE
:101750004FEA8C234FEAC12243EA51514FEA1C5011
:1017600018BF00F5F0404FEA300018BF41F00041CB
:101770005FEA6C5C00F02980BCF1FF3F08BF40F0DD
:1017800080407047130C06BF12044FF0100C4FF04E
:10179000000C130E04BF12020CF1080C130F04BF4F
:1017A00012010CF1040C930F04BF92000CF1020C17
:1017B000D30F04BF52000CF1010C11464FF0000290
:1017C000A0F11F00A0EB0C00704711F0004F08BF04
:1017D000704731F000413FF4D5AF0B0C06BF090450
:1017E0004FF0100C4FF0000C0B0E04BF09020CF16F
:1017F000080C0B0F04BF09010CF1040C8B0F04BF84
:1018000089000CF1020CCB0F04BF49000CF1010C54
:10181000CCF12003A0EB0C0022FA03F302FA0CF245
:1018200041EA030100F10100704720F07F4C80EA9B
:10183000030023F07F47ACEB070303F57C5300F074
:10184000004003F1FF032DE980494FEA154B09B42D
:101850004FEA144325EA0B4E24EA03480FF204260C
:1018600006EB132749083E785FEA320203FB06675E
:10187000C7F5000707FB06F64FEA54374FEAD6468E
:1018800006F1020607FB066CCCF1005C4FEA1C4730
:101890002CEA074C07FB06F40CFB06F504EB154697
:1018A0004FEA961634BF00204FF000404FEAD13780
:1018B00006FB07FC4FEA1C4C0CFB0BF7D21B03FB8F
:1018C0000CF761EB07010CFB0EF7B0EB074072EB76
:1018D00017420CFB08F734BFA2EB0742B2EB0742FA
:1018E00061EB17414FEA0C444FEA910706FB07FCF6
:1018F0004FEA1C4C0CFB0BF7B0EBC74072EB5732B6
:1019000003FB0CF734BFA2EBC742B2EBC74261EB5B
:1019100057310CFB0EF7B0EBC70072EB57720CFBA4
:1019200008F734BFA2EBC702B2EBC70261EB5771F5
:10193000039F4FEA816141EA921104EBCC044FEA24
:10194000D1374FEA826206FB07FC42EA90124FEA67
:1019500080604FEA1C4C0CFB0BF7D21B03FB0CF70F
:1019600061EB07010CFB0EF7B0EB074072EB17427F
:101970000CFB08F734BFA2EB0742B2EB074261EB66
:1019800017414FEA8C554FEA910704EB9C2406FB64
:1019900007FC4FEA1C4C0CFB0BF7B0EBC74072EB9B
:1019A000573203FB0CF734BFA2EBC742B2EBC7427E
:1019B00061EB57310CFB0EF7B0EBC70072EB5772BF
:1019C0000CFB08F734BFA2EBC702B2EBC70261EB16
:1019D000577115EB4C254FEA816141EA92114FEAAC
:1019E00082624FEAD13742EA901206FB07FC44F1CB
:1019F00000044FEA80604FEA1C4C0CFB0BF7D21B33
:101A000003FB0CF761EB07010CFB0EF7B0EB074093
:101A100072EB17420CFB08F734BFA2EB0742B2EBA4
:101A2000074261EB174115EB1C154FEA813141EA82
:101A300092414FEA823242EA90424FEA80304FEAC6
:101A40000C7644F1000448EA03434EEA0B484FF099
:101A5000000EB2EB080C71EB030724BF6246394657
:101A60004EEB0E0E4FF0000B0018524149414BEB6C
:101A70000B0BB2EB080C71EB03077BF1000B24BFDF
:101A8000624639464EEB0E0E4FF0000B00185241E5
:101A900049414BEB0B0BB2EB080C71EB03077BF1ED
:101AA000000B24BF624639464EEB0E0E51EA020788
:101AB00018BF46F0010616EB0E7655F1000254F100
:101AC000000103D5BDE88901BDE80088BDE88901B2
:101AD000BDE80048B619524141EB0101A3F10103F1
:101AE000704780807F7E7D7C7B7A7978777676758B
:101AF0007473727171706F6E6E6D6C6C6B6A6A6903
:101B00006868676666656464636362616160605F9C
:101B10005F5E5E5D5D5C5C5B5B5A5A595958585715
:101B2000575656555555545453535252525151507D
:101B300050504F4F4F4E4E4D4D4D4C4C4C4B4B4BD0
:101B40004A4A4A4949494848484747474746464616
:101B50004545454444444443434343424242424151
:101B60004141002B9C4630D477002BD01CB54FEA66
:101B7000370703B44FF010004FF01001BAF1000F17
:101B800006D0BCF1000FDCBF40F0080040F00801B7
:101B90004FF000000FBCBDE810400BF1010BBBF192
:101BA000010F08BF5FEA170722BF12F1010211F10E
:101BB00001014FF0004143F1000300F0004043EA0F
:101BC00000007047F9D35708D0E746EA064613F1FC
:101BD000400F4FEA16461FDD13F1200FDFBF1643FB
:101BE0000A46002120335B42BED0C3F1200746EAFB
:101BF000064602FA07F74FEA164646EA0706C3F119
:101C0000200722FA03F201FA07F721FA03F14FF055
:101C1000000342EA0702A7E746EA020646EA06464A
:101C20004FEA164646EA0106BCBF46EA0646360CAF
:101C30004FF000034FF000024FF0000194E72DE950
:101C4000804C9A46934670B491E8380007C831EA50
:101C5000400C48BF34EA430C03D5FFF7E6FDFFF71D
:101C600080FFF0BCBDE8008C2DE9804C9A4693467D
:101C700070B491E8380007C810F0804F08BF13F027
:101C8000804F03D100F005F8FFF76BFFF0BCBDE813
:101C9000008C20F07F4780EA030023F07F4C07EBA5
:101CA0000C03A3F57C5300F00040A3F1FE0392F077
:101CB000000F00F0B38095F0000F00F077802DE961
:101CC00001494FEA11404FEA144621EA004800FB5F
:101CD00006FC24EA064708FB06F607FB08F800FBAB
:101CE00007F718EB06484CEB164C4FEA124B18EB73
:101CF00007484FEA15464CEB174022EA0B4E0BFB08
:101D000006FC25EA06470EFB06F607FB0EFE0BFB5C
:101D100007F71EEB064E4CEB164C4FF000061EEB81
:101D2000074E4CEB174B18EB0B0840F1000018EB7B
:101D30000E0B58EB000840F100008F1A4FF0000125
:101D40003CBFC943661B14BFB5EB040C00213CBF6C
:101D5000C943F61B4FEA17444EEA8E0E27EA0445A4
:101D60004FEA1C4704FB07622CEA074C05FB07F708
:101D70000CFB05F604FB0CFC16EB074642EB174286
:101D800016EB0C4642EB1C421BEB060658EB02021C
:101D9000414146EA9E0601D5BDE80189B619524186
:101DA00041EB0101A3F10103BDE801894FEA1445AC
:101DB0004FEA114724EA054621EA074C05FB07F4E0
:101DC00006FB07F70CFB06F105FB0CFC11EB0741CA
:101DD00044EB17444FEA124711EB0C4144EB1C440F
:101DE00022EA074C05FB07F206FB07F70CFB06F699
:101DF00005FB0CFC16EB074642EB174216EB0C46B4
:101E000042EB1C456A1854F1000148BF7047B619EF
:101E1000524141EB0101A3F10103704795F0000F1E
:101E200037D04FEA11424FEA144721EA024624EA2A
:101E3000074C02FB07F106FB07F70CFB06F402FB5D
:101E40000CFC14EB074441EB17414FEA154714EB28
:101E50000C4441EB1C4125EA074C02FB07F506FB4D
:101E600007F70CFB06F602FB0CFC16EB074645EBEE
:101E7000174516EB0C4645EB1C42121951F10001B7
:101E800048BF7047B619524141EB0101A3F101036C
:101E900070474FEA14454FEA114724EA054621EA04
:101EA000074C05FB07F106FB07F70CFB06F24FF0AA
:101EB000000605FB0CFC12EB074241EB174112EB4D
:101EC0000C4251EB1C4148BF7047921841EB010195
:101ED000A3F101037047FEE7014800F04DB900008F
:101EE00040050020014800F047B9000084050020AB
:101EF00030B590F840500124AC40C56B6C6004686C
:101F000063604368102B036803D099600068C26067
:101F100030BD9A600068C16030BD704772B6FEE7A0
:101F200030B5B3F5804F05D06FF0704140F8221006
:101F3000002030BD8C690B688D6823434C6889890B
:101F4000240144EA0524234343EA014150F82230A6
:101F5000014C23401943E9E70000F0CF10B50A68AF
:101F600050F8223023F0010340F822308C68082C0E
:101F700023D000234A682243CC681C430B692243C8
:101F80001A434B690E4C1A43CB691A430B6A1A4326
:101F90004B6A1A438B6A1A43CB6A1A430B6B1A4378
:101FA0008B6913434A6B09681A4350F82130A343E5
:101FB000134340F82130002010BD4023DAE7000031
:101FC0007FFF0F0030B5D1E9003443EA04138C6879
:101FD0008D89240244EA054423430C8A074D00EB13
:101FE000820005EB045423430C7D6D0105EB046472
:101FF000896923430B434360002030BD0000F0FF9C
:1020000010B590F821100022022905D00421816327
:1020100080F82020012010BD01680B6823F00E031A
:102020000B6001680B6823F001030B6090F84030EF
:10203000C46B012101FA03F3636080F8211080F87A
:102040002020104610BD00002DE9F05F90F821100F
:102050000024022903D004218163012485E0016862
:102060000A6822F00E020A6001680A6822F0010282
:102070000A603F4E3E4FB215DFF8F4C0DFF8F09033
:10208000DFF8ECA0DFF8E8B0DFF8E4E00168783FC3
:1020900013011502ACF1640CA9F15009AAF13C0A34
:1020A000ABF1280BAEF1140E4FF48018B14227D9D2
:1020B000B9420ED0614512D049451DD0514518D0C6
:1020C000594518D0714501D1424615E0294EB1421B
:1020D00001D1012210E0274E1436B14201D1102265
:1020E0000AE0244E2836B14206D0224A3C329142C0
:1020F00001D11A4600E02A461E49091F0A602BE05A
:10210000B94213D0614517D0494522D051451DD061
:1021100059451DD0714501D142461AE0B14202D164
:102120004FF0807215E0134EB14201D1012210E050
:10213000104E1436B14201D110220AE00D4E28365D
:10214000B14206D00B4A3C32914201D11A4600E01E
:102150002A46074980394A60012180F82110002170
:1021600080F82010416B01B188472046BDE8F09F00
:1021700080000240080402402DE9F05FC16B0A684C
:1021800001680B68046C4FF0040808FA04F8844DE9
:10219000844E854FDFF814C2DFF81492DFF814A2E2
:1021A000DFF814B2DFF814E218EA020F65D05FEA34
:1021B000437862D50A68920603D40A6822F00402C2
:1021C0000A60DFF8F0814FF48062016808F11408BA
:1021D00013011402414524D9A9420DD0B1420FD0B8
:1021E000B9421AD0614515D0494515D0514501D1A4
:1021F000120312E0594501D104220EE0714501D1CC
:1022000040220AE06D4D1435A94206D06B4A2832AF
:10221000914201D11A4600E022466749091F0A602F
:1022200029E0A94213D0B14215D0B94220D061456E
:102230001BD049451BD0514502D14FF4800217E015
:10224000414502D14FF0806212E0594501D104228C
:102250000EE0714501D140220AE0584D1435A942E3
:1022600006D0564A2832914201D11A4600E0224651
:102270004B4908394A60C16A71E04FF0020808FA18
:1022800004F818EA020F70D05FEA83786DD50A6807
:10229000920606D40A6822F00A020A60012180F838
:1022A0002110DFF810814FF40072016808F1140862
:1022B00013011402414524D9A9420DD0B1420FD0D7
:1022C000B9421AD0614515D0494515D0514501D1C3
:1022D000120312E0594501D102220EE0714501D1ED
:1022E00020220AE0354D1435A94206D0334A28325F
:1022F000914201D11A4600E022462F49091F0A6087
:1023000029E0A94213D0B14215D0B94220D061458D
:102310001BD049451BD0514502D14FF4001217E0A4
:10232000414502D14FF0007212E0594501D102221D
:102330000EE0714501D120220AE0204D1435A9425A
:1023400006D01E4A2832914201D11A4600E02246A8
:10235000134908394A60002180F82010816A002959
:102360001CD0BDE8F05F0847FFE70825A5401542EF
:1023700014D01A0712D50A6822F00E020A6090F8EB
:102380004020C36B012101FA02F25A60816380F898
:102390002110002180F82010016BE0E7BDE8F09FDC
:1023A000080002401C00024030000240440002408D
:1023B000580002406C000240080402401C04024025
:1023C00030B560B11A4B026814219A4209D2194BF8
:1023D0001344B3FBF1F18900016417490AE00120BD
:1023E00030BD134B5B421344B3FBF1F18900016430
:1023F0000F490839C163022180F82110136843F6A0
:10240000F0718B43F0E901142143D0E902452C43DC
:1024100021430469214344692143846921431943C9
:10242000116000214163012242770177084630BDE7
:1024300008040240F8FFFDBF0000024070B50446EA
:1024400090F82000002501280CD0012084F82000FD
:1024500094F821600020012E06D084F82000022587
:10246000284670BD022070BD022684F82160A0635A
:102470002068066826F0010606602046FFF738FD52
:10248000E06A00282068016802D041F00E0106E0F1
:1024900021F0040101602068016841F00A01016037
:1024A0002068016841F001010160D9E770B5044678
:1024B00000F048F90546601C02D004480078044446
:1024C00000F040F9401BA042FAD370BD3400002058
:1024D00030B585B000200090019002900390124822
:1024E000016800291ED1012101601048416941F4B1
:1024F000807141614069022400F4807004904FF6BD
:102500008070CDE90004032569460395084800F072
:1025100013F84CF6B370CDE90004694603950548FD
:1025200000F00AF805B030BD2C0000200010024079
:1025300000180140001401402DE9F84FDFF8C89160
:102540000024A9F1040B23460F2709F1040AABF17B
:10255000040ED1E00125A54006EA0502AA4276D183
:10256000DFF8A8C14E68A6EB0C0866452BD00DDC41
:10257000032E34D005DC36B3012E19D0022E2FD114
:102580001BE0112E16D0122E2AD119E0B8F5881FA3
:1025900019D006DCB8F5803F15D0B8F5801F1FD1E3
:1025A00011E0B8F5001F0ED0B8F5041F18D10AE0ED
:1025B000CB6815E0CB681B1D12E0CB6808330FE039
:1025C000CB680C330CE08B682BB1012B4FF0080368
:1025D00003D0456104E0042302E0056100E000232C
:1025E000FF2A01D8064601E000F104064FEA8405FF
:1025F00001D9A5F12005D6F8008007FA05FC28EAE4
:102600000C0803FA05F548EA0508C6F800804D688D
:10261000ED0070D53E4DAE6946F00106AE61AD6984
:1026200024F0030605F0010500953A4D06EB050C74
:10263000DCF80850A607360F07FA06F825EA080561
:10264000DFF8D480404503D14FF0000825E052E088
:10265000DFF8C880404502D14FF001081DE0DFF8E7
:10266000C080404502D14FF0020816E0DFF8B48088
:10267000404502D14FF003080FE0DFF8AC80404541
:1026800002D14FF0040808E0DFF8A080404502D1F5
:102690004FF0050801E04FF0060808FA06F848EA8E
:1026A0000508CCF808804D68D9F80060ED024D4669
:1026B00001D5164300E096432E604D68DAF80060BD
:1026C000AD02554601D5164300E096432E604D6895
:1026D000DBF80060AD035D4601D5164300E096438C
:1026E0002E604D68DEF80060ED03754601D5164397
:1026F00000E096432E60641C0A681646E2407FF4B0
:1027000029AFBDE8F88F0000080401400000111057
:10271000001002400000014000080140000C014090
:10272000001001400014014000180140001C01404D
:102730008068084000D0012070470AB101617047ED
:102740000904FBE70148806870470000340000205E
:1027500070B5040025D094F83D00002520B984F818
:102760003C50204600F07CFA242084F83D0020688C
:10277000016821F0010101602068016841F4004115
:1027800001602068016821F40041016000F018FC3C
:102790004D4A6168914201D84C4900E04C49884259
:1027A00001D2012070BD4B492368B0FBF1F15E6896
:1027B00026F03F060E435E606368934206D94FF4ED
:1027C000967359434FF47A73B1FBF3F12368491CB4
:1027D0001E6A26F03F06314319626168914210D8A3
:1027E0004900401EB0FBF1F2521CC2F30B02042A56
:1027F00001D2042022E0B0FBF1F0401CC0F30B003A
:102800001CE0A268F2B301EBC10303EB0116431E07
:10281000B3FBF6F35B1C43F480431B0549D092B332
:1028200001EBC10202EB0111401EB0FBF1F0401CB4
:10283000C0F30B0040F4804040F400402168CA69B6
:102840004CF6FF739A431043C861D4E90710014363
:102850002068026822F0C00211430160D4E903013C
:1028600001432068826848F2FF339A431143816034
:10287000D4E9050108432168CA6822F0FF02104329
:10288000C86001E00EE016E02068016841F0010137
:1028900001602564202084F83D00256384F83E50C3
:1028A000002070BD01EB4106431EB3FBF6F35B1C39
:1028B000B3E70120C2E701EB4101401EB0FBF1F09C
:1028C000401CC0F30B00B7E7A086010080841E0007
:1028D00000093D0040420F002DE9F84F1F46904689
:1028E0008A460446DDF82890FFF72CFF054694F849
:1028F0003D0020287FD11923012240492046009520
:1029000001F0F0F9002876D194F83C00012872D04B
:10291000012084F83C0020680168C90703D10168E0
:1029200041F0010101602068016821F4006101604B
:10293000212084F83D00102084F83E000026266403
:10294000C4F824806785608D20852D48E0622B4681
:102950004A465146204601F0CDF890B920684169B9
:102960008069009036E02A464946204601F098FAF0
:1029700050B1206C042804D12068016841F4007132
:1029800001600120BDE8F88F606A21680078086165
:10299000606A401C6062618D491E6185218D491EFF
:1029A00089B2218522685369DB435B070BD451B19F
:1029B00000781061606A401C6062608D401E608516
:1029C000208D401E20852A464946204601F05EF9AA
:1029D0000028CED1208D0028C5D154F83D0B0168C8
:1029E00041F400710160202004F81E09E677667743
:1029F0000020C7E7FFE70220C4E700000200100044
:102A00000000FFFF2DE9FF4F83B00025DDE91079BD
:102A10009A4693460446DDF848800095FFF792FEFB
:102A2000064694F83D0020287CD1192301228849CC
:102A30002046009601F056F90028F5D194F83C00A4
:102A400001286FD0012084F83C0020680168C90784
:102A500003D1016841F0010101602068016821F49F
:102A600000610160222084F83D00402084F83E008F
:102A700025646762A4F82A90608D20857548E0621D
:102A8000CDE9008653465A462046049901F080F865
:102A900000287CD1208DDFF8C091202768B1012863
:102AA00014D00228206801681ED041F480610160C2
:102AB0002068416980690090BCE0206841698169B3
:102AC0000091016841F400710160B3E02068016881
:102AD00021F48061016072B62068416981690091CA
:102AE000016841F400710AE041F40061016072B6CE
:102AF0002068416981690091016821F48061016069
:102B000062B697E0032865D801280CD00228434616
:102B10004FF000024946204600960BD001F0E2F843
:102B2000A8BB0CE091E032464146204601F080F916
:102B300068BB72E001F0D6F848BB72B633E020689B
:102B4000016821F48061016072B620680069616AE1
:102B50000870606A401C6062208D401E2085608D78
:102B6000401E60853D4846F2A8110068B0FBF1F0B8
:102B7000C0EBC00000EB80000090401E009007D02A
:102B800020684069C04340070DD50098F5E727E06D
:102B900044F8305F6773A573206940F0200020611E
:102BA00062B625731CE02068016841F40071016081
:102BB00020680069616A0870606A401C6062218D4B
:102BC000491E2185618D491E618562B621680969AA
:102BD000017026E032464146204601F029F918B13D
:102BE000012007B0BDE8F08F20680069616A0870B5
:102BF000606A401C6062208D401E81B22185608D1C
:102C0000401E608520684269D243520712D40329CE
:102C100003D1016821F48061016020680069616A64
:102C20000870606A401C6062208D401E2085608DA7
:102C3000401E6085208D00287FF464AF84F83D70CD
:102C400084F83E5084F83C50CBE70220C9E70000EE
:102C5000020010000000FFFF0400010040000020FF
:102C600010B586B000210091019102910391006896
:102C7000104988421BD1104CA06940F00800A061A7
:102C8000A069694600F0080004904FF4406000908D
:102C900012200190032003900848FFF74DFCE069E3
:102CA00040F48000E061E06900F48000049006B028
:102CB00010BD00000058004000100240000C014010
:102CC0000248816802781144816070473400002016
:102CD000074810B5016841F010010160032000F0C1
:102CE000A7F80F2000F006F800F050F8002010BD03
:102CF0000020024030B505461F4887B0C16941F049
:102D00001001C161C06906A900F01000009001A87F
:102D100000F036F90498B0B100F052F940001749BC
:102D2000174AB0FBF1F11748491E0260416040F2BA
:102D3000E7320021C0E903218160816100F04CFB92
:102D4000040003D015E000F03BF9E8E70D4800F07F
:102D500071FB04000DD1362000F03CF8102D07D295
:102D600000222946362000F043F80748056000E0BD
:102D7000012407B0204630BD0010024040420F0041
:102D800000100040C8050020380000200F4808B59A
:102D9000816941F001018161816901F001010091C6
:102DA000C16941F08051C161C069002200F08050CA
:102DB00000900F21901E00F01BF80548416821F09B
:102DC000E06141F08061416008BD000000100240F8
:102DD00000000140002809DB00F01F0201219140A2
:102DE0004009800000F1E020C0F8001170470000A9
:102DF000F0B40E4B1B680C46C3F30223C3F1070566
:102E0000042D00D90425191D072901D2002300E053
:102E1000DB1E012606FA05F1491E214099409E401D
:102E2000761E16403143F0BC02F0AAB90CED00E06A
:102E3000064900F0070208684FF6FF03184040EA11
:102E40000220034A10430860704700000CED00E0C8
:102E50000000FA052DE9F0470F46050061D0434E0A
:102E6000306800F00700B84209D2306820F007004F
:102E700038433060306800F00700B84251D128680C
:102E80003B4C810712D5400703D5606840F4E060F1
:102E900060602878000703D5606840F46050606087
:102EA0006068A96820F0F000084360602878C007D7
:102EB00028D06868012810D02168022810D089071E
:102EC00000292EDA616821F0030101436160FFF7F8
:102ED00039FC804641F288390DE021688903EFE72B
:102EE0008901EDE7FFF72EFCA0EB0801494502D967
:102EF0000320BDE8F0876068696800F00C00B0EB63
:102F0000810FEFD1306800F00700B8420BD930686C
:102F100020F0070038433060306800F00700B84206
:102F200001D00120E5E72878400705D56068E96809
:102F300020F4E060084360602878000706D56068E8
:102F4000296920F4605040EAC100606000F058F840
:102F50006168084AC1F30311515CC8400649086022
:102F600006480068FFF7C6FE0020C2E700200240C6
:102F70000010024076FD01084000002038000020CB
:102F80000F2202600C4A536803F003034360536846
:102F900003F0F0038360536803F4E063C360526896
:102FA0004FF4E06303EAD20202610448006800F0D3
:102FB0000700086070470000001002400020024037
:102FC0000448054900684968044AC1F30221515C7C
:102FD000C8407047400000200010024086FD0108F4
:102FE0000448054900684968044AC1F3C221515C9C
:102FF000C8407047400000200010024086FD0108D4
:103000000E4A51680E4801F00C03042B11D0082B16
:103010000FD10C48C1F38343C903C05C0AD5516882
:10302000084AC1F34041921E515C054A5043B0FB2F
:10303000F1F0704704494843704700000010024017
:1030400000127A0066FD010800093D002DE9F84FE5
:10305000040070D02078C04DC00749D06868C0F324
:103060008100012807D06868C0F38100022809D1D7
:103070006868C00306D52868800339D560680028D1
:10308000E7D035E06068B0F5803F0BD010B1B0F507
:10309000A02F11D0286820F480302860286820F400
:1030A000802002E0286840F480302860606890B199
:1030B000FFF748FB06460AE0286840F480202860B5
:1030C000F0E700BFFFF73EFB801B642873D8286839
:1030D0008003F7D50CE0FFF735FB064605E000BF9F
:1030E000FFF730FB801B6428F0D828688003F7D4F2
:1030F00020789A4E80074FF001094FF0000839D52B
:10310000686810F00C0F07D06868C0F381000228CF
:1031100009D16868C00306D42868800714D52069DF
:10312000012808D110E02069B0B1C6F80090FFF77F
:1031300009FB074605E00AE1FFF704FBC01B022874
:10314000C4D828688007F7D52868616920F0F8009E
:1031500040EAC10028600DE0C6F80080FFF7F2FAEF
:10316000074604E0FFF7EEFAC01B022823D82868C0
:103170008007F7D4207800072CD57948A169D9B108
:10318000C0F80090FFF7DEFA074604E0FFF7DAFA2E
:10319000C01B02280FD8686A8007F7D571484FF422
:1031A000FA510068B0FBF1F0009000BF0098411E9A
:1031B0000091FAD20EE080E0C0F80080FFF7C2FA7A
:1031C000074604E0FFF7BEFAC01B022875D8686AFC
:1031D0008007F7D42078400760D5E8690027C00051
:1031E00008D4E86940F08050E861E869012700F000
:1031F000805000905C480168C90513D4016883467B
:1032000041F480710160FFF79DFA824606E000BF3D
:10321000FFF798FAA0EB0A0064284ED8DBF800000C
:10322000C005F5D5E06801280AD008B1052813D0FB
:10323000286A20F001002862286A20F0040002E0D9
:10324000286A40F001002862E06841F2883B98B1AA
:10325000FFF778FA82460BE0286A40F00400286203
:10326000EEE700BFFFF76EFAA0EB0A0159455AD806
:10327000286A8007F6D50CE0FFF764FA824605E07D
:10328000FFF760FAA0EB0A0159454CD8286A80077D
:10329000F6D41FB1E86920F08050E861E06988B396
:1032A0006968C1F38101022944D00228C6F8608010
:1032B00004D0FFF747FA044638E034E0FFF742FA5B
:1032C000074604E0FFF73EFAC01B02282BD8286807
:1032D0008001F7D4206AB0F5803F05D16868A16805
:1032E00020F4003008436860D4E9080108436968A5
:1032F00021F4741108436860C6F86090FFF722FA61
:10330000044606E025E000BFFFF71CFA001B022878
:1033100009D828688001F7D51BE000BFFFF712FA33
:10332000001B022802D90320BDE8F88F286880011D
:10333000F4D40EE00128F7D06868226A00F48031E6
:10334000914204D1616A00F47010884201D00120DA
:10335000EAE70020E8E700000010024000004242D7
:1033600080044242400000200070004070B51546C5
:103370000E46040007D0A069B0F5807F03D094F812
:10338000410010B107E0012070BD002084F840002A
:10339000204600F01DF804F108012068FEF7DEFD6C
:1033A0003146A2682068FEF70DFED4E901022946E5
:1033B000236BFEF7B5FDA168206850F8212042F08C
:1033C000010240F82120012084F84100002070BD56
:1033D000FFF77EB87047704710B5040003D094F82B
:1033E0003D0010B107E0012010BD002084F83C0032
:1033F000204600F01EF8022084F83D00211D2068C0
:1034000001F098FB012084F8460084F83E0084F81F
:103410003F0084F8400084F8410084F8420084F8BA
:10342000430084F8440084F8450084F83D000020FF
:1034300010BD704790F83D10012901D00120704760
:10344000022180F83D100168CA6842F00102CA609A
:1034500000680E4988420ED00D4988420BD0B0F169
:10346000804F08D00B49884205D00B49884202D0D2
:103470000A49884204D1816801F00701062903D076
:10348000016841F00101016000207047002C0140FB
:10349000003401400004004000080040000C0040DF
:1034A00070472DE9F04104460068C66805694FF091
:1034B0000007A90713D5B10711D5F91E0161012035
:1034C0002077206880698007204602D0FFF7E8FF58
:1034D00004E000F07EF8204600F07CF827776807CB
:1034E00016D5700714D521686FF00400086102201A
:1034F00020772068806910F4407F204602D0FFF7D3
:10350000CFFF04E000F065F8204600F063F827776D
:10351000280715D5300713D521686FF0080008611A
:10352000042020772068C0698007204602D0FFF77A
:10353000B7FF04E000F04DF8204600F04BF8277785
:10354000E80616D5F00614D521686FF01000086162
:10355000082020772068C06910F4407F204602D000
:10356000FFF79EFF04E000F034F8204600F032F848
:103570002777E80708D0F00706D021686FF0010030
:103580000861204600F028F8280608D5300606D540
:1035900021686FF0800008612046FFF71BFF680676
:1035A00008D5700606D521686FF0400008612046F6
:1035B00000F01CF8A8060AD5B00608D521686FF0FF
:1035C000200008612046BDE8F041FFF704BFBDE8D8
:1035D000F08170477047000000680349884201D1BC
:1035E000FFF76EBB70470000001000407047704747
:1035F0000449CA68904204D10020887002A000F0FB
:10360000E5BE7047000000205541525420444D4112
:10361000207472616E736D697373696F6E20657269
:10362000726F7200F8B5016804460868CA684B6991
:1036300010F00F0F4FF0000559D003F0010602F40F
:103640009077374365D0C10705D0D10503D5616CAC
:1036500041F001016164410705D5D90703D0616CD0
:1036600041F002016164810705D5D90703D0616C7F
:1036700041F004016164010707D502F020013143E4
:1036800003D0616C41F008016164616C00293AD09B
:10369000800604D5900602D5204601F021FB206863
:1036A0004069616CC0F38010090700D460B3204604
:1036B00001F0E1FA20684069400621D52068143005
:1036C00050E8001F21F0400140E80012002AF5D127
:1036D000E06BA8B16D494163E06BFEF7B5FC0028D3
:1036E00011D0E06B416B01B0BDE8F04008478306A4
:1036F0000FD593060DD52046BDE8F84001F0F0BA8D
:103700002046FFF775FFF8BD2046FFF771FF65649F
:10371000F8BD266B2023012E7CD1C6067AD5D606AD
:1037200078D508684868009048694FF0020640065E
:1037300040D5E16B086840680004000CE8D0A28D19
:103740008242E5D9E085886920282DD020680C3098
:1037500050E8001F21F4807140E80012002AF5D1E2
:103760002068143050E8001F21F0010140E80012E9
:10377000002AF5D12068143050E8001F21F04001E4
:1037800040E80012002AF5D184F842302563206811
:103790000C3050E8001F21F0100140E80012002A10
:1037A000F5D1E06BFEF72CFC6663A08DE18D401A2D
:1037B00081B22AE0A08DE18D401A81B2E08D00280F
:1037C000A6D00029A4D022680C3252E8000F20F4C1
:1037D000907042E80007002FF5D12068143050E8BF
:1037E000002F22F0010240E80027002FF5D184F8D5
:1037F0004230256320680C3050E8002F22F0100280
:1038000040E80023002BF5D166632046FFF7EFFE6A
:10381000F8BDFFE705062BD5150629D594F841001C
:103820002128F5D1A068B0F5805F01D12069B0B141
:10383000206A411C2162216800784860E08C401EAB
:103840000004000CE084E3D12068C16821F080010D
:10385000C1602068C16841F04001C160D8E7206ABA
:103860000088C0F308004860206A801C2062E5E7F9
:103870004006CDD55006CBD5CA68204622F040027E
:10388000CA6084F8413000F011F9C1E7D14B00085B
:1038900070B5040004D094F84100002510B106E092
:1038A000012070BD84F84050204600F023F8242009
:1038B00084F841002068C16821F40051C1602046AD
:1038C00001F070FA2068016921F4904101612068DB
:1038D000416921F02A0141612068C16841F4005129
:1038E000C1606564202084F8410084F8420065636B
:1038F000002070BD2DE9F04186B0002400940194B1
:10390000029403940646DFF810C10368434802227C
:103910000321434D10274FF08008634538D1836958
:1039200043F480438361836903F480430493836990
:1039300043F0040383618069039100F00400049064
:103940001002CDE9000269462846FEF7F5FD28156C
:10395000CDE90004694628460294FEF7EDFD324D9C
:1039600030482860C5E90174C5E903846C61AC6125
:103970002846EC61FEF724FD08B1FEF7CFFAB563E7
:103980000022052125206E62FFF732FA25203DE056
:10399000DFF898C063453BD1C36943F40033C3618A
:1039A000C36903F400330493836943F00403836120
:1039B0008069039100F0040004900420CDE9000226
:1039C00069462846FEF7B8FD0820CDE9000469469F
:1039D00028460294FEF7B0FD134D124844353C30A2
:1039E0002860C5E90174C5E903846C61AC612846AF
:1039F000EC61FEF7E5FC08B1FEF790FAB563002232
:103A0000052126206E62FFF7F3F92620FFF7E2F981
:103A100006B0BDE8F081000000380140001002400F
:103A200000080140440002404005002000440040DE
:103A30007047000070B5044690F84100202801D07E
:103A4000022070BD49B342B32162A284E284002007
:103A50006064212384F84130A56B114BAB62A56BE8
:103A6000104BEB62A56B104B2B63A36B586325685F
:103A700013462A1DA06BFEF7E1FC21686FF04000A1
:103A800008602068143050E8001F41F0800140E8D1
:103A90000012002AF5D1002070BD012070BD000089
:103AA0002B4C00086D4C0008E14B00080349CA6824
:103AB000904201D100208870704700000000002073
:103AC0007047FEE701684A69D24352050FD46FF48C
:103AD00080624A61002140F8301F202242738173C6
:103AE000026942F004020261017301207047002064
:103AF00070470000F8B50446C06A1E460D461746DA
:103B0000082807D0012805D010F5803F02D0206B8F
:103B1000122804D12068016841F4807101601346C5
:103B200000224FF001112046009600F0DBF840B172
:103B300020680068C00502D54FF40070206403209F
:103B4000F8BD2069B0F5804F0ED00620216800EA4C
:103B5000D51040F0F000086133463A460B49204644
:103B600000F008F978B902E005F0FE0000E0E8B2E4
:103B700021680861054933463A46891F204600F00E
:103B8000F9F80028DCD00120F8BD00000800010091
:103B90002DE9F84F0446006889460B9D0168984658
:103BA000174641F4806101602068016841F480712A
:103BB000016000954FF0011B0022594620460A9BE8
:103BC00000F090F84FF4007A40B120680068C0051A
:103BD00001D5C4F840A00320BDE8F88F216809F0A2
:103BE000FE0008612B46284920460A9A00F0C2F8D8
:103BF000F0BB20684169806900902A4620460A99F6
:103C000000F04EF940B1206C04283AD120680168D8
:103C100041F40071016034E0FEB2B8F1010F09D047
:103C20002168380A08612A4620460A9900F038F9C6
:103C30000028E8D1206806612A4620460A9900F04B
:103C40002FF90028DFD12068016841F480710160FC
:103C500000950022594620460A9B00F043F80028B0
:103C6000B3D1216809F0FF0040F00100086100E0D5
:103C700007E02B46044920460A9A00F07BF800280A
:103C8000AAD00120A8E700000200010070B5164686
:103C90000D4604461EE02046FFF714FF08B1012040
:103CA00070BD681C16D0FEF74DFD801BA84200D8E1
:103CB00085B920684069C04340070BD5002044F80F
:103CC000300F20216173A073216941F0200121612F
:103CD0002073E4E720684069C0434007DBD400203C
:103CE00070BD00002DE9F047984617460D46044682
:103CF000C1F30746DDF820902AE000BFB8F1FF3F8E
:103D000026D0FEF71FFDA0EB0901414502D8B8F10E
:103D1000000F1DD12068012E16D0806925EA000011
:103D20000004000C12D00020B84211D1002044F849
:103D3000300F20216173A073216941F020012161BE
:103D400020730120BDE8F0874069E7E70120EBE739
:103D50002068012E0AD0806925EA00000004000CCA
:103D600006D00020B842C9D00020EBE74069F3E755
:103D70000120F7E72DE9F047984616460D46044620
:103D80004FF000094FF0200AC1F3074723E02068F5
:103D90004069C043400515D42068016841F40071B2
:103DA000016021686FF480604861C4F8309084F845
:103DB0003DA084F83E90216C41F00401216484F818
:103DC0003C9021E0701C06D0FEF7BCFCA0EB080084
:103DD000B04203D816B1012F1FD021E02068012F77
:103DE00015D0806925EA00000004000C18D000BF3F
:103DF00044F8309F84F80DA084F80E90216941F0BA
:103E00002001216184F80C900120BDE8F087406911
:103E100025EA00000004000CEAD12068406901E0B6
:103E20002068806925EA00000004000CAFD1ECE7AF
:103E30002DE9F041002590460E460446202728E053
:103E40004069C043C0060CD454F8301B6FF010001A
:103E5000486144F810596777A577206A2062257772
:103E600014E0FEF76FFCA0EB0800B04200D886B962
:103E700020684069C04340060BD544F8305F677343
:103E8000A573206940F02000206125730120BDE862
:103E9000F08120684169C9434906D1D40020F6E782
:103EA00070B516460D4604461EE02046FFF70AFE92
:103EB00008B1012070BD681C16D0FEF743FC801BC2
:103EC000A84200D885B920684069C04300060BD5D8
:103ED000002044F8300F20216173A073216941F064
:103EE000200121612073E4E720684069C043000697
:103EF000DBD4002070BD0000034908B1080601E0D2
:103F00004FF48050086070471014014070B51C4693
:103F1000154600F075F8044905FB04F04989BDE831
:103F2000704000F00BB80000CC00002001B50098F4
:103F300001E0401E00900028FBD108BD10B5002212
:103F40002C23DC062380034B01E01980521C8242A3
:103F5000FBD310BD0000026030B507283AD81E49D7
:103F6000C4074FF0F00208704FF4A07313D04B80D9
:103F70008A80362213071A80CC88184AA4F5134584
:103F8000413D04D0A4F50545523D07D008E0082482
:103F900044EA401003E04A808B80EAE74001108049
:103FA0002A2018800020108010804888401EC0F30E
:103FB00007241480C0B210802B20188000201080AD
:103FC00010808888401EC0F307211180C0B2108085
:103FD0002C20188030BD0000CC00002000000260C2
:103FE00010B50120FFF788FF00F0BEF900F028F8B7
:103FF00002480078BDE81040FFF7AEBFCC000020BB
:1040000070B54FF0C0452A242C800C4C060A26803F
:10401000C6B226801044401E020A2280C0B2208010
:104020002B202880080A2080C8B22080C818401E93
:10403000010A2180C0B2208070BD00000000026033
:1040400010B500F06DF9B349B44AA0F51343C88028
:10405000B1494FF0C044413B7ED0A0F50543523BEF
:104060007BD1CF20208000200880C1200880302014
:104070000880ED2020806420088003200880122022
:10408000088081200880E82020808520088010207A
:10409000088078200880CB202080392008802C20C0
:1040A0000880002008803420088002200880F72043
:1040B000208020200880EA202080002008800880BE
:1040C000C020208021200880C1202080112008806D
:1040D000C52020802D2008803320088036202080B5
:1040E000002008803A20208055200880B1202080C0
:1040F0000020088017200880B62020800A20088031
:10410000A2200880F620208001200880302008802E
:10411000F2202080002008802620208001200880B6
:10412000E0202080D0200880002008800220088025
:10413000072008800B2008801A2008803120088082
:104140005420088040200880292008801220088000
:1041500008800880172001E029E027E00880E1209E
:104160002080D020088000200880022008800720BE
:10417000088005200880252008802D200880442004
:104180000880452008801C20088018200880162000
:1041900008801C2008801D200880112020801046E7
:1041A000FFF7C4FE292020802C20208010BDCF20C6
:1041B0002080002008808120088030200880ED20A9
:1041C000208064200880032008801220088081203D
:1041D0000880E82020808520088010200880782032
:1041E0000880CB202080392008802C2008800020E7
:1041F00008803420088006200880F72020802020B6
:104200000880EA202080002008800880B1202080DB
:10421000002008801B200880B62020800A2008800B
:10422000A2200880C020208035200880C120208066
:1042300011200880C5202080452008800880C720E4
:104240002080A2200880F2202080002008802620E4
:10425000208001200880E02020800F200880262078
:104260000880242008800B2008800E200880092068
:10427000088054200880A8200880462008800C2050
:10428000088017200880092008800F200880072058
:10429000088000200880E12020800020088019206C
:1042A00008801B2008800420088010200880072038
:1042B00008802A20088047200880392008800320B1
:1042C0000880062008800880302008803820088078
:1042D0000F20088036202080C82008802A202080D7
:1042E0000020088008800880EF2008802B20208094
:1042F000002008800880012008803F2008803A20A4
:10430000208055200880112020801046FFF70EFEE7
:1043100029204AE7CC00002000000260FCBF020018
:1043200010B54FF0C043042018800E490888088853
:1043300008884FF6FF7202EA002408882043A0F59F
:104340000544523C0DD0D32018800888088808887E
:1043500002EA002208881043A0F51341413900D039
:10436000002010BD0000026070B5084C4FF4003012
:10437000206040F6FF252846FFF7D8FD0220206088
:104380002846BDE87040FFF7D1BD0000101801407D
:104390004FF0C04108807047014908807047000015
:1043A000000002600FB44FF4807100B5C1B043ABA0
:1043B0006846429AFBF7ECFF6A4603A1032000F02F
:1043C00077F841B05DF814FB257300000FB44FF48B
:1043D000807100B5C1B043AB6846429AFBF7D8FF85
:1043E0006A460349002000F063F841B05DF814FB11
:1043F000184400080FB44FF4807100B5C1B043AB4E
:104400006846429AFBF7C4FF6A4603A1022000F007
:104410004FF841B05DF814FB2573000030B5174C20
:1044200089B0207810BB00224FF48471202016F050
:1044300007FD6060D0B1242211496846FCF7B6F947
:104440006A4600210F4816F05DFD0025A06078B196
:104450004FF4A0710C48FCF7E3F9A570022020701E
:104460000AA0FFF7C7FF002009B030BD0120FBE71D
:10447000606816F09DFC6560F8E700000000002011
:10448000D4FC010861450008D40200204C6F67206D
:1044900073797374656D20696E697469616C697A8A
:1044A0006564207375636365737366756C6C7900FE
:1044B0000FB430B5144C0546C3B0207802281FD184
:1044C000606800281CD0042D1AD248AB4FF48071CC
:1044D0000DF10500479AFBF75BFF8DF80450FEF7DE
:1044E00031F9002300901A466946606816F0D4FC42
:1044F000002805D00A2300226946606816F0CCFC2B
:1045000043B030BC5DF814FB0000002070B50646D7
:10451000FCF7E8F80504104C2D0C04D1002070BD08
:10452000012016F002FCA0780028F9D140F23F12D9
:1045300031460A48FCF7BDF90848002680F83F617B
:104540000120A0702A460549E068FFF773FA0028A9
:10455000E5D0A67070BD000000000020D40200204D
:10456000ADF5167D144C4FF0FF380DF10D0504F13B
:1045700010064FF4A0774346002202A9606816F0A7
:104580002DFCA8B99DF80C006178884210D8FEF780
:10459000D9F803469DF80C0008A2394656F82000C9
:1045A000CDE9000544A8FBF70DFF44A8FFF7AEFFD7
:1045B000012016F0BAFBDEE7000000205B25303852
:1045C0006C755D205B25735D2025730D0A0000006E
:1045D0000D4808B5416941F001014161406900227F
:1045E00000F00100009005210E20FEF701FC0E20D6
:1045F000FEF7F0FB002205211120FEF7F9FBBDE8D4
:1046000008401120FEF7E6BB0010024010B5FFF78E
:1046100005FF02F0A1F916F035FE104A00211048FE
:1046200016F070FC0F4C0D4A0021A060483A0E486D
:1046300016F068FC094A2060243A00210B4816F065
:1046400061FC6060011E04D0BDE8104008A0FFF7C7
:10465000D1BEBDE8104012A0FFF7B8BE40FD010872
:104660000D4A000820000020BD69000831B0010893
:104670005072657373757265207461736B20637219
:104680006561746564207375636365737366756CC7
:104690006C79202D2048616E646C653A202570008D
:1046A0004661696C656420746F206372656174652E
:1046B000207072657373757265207461736B21006D
:1046C00000B587B01C216846FCF7CCF817484FF0BE
:1046D0002041102201601649416000218160C160C3
:1046E000C0E904128161C16113020162C0E90913CA
:1046F000C1620163416381630F20CDE9001002AB09
:10470000082083E807001120CDE905010022694651
:104710000648FEF72BFE08B1FDF700FC0548C1690D
:1047200041F48061C16107B000BD000014040020A5
:10473000040100A0000001402DE9F04F85B00025E4
:104740003D480095019502950395816941F040012E
:104750008161816901F040010491816941F00401A6
:104760008161816901F004010491816941F00801CE
:104770008161816901F008010491816941F02001A2
:1047800081618069002200F02000049005212B48FF
:10479000FDF7D3FFDFF8A8A0012211465046FDF730
:1047A000CCFFDFF8A0B04FF48058002241465846B5
:1047B000FDF7C3FF4FF40059012249465846FDF763
:1047C000BCFF012202211D48FDF7B7FF052001248F
:1047D00003268DE8710069461848FDF7ADFE1820E4
:1047E000CDE90005694602941448FDF7A5FE01AA2B
:1047F0000227009482E8B00069465046FDF79CFE0F
:10480000CDE90084CDE9024669465846FDF794FE9D
:1048100001AACDF8009082E8700069465846FDF77D
:104820008BFECDE90074CDE9024669460348FDF7E9
:1048300083FE05B0BDE8F08F001002400018014073
:10484000000C0140001401400D4810B50B490160F7
:104850000C49416000214FF480428160C0E903129D
:1048600041618161C1610162FDF772FF002803D0DF
:10487000BDE81040FDF752BB10BD000000580040DD
:104880005C040020A08601000C4810B50A490160B4
:104890004FF4E1314160002181600C22C160C0E928
:1048A00004128161C161FEF7F3FF002803D0BDE867
:1048B0001040FDF733BB10BD00380140B0040020AC
:1048C0000C4810B50A4901604FF4E1314160002104
:1048D00081600C22C160C0E904128161C161FEF7F0
:1048E000D7FF002803D0BDE81040FDF717BB10BD6F
:1048F00000440040F8040020FEE7FEE77CB5134CBE
:104900003025002120608DF804508DF805106426B4
:10491000022301AADA210096FDF7DEFF78B90A200A
:10492000FDF7C4FD8DF8045003208DF805000096B6
:10493000022301AADA212068FDF7CEFF08B1012089
:104940007CBD3220FDF7B2FD00207CBDAC01002013
:104950007FB50D466422032103A88DE8070019489E
:1049600001230622DA210068FEF74CF810B102207C
:1049700004B070BD9DF80C009DF80D10000440EAD5
:1049800001249DF80E000443200202D5641EE0437A
:10499000444221460CA0FFF705FD20461AF092FD87
:1049A0000F4A104B1AF0A4FE00220F4B1AF0A2FD82
:1049B000C5E9000102460B460CA0FFF7F3FC0020FE
:1049C000D6E70000AC010020507265737375726504
:1049D000207261772076616C75653A20256400004D
:1049E0009A999999999929410000843E507265736A
:1049F0007375726520636F6E766572746564207678
:104A0000616C75653A20252E3266000040F6B8309C
:104A100016F08BF90CA0FFF7EDFC10A0FFF7C2FC1D
:104A2000002019F05BFC014611A0FFF7BBFC00243D
:104A30004FF47A75214618A0FFF7B4FC2846641C91
:104A400016F073F9F6E700006C6F6720696E697401
:104A500020737563636573730000000064656661AD
:104A6000756C74207461736B2073746172740000D0
:104A700044656661756C74207461736B2073746136
:104A8000636B2068696768207761746572206D6167
:104A9000726B3A20256C75006C6F6720636F756EC2
:104AA0007465723A20256C750000000010B54FF057
:104AB000E02000691AF042FA012803D0BDE8104056
:104AC00019F0FCBE10BD30B58FB028216846FBF749
:104AD000C9FE14210AA8FBF7C5FE01210804CDE98F
:104AE00000100024029402250491CDE907504FF4F0
:104AF000E01009906846FEF7A9FA08B172B6FEE721
:104B00000F20CDE90A054FF48060CDE90C40022169
:104B10000AA80E94FEF79EF9002801D072B6FEE7AF
:104B20000FB030BD704700000148FEF7BABC00006E
:104B3000C8050020F0B50268204C214D214E224FBF
:104B4000224B4FF0804CA04209D0984207D06045DC
:104B500005D0A84203D0B04201D0B84204D122F01F
:104B6000700E4A6842EA0E02A04209D0984207D06D
:104B7000604505D0A84203D0B04201D0B84203D16D
:104B800022F44075CA682A434D6922F080022A4304
:104B900002608A68C2620A688262A04201D09842BA
:104BA00001D109690163012141610169C90703D08C
:104BB000016921F001010161F0BD0000002C0140FC
:104BC0000004004000080040000C00400034014098
:104BD00010B5406A0021C185C184FEF709FD10BDF2
:104BE00070B5446A2068406994F84110C0F3C01061
:104BF0000025212904D118B1E584204600F062F88F
:104C00002068406994F84210C0F38010222904D132
:104C100018B1E585204600F02EF8606C40F01000D9
:104C200060642046FEF7E4FC70BD10B50146406AA2
:104C300009680968890616D40021C1840168143105
:104C400051E8002F22F0800241E80023002BF5D12B
:104C500001680C3151E8002F42F0400241E8002386
:104C6000002BF5D110BDFEF721FF10BD10B5406A35
:104C7000FEF726FF10BD01680C3151E8002F22F429
:104C8000907241E80023002BF5D10168143151E8FE
:104C9000002F22F0010241E80023002BF5D1016B27
:104CA000012909D101680C3151E8002F22F01002CE
:104CB00041E80023002BF5D1202180F8421000218B
:104CC0000163704701680C3151E8002F22F0C002E7
:104CD00041E80023002BF5D1202180F841107047D6
:104CE00008B590F84210222901D0022008BD826840
:104CF0004FF480539A4201D1016921B1816A9A42ED
:104D00001BD04AB10AE00268816A5268C2F3080205
:104D10000A80816A891C08E0026972B102685268DF
:104D200002F07F020A70816A491C8162C18D491EAE
:104D30000904090CC18503D01BE002685268F1E741
:104D40000168CA6822F02002CA600168CA6822F4B9
:104D50008072CA6001684A6922F001024A6120211A
:104D600080F8421000214163026B012A03D0FEF754
:104D70005FFE002008BD016301680C3151E8002F7F
:104D800022F0100241E80023002BF5D101680A68E7
:104D9000D20602D50A6849680091818DFEF727FC8A
:104DA000E7E7000070B5044600680169E26821F495
:104DB0004051114301612169A068084361690843BA
:104DC0002168CA6841F20C639A430243CA602068B2
:104DD0004169A26921F44071114341611E49206873
:104DE000884202D1FEF7FCF801E0FEF7E9F800EB9B
:104DF000C00101EB0012606864218000B2FBF0F397
:104E0000B3FBF1F36FF018067343B2FBF0F5B2FB9E
:104E1000F0F605EB8305322303EB0515B5FBF1F541
:104E2000B6FBF1F605F0F00505EB0615B2FBF0F662
:104E3000B2FBF0F0B0FBF1F06FF01802504306EB5C
:104E4000800003EB0010B0FBF1F0216800F00F00D0
:104E50002844886070BD0000003801400148FEF71A
:104E6000E1BB0000B00400200148FEF7DBBB0000FE
:104E7000F8040020FEE701B5002004E00B21491EE4
:104E8000C9B2FCD2401C00998842F7D308BD00008B
:104E90002DE9FC4706460D464FF00108684600F034
:104EA00089F8B8B3BDF902001AF0B6FD1C490978BB
:104EB00001EB410905EBC90461681AF0C5FD07461D
:104EC000BDF900001AF0A8FD55F839101AF0BCFD24
:104ED00039461AF023FDA1681AF020FD1AF080FD72
:104EE0003080BDF902001AF097FD21691AF0ACFD7F
:104EF0000546BDF900001AF08FFDE1681AF0A4FD27
:104F000029461AF00BFD61691AF008FD1AF068FDD8
:104F1000708002E0FFE74FF000084046BDE8FC87E4
:104F2000CC0000202DE9F047214C4FF480210646AB
:104F300021608810206000254FF0040A89468046D1
:104F40005FF00107C5F1070026FA00F0C00701D0A5
:104F5000504600E0484620600520FFF78CFF2760A0
:104F60000520FFF788FF4046C4F800806D1CEDB2B5
:104F7000082DE7D30026C4F800902760DFF83090B2
:104F800035468046A9F11009C4F80080082148463A
:104F9000FDF7CEFBC5F10B018840304386B2276098
:104FA0006D1CEDB20C2DEFD33046BDE8F08700004C
:104FB000101801402DE9F0418AB00546002628214D
:104FC0006846FBF74FFCDFF820816C469020FFF726
:104FD000A9FF07460120FFF74EFFD020FFF7A2FFF1
:104FE00024F8167004EB4601761C8882F6B2102174
:104FF0004046FDF79DFB08B90A2EE7D31021404635
:10500000FDF796FB10B13949002008700A2E03D035
:1050100000200AB0BDE8F081BDF90010BDF9140010
:105020008C4662460346012634F916708F4201DA37
:10503000394602E0974200DD3A46761CF6B20A2E67
:10504000F2D3012604EB4607B7F914709F4201DA48
:105050003B4602E0874200DD3846761CF6B20A2E57
:10506000F0D3BDF90240BDF90460BDF90670644497
:105070003E443444BDF908603444BDF90A60344408
:10508000BDF90C603444BDF90E603444BDF91060C4
:105090003444BDF912603444611A891AC910298058
:1050A000BDF91410BDF91620BDF91A401144BDF91F
:1050B000182022441144BDF91C201144BDF91E20C2
:1050C0001144BDF920201144BDF922201144BDF93D
:1050D00024201144BDF926201144C91A081AC01011
:1050E0006880012095E7000000180140DC000020E6
:1050F0002DE9F041164C0026164861783546012707
:1051000031B14FF00208012907D0022918D113E06C
:105110001021FDF70DFB68B112E01021FDF708FB2F
:1051200008B165600CE06068401C6060022801D92D
:10513000656009E0677004E01021FDF7F9FA18B125
:1051400065703046BDE8F08184F801800126F8E7FB
:10515000DC00002000180140490050EAC12018BFBF
:1051600004204A0D18BF40F0010040F2FF72B2EB7C
:10517000515F08BF40F00200012808BF05207047BA
:105180000907090E002804DB00F1E02080F8001474
:10519000704700F00F0000F1E02080F8141D704708
:1051A00030380A2801D201207047002070470000E3
:1051B00010B54421074800F082FE00221E21064857
:1051C00014F0DEFD054CA06001F006FB002020700D
:1051D00010BD000008AE00208D6800083C020020D1
:1051E0002DE9F0470E46814617461146304600F03D
:1051F00011F900287ED000223946304600F0B6F87A
:1052000000284FF0000076D1B6F904C0B6F900309E
:10521000F288ACEB03010FFA81FAB6F90210B7F885
:105220000280521AA8EB01080FFA88F812B2B8F1FE
:10523000000F0EDD63F30F046CF30F0501EB0800A4
:1052400061F31F4460F31F45C9F800400120C9F80D
:105250000450B7F906107388CB1AD21A12B2002A7A
:1052600013DDB6F9063099420FDA338863F30F0481
:10527000B38861F31F4463F30F05114461F31F45C5
:1052800009EBC001401C0C604D60B7F90220B6F973
:1052900002108A4200DD1146B7F90630B6F9062041
:1052A000934200DA1A463B88B6F900C0521AA3EBC3
:1052B0000C031BB212B2002B10DD002A0EDD63447A
:1052C00063F30F058B1863F31F456CF30F0409EBB1
:1052D000C00361F31F441C605D60401CB7F904709B
:1052E0003388FE1AAAEB06031BB2002B11DD67F30D
:1052F0000F0401E00FE00CE061F31F443B4463F353
:105300000F05114461F31F4509EBC001401C0C60FF
:105310004D60BDE8F0874FF0FF30FAE770B5B1F9A6
:105320000030B2F90040A34200DC23460380B1F90B
:105330000250B2F90240A54200DD2C464480B1F98A
:105340000460B2F90450AE4200DA35468580B1F906
:105350000610B2F90620914200DB1146C1800120FF
:10536000AB4201DC8C4200DD002070BDF8B50D467B
:105370000446B0F90000B1F900101646884247DB38
:10538000B4F90210B5F90220914241DBB4F90410DE
:10539000B5F9042091423BDCB4F90610B5F90620BA
:1053A000914235DC96B3ADF800006088ADF802009C
:1053B00032466946284600F099F8002827D0A08890
:1053C000ADF800006088ADF8020032466946284614
:1053D00000F08CF800281AD02088ADF80000E08892
:1053E000ADF8020032466946284600F07FF80028F2
:1053F0000DD0A088ADF80000E088ADF8020032467C
:105400006946284600F072F8002800D00120F8BD57
:105410000020F8BDB0F90020B1F904309A4213DC45
:10542000B0F90420B1F900309A420DDBB0F9022046
:10543000B1F906309A4207DCB0F90600B1F9021062
:10544000884201DB0120704700207047F8B50D4607
:105450000446B0F90400B1F900101646884243DB57
:10546000B4F90600B5F9021088423DDBB4F900003A
:10547000B5F90410884237DCB4F90210B5F90620FA
:10548000914231DC76B3ADF800006088ADF80200DF
:1054900032466946284600F029F818BBA088ADF8C6
:1054A00000006088ADF8020032466946284600F0E8
:1054B0001DF8B8B92088ADF80000E088ADF802000A
:1054C00032466946284600F011F858B9A088ADF870
:1054D0000000E088ADF8020032466946284600F038
:1054E00005F808B10020F8BD0120F8BD2DE9FC4108
:1054F00014460E46B1F90020B0F9001005468A4264
:105500003ADBB5F90400824236DCB6F90270B5F92F
:105510000220974230DBB5F906309F422CDC002C8C
:1055200075DD401A9A1A401C521C00B212B200EBF0
:10553000D07002EBD27240105210904200DB104645
:10554000844200DD0446ADF8001028880022204483
:10555000ADF804006888ADF8020068883146204440
:10556000ADF806006846FFF7C1FF40B1BDF8040082
:105570002044ADF804003FE00020BDE8FC81E8884D
:105580000022001BADF80200E888ADF806003146A5
:105590006846FFF7ABFF28B1BDF804002044ADF822
:1055A000040011E0A8880022001BADF80000A888C4
:1055B000ADF8040031466846FFF798FF50B1BDF8DA
:1055C0000000001BADF80000BDF80200001BADF8A4
:1055D000020016E06888ADF80200688800222044C6
:1055E000ADF8060031466846FFF780FF70B1BDF8A0
:1055F0000000001BADF80000BDF806002044ADF827
:1056000006003146684613F05FFAB6E7FFE701206F
:10561000B3E710B5B1F90040B2F900309C4200DAAE
:1056200023460380B1F90240B2F902309C4200DA0D
:1056300023464380B1F90440B2F904309C4200DDB6
:1056400023468380B1F90610B2F90620914200DCAE
:105650001146C18010BD0000F8B5074614F07CFB70
:105660000025374C0646009537B1F868606038462B
:1056700014F054FC606802E00AF03EFD60600069CE
:1056800013F026F96068406908B113F021F96068E9
:10569000C06913F01DF96068006A13F019F96068B9
:1056A000016991B113F0B4FA16F09CFD16F0F0FB0D
:1056B0006068B0F85011D9B30068017CC9071DD0EB
:1056C000C0684068D0B1002713E0A0F85051F8BD81
:1056D000C11991F8301151B900F5AC7000F046FCD9
:1056E000616801EBC7010A6B0260496B41607F1C76
:1056F000BFB26068B0F85011B942E9D860684FF4A1
:10570000807130300FF06EFC6068202100F59870D9
:105710000FF068FC6068A0F85051304614F015FB9B
:10572000009060680068436A13B122680099984746
:105730000FF0E2FA00F032F8BDE8F84000F002B8ED
:10574000E001002070B50A4D002400BFC4EBC40680
:1057500055F8260008B10FF043FB05EB86001C212D
:105760000FF040FC641CE4B2042CEFD370BD0000C9
:10577000A4AE0020084949680AE04A68824202D083
:105780000A68824203D10A7E42F001020A76496920
:105790000029F2D170470000B401002070470000DA
:1057A0000421014800F08BBBFCAD00202021014802
:1057B00000F085BB14AE00202DE9FF410446DDE971
:1057C0000A671D004FF0000002D1B6F5807F2BD094
:1057D000039001900290ADF80C100090ADF8041009
:1057E000ADF80A20ADF80E203B4632462946684601
:1057F00013F0CAF83B463246294601A813F0C4F814
:105800003B463246294602A813F0BEF83B463246D4
:10581000294603A813F0B8F8BDF90000BDF904301B
:10582000984209DA054608E02080491E6080A18080
:10583000521EE280BDE8FF811D46BDF90820BDF97A
:105840000C108A4201DA164600E00E46B54203DA31
:10585000984206DB184604E08A4201DA104600E06E
:105860000846801E2080BDF90030BDF90420934217
:1058700001DD1D4600E01546BDF90800BDF90C101C
:10588000884201DD064600E00E46B54205DD934242
:1058900001DD194604E0114602E0884200DD0146C0
:1058A000891CA180BDF90230BDF90620934201DABE
:1058B0001D4600E01546BDF90A00BDF90E108842EC
:1058C00001DA064600E00E46B54205DA934201DAF7
:1058D000194604E0114602E0884200DA0146891EBA
:1058E0006180BDF90230BDF90620934201DD1D46FD
:1058F00000E01546BDF90A00BDF90E10884201DD31
:10590000064600E00E46B54205DD934201DD19462C
:1059100004E0114602E0884200DD0146891CE18076
:1059200088E700002DE9F04115460E460746114C68
:1059300014F012FA80462B463246394620460EF0C5
:10594000E1F920B10020A062E06950B110E02C2103
:1059500020460FF047FB4FF00040A0620020BDE85A
:10596000F081404614F0F1F9E06108B90120E061EE
:105970002046F4E738AE002010B51421074800F0A7
:105980009EFA0EF085F940B1054901600549416074
:10599000054981600549C16010BDFEE720AE0020C9
:1059A00069360108E5390108B13B010837360108BD
:1059B00070B50D460446102128460FF013FB2068F1
:1059C0000078012804D0022807D0042807D008E076
:1059D000A08A2880E08A688003E0E06800E00A206E
:1059E000686020684268002A03D02946BDE87040FC
:1059F000104770BD2DE9FE430446808A10B9E08A45
:105A0000002873D0D4F82C805FEA080010D120461B
:105A100006F0C9F95FEA000868D0204607F080FE6A
:105A20000022092140460DF007F9607880075DD417
:105A30004FF4807900274E4645460021284611F054
:105A4000FBF9384407B20021284611F013FAC117B8
:105A500000EB11600012704306B2284610F012FBF2
:105A60000500EAD10FB94E450CD0784201B24FF48F
:105A7000803090FBF6F002B26B4604F11400009502
:105A800012F082FFADF80450ADF8085094F84000D1
:105A900000F00F000328404616D010F025FC064603
:105AA000404610F0FBFA03460C200090B4F91610A3
:105AB0003246404605F059FDADF80800404610F06A
:105AC0003FFBC10713D018E010F0A2FB064640468A
:105AD00010F03EFB024603200090B4F91410334648
