:020000040800F2
:1000000000000120C1050008A1040008A3040008A5
:10001000A5040008A7040008A904000800000000C7
:10002000000000000000000000000000AB04000819
:10003000AD04000800000000AF040008B10400088F
:100040000906000809060008090600080906000854
:100050000906000809060008090600080906000844
:100060000906000809060008090600080906000834
:100070000906000809060008B5040008090600087A
:100080000906000809060008090600080906000814
:100090000906000809060008090600080906000804
:1000A00009060008090600080906000809060008F4
:1000B00009060008090600080906000809060008E4
:1000C00009060008090600080906000809060008D4
:1000D00009060008C104000809060008090600080E
:1000E00009060008090600080906000809060008B4
:1000F00009060008090600080906000809060008A4
:100100000906000809060008090600080906000893
:100110000906000809060008090600080906000883
:100120000906000809060008090600080906000873
:1001300000000000000000000000000000000000BF
:1001400000000000000000000000000000000000AF
:10015000000000000000000000000000000000009F
:10016000000000000000000000000000000000008F
:10017000000000000000000000000000000000007F
:10018000000000000000000000000000000000006F
:10019000000000000000000000000000000000005F
:1001A000000000000000000000000000000000004F
:1001B000000000000000000000000000000000003F
:1001C000000000000000000000000000000000002F
:1001D000000000000000000000000000000000001F
:1001E0005FF8E0F110B5054C237833B9044B13B137
:1001F0000448AFF300800123237010BD0C000020E1
:10020000000000008418000808B5034B1BB1034927
:100210000348AFF3008008BD00000000100000207C
:10022000841800080A4B07B55A690E2042F00102F3
:100230005A6100225B69114603F001030193019B9F
:1002400000F050FA0E2003B05DF804EB00F07EBA27
:10025000001002404FF020430022174810B5036001
:1002600003F58273C0E901324FF48053FF24C0E9E3
:100270000A320F2388B01021CDE90133CDE90343C1
:100280001123C0E90512059101A90792C0E90322D3
:10029000C0E907224262C0E90C228263069301F0A2
:1002A0004BF808B100F0D8F8044AD36943F48063EE
:1002B000D36108B010BD00BF2C0000200000014039
:1002C00030B587B01022002102A801F0D3FA124BFA
:1002D0001A68FAB901221A60104B02255A690324E0
:1002E00042F480725A615B6902A903F4807301933E
:1002F000019B4FF680730A48CDE90235059400F062
:100300008DFC4CF6B37302A90648CDE9023505947D
:1003100000F084FC07B030BD28000020001002402F
:100320000018014000140140102270B588B00DEB98
:100330000200002101F09EFA1F4B00249A69012659
:1003400042F004029A619A691C4D02F00402009284
:10035000009A9A69284642F040029A619A692021DF
:1003600002F040020192019A9A6942F020029A61D9
:100370009A6902F020020292029A9A6942F00802F7
:100380009A619B69002203F008030393039B00F02A
:1003900031FD04A90A48CDE90464069400F03EFC4E
:1003A0002023CDE90436022304A9284606940793A6
:1003B00000F034FC08B070BD00100240000C014099
:1003C0000008014010B590B01422002108A801F0E7
:1003D00051FA1422002101A801F04CFA02244FF432
:1003E00080330122CDE90D43CDE906234FF4E0131C
:1003F00006A80A920F9300F00BFD08B172B6FEE753
:100400000F23CDE901344FF480630390CDE904302C
:10041000214601A800F0D4FE08B172B6FEE710B084
:1004200010BD000008B500F015F9FFF7CBFFFFF78E
:100430007BFFFFF7F7FE00F04BF8FFF70BFF054CD3
:100440002046202100F0DBFC4FF47A7000F026F902
:10045000F6E700BF000C014072B6FEE70E4B82B01B
:100460009A6942F001029A619A6902F001020092CF
:10047000009ADA6942F08052DA61DB69074A03F0D8
:1004800080530193019B536823F0E06343F00073B2
:10049000536002B0704700BF0010024000000140EE
:1004A000FEE7FEE7FEE7FEE7FEE7704770477047AE
:1004B00000F0E2B8014800F071BA00BF74000020FB
:1004C000014801F047B800BFB800002070470000A5
:1004D00008B54FF4E1330A480A4AC0E90023002373
:1004E0000C22C0E902330361C0E90523C36100F0B7
:1004F000A5FF18B1BDE80840FFF7AEBF08BD00BFBB
:10050000B800002000380140F0B51027064687B03B
:100510003A46002102A801F0ADF93268244B9A4214
:1005200043D103F558439A6902A942F480429A6183
:100530009A69204802F480420092009A9A69002544
:1005400042F004029A619B694FF4007203F00403C5
:100550000193019B0223CDE902230323059300F0BD
:100560005DFB4FF48063134802A9134CCDE90235BB
:10057000049500F053FB114B2046C4E9003780235B
:10058000A560C4E90335C4E90555E56100F002F949
:1005900008B1FFF761FF00222520746311466662EF
:1005A00000F0A0F8252000F0D1F807B0F0BD00BFA2
:1005B000003801400008014074000020440002405F
:1005C0000C480D490D4A002302E0D458C4500433AE
:1005D000C4188C42F9D30A4A0A4C002301E0136084
:1005E0000432A242FBD3FFF771FF01F01FF9FFF7BE
:1005F00019FF7047000000200C000020CC180008F4
:100600000C00002000010020FEE7000038B50E4B72
:10061000054618784FF47A73B3FBF0F30B4A106871
:10062000B0FBF3F000F0A0F8044658B90F2D09D83C
:10063000024629464FF0FF3000F054F82046044BA4
:100640001D6038BD0120FCE70400002000000020F0
:1006500008000020074A08B51368032043F0100380
:10066000136000F02DF80020FFF7D0FFFFF7F6FE33
:10067000002008BD00200240034A044B11681B788B
:100680000B441360704700BFFC00002004000020F2
:10069000014B1868704700BFFC00002038B50446C5
:1006A000FFF7F6FF0546631C1EBF044B1B78E418DA
:1006B000FFF7EEFF401BA042FAD338BD0400002034
:1006C000074A0002D36800F4E06023F4E0631B04EF
:1006D0001B0C43F0BF6343F400330343D360704704
:1006E00000ED00E0174B70B5DC684FF0FF36C4F347
:1006F0000224C4F10705042D04F1040328BF0425D6
:10070000062B98BF002406FA05F388BF033C21EAB4
:100710000303A34006FA04F422EA0404002843EA8F
:100720000403A8BF00F160404FEA0313B8BF064AB4
:10073000DBB2ABBF00F5614000F00F0080F8003382
:10074000135470BD00ED00E014ED00E0002808DB5C
:100750000123420900F01F0003FA00F0014B43F8A7
:100760002200704700E100E00138B0F1807F0AD23A
:10077000F021064B064A586082F823100020072219
:1007800098601A6070470120704700BF10E000E0D9
:1007900000ED00E010B5002832D00168194B142498
:1007A000994225D8184AA3F207430A44B2FBF4F24F
:1007B00092000264C363D0E901342343C4680A6829
:1007C0002343046922F47F522343446922F0300218
:1007D000234384692343C469234313430B600122E9
:1007E000002380F82120836380F82030184610BD54
:1007F000064B0B44B3FBF4F39B000364044BD9E7B3
:100800000120F4E707040240F8FFFDBFF8FBFDBF3D
:100810000004024090F82130022B06D004238363A9
:10082000002380F82030012070470368C16B1A68EC
:1008300022F00E021A601A6822F001021A600122E8
:10084000036C02FA03F34B60002380F8212080F848
:10085000203018467047000090F8213010B5022B68
:1008600003D004238363012010BD036845491A683F
:1008700022F00E021A601A6822F001021A60424A3F
:10088000934244D98B423BD014318B423AD014313D
:100890008B4239D014318B4226D014318B4226D072
:1008A00014318B4226D0934227D002F562729342D4
:1008B00026D01432934225D01432934224D01432DD
:1008C000934214BF4FF480334FF480532F4A536048
:1008D0000123002480F82130436B80F82040002B56
:1008E0004DD098472046BFE74FF48053EEE74FF4D2
:1008F0008033EBE74FF48013E8E74FF08073E5E7D0
:100900000123E3E71023E1E74FF48073DEE78B4236
:100910002ED01F498B422DD014318B422CD0143154
:100920008B4219D014318B4219D014318B4219D01B
:1009300093421AD0174A93421AD01432934219D0D4
:100940001432934218D01432934214BF4FF48033C0
:100950004FF48053104ABAE74FF48053FAE74FF44C
:100960008033F7E74FF48013F4E74FF08073F1E73B
:100970000123EFE71023EDE74FF48073EAE7184611
:1009800072E700BF080002408000024000040240FD
:100990001C000240080402400000024070B404251C
:1009A000C66B026C3468036895402542196800F0F4
:1009B00085804D0740F182801A68924996065EBF95
:1009C0001A6822F004021A608F4A93423ED98B4281
:1009D00035D014318B4234D014318B4233D01431A2
:1009E0008B4220D014318B4220D014318B4220D046
:1009F000934221D002F56272934220D01432934286
:100A00001FD0143293421ED01432934214BF4FF4BD
:100A100080234FF480437D4A5360C36A002B00F06B
:100A2000EF8070BC18474FF48043F4E74FF4802305
:100A3000F1E74FF48003EEE74FF08063EBE7042328
:100A4000E9E74023E7E74FF48063E4E78B422ED0E9
:100A50006F498B422DD014318B422CD014318B42F4
:100A600019D014318B4219D014318B4219D09342D2
:100A70001AD0684A93421AD01432934219D01432D1
:100A8000934218D01432934214BF4FF480234FF492
:100A90008043614AC0E74FF48043FAE74FF4802374
:100AA000F7E74FF48003F4E74FF08063F1E70423A6
:100AB000EFE74023EDE74FF48063EAE70225954036
:100AC000254200F087808D0740F184801A689406E3
:100AD00006D41A6822F00A021A60012280F8212046
:100AE000494A484993423DD98B4234D014318B4214
:100AF00033D014318B4232D014318B421FD0143199
:100B00008B421FD014318B421FD0934220D002F56C
:100B1000627293421FD0143293421ED01432934219
:100B20001DD01432934214BF4FF400334FF40053DE
:100B3000364A5360002380F82030836A6EE74FF412
:100B40000053F5E74FF40033F2E74FF40013EFE7FB
:100B50004FF00073ECE70223EAE72023E8E74FF4C5
:100B60000073E5E78B422ED029498B422DD01431FA
:100B70008B422CD014318B4219D014318B4219D0B6
:100B800014318B4219D093421AD0224A93421AD080
:100B90001432934219D01432934218D01432934233
:100BA00014BF4FF400334FF400531B4AC1E74FF416
:100BB0000053FAE74FF40033F7E74FF40013F4E77C
:100BC0004FF00073F1E70223EFE72023EDE74FF446
:100BD0000073EAE708259540254211D009070FD593
:100BE000196821F00E011960012303FA02F2726004
:100BF000836380F82130002380F82030036B0DE7F9
:100C000070BC7047080002408000024000040240AF
:100C10001C00024008040240000002402DE9F74F8A
:100C2000002426466C4F6D4BDFF8B8C1DFF8B8E101
:100C30000A6832FA06F502D103B0BDE8F08F4FF032
:100C4000010808FA06F802EA0802904540F084809C
:100C50004D68122D00F0B18000F28780022D00F067
:100C6000A9807BD8002D00F08C80012D00F0A080A1
:100C70004FF00F09FF2A93BF824606F18045083DD9
:100C8000D0F800B092BFB500D0F804B0AD0009FABA
:100C900005F82BEA080804FA05F588BF00F1040AF4
:100CA00048EA0505CAF80050D1F804A01AF0805FA0
:100CB00052D0BD6926F0030845F00105BD61BD694C
:100CC00008F1804805F00105019508F5803806F027
:100CD000030B019D4FEA8B0BD8F8085009FA0BF96A
:100CE00025EA09093E4DA8426CD005F58065A84269
:100CF0006AD005F58065A84268D005F58065A842F0
:100D000066D005F58065A84264D060450CBF052516
:100D1000062505FA0BF545EA0905C8F808501D68CF
:100D20001AF4803F14BF154395431D605D681AF4A3
:100D3000003F14BF154395435D609D681AF4801F02
:100D400014BF154395439D60DD681AF4001F14BF5E
:100D50002A4325EA0202DA60013669E7032D25D02D
:100D6000112D85D1CC68043482E7754509D012D89D
:100D7000DFF878904D4504D009F580394D457FF472
:100D800077AF8C68E4B1012C0CBFC0F81080C0F8BC
:100D9000148008246CE7DFF858904D45F1D009F530
:100DA00080394D45EDD0A9F58019E7E700245FE7CC
:100DB000CC685DE7CC6808345AE7CC680C3457E758
:100DC000042455E70025A4E70125A2E70225A0E7B2
:100DD00003259EE704259CE7001002400004014023
:100DE00000080140001C014000002110000011100B
:100DF000000031100AB1016170470904FBE7C368C4
:100E000001EA030221EA030141EA0241016170475C
:100E10002DE9F341054608B901203CE00368DB07F2
:100E200010D42B689F075DD42B68190700F19480BC
:100E30002B685A0700F1BE80E869002840F02C8139
:100E4000002028E08F4C636803F00C03042B07D0CC
:100E5000636803F00C03082B09D16368DE0306D531
:100E600023689C03DDD56B68002BDAD1D4E76B686F
:100E7000B3F5803F12D1236843F480332360FFF73A
:100E800007FC064623689803CBD4FFF701FC801BC0
:100E90006428F7D9032002B0BDE8F0819BB923682C
:100EA00023F480332360236823F480232360FFF737
:100EB000EFFB064623689903B3D5FFF7E9FB801BD8
:100EC0006428F7D9E6E7B3F5A02F236803D143F4EC
:100ED00080232360CFE723F480332360236823F447
:100EE0008023CBE7674C636813F00C0F07D063686F
:100EF00003F00C03082B10D16368DA030DD42368C8
:100F00009B0702D52B69012B86D123686A6923F0E0
:100F1000F80343EAC203236086E72A695A4B6AB1A1
:100F200001221A60FFF7B4FB064623689F07ECD442
:100F3000FFF7AEFB801B0228F7D9ABE71A60FFF77B
:100F4000A7FB0646236898077FF56EAFFFF7A0FB67
:100F5000801B0228F6D99DE7AA694A4C4B4BDAB1AF
:100F600001221A60FFF794FB0646636A9B070DD5C2
:100F70004FF4FA52464B1B68B3FBF2F3019300BFE8
:100F8000019B5A1E0192002BF9D151E7FFF780FB1C
:100F9000801B0228E9D97DE71A60FFF779FB064636
:100FA000636A9F077FF544AFFFF772FB801B02283F
:100FB000F6D96FE7334CE369D80024D40127E369FD
:100FC00043F08053E361E36903F080530093009B97
:100FD000304E3368D90518D5EB68012B26D1236A2A
:100FE00043F001032362FFF753FB41F2883680464A
:100FF000236A9B073FD5002F3FF41EAFE36923F020
:101000008053E36118E70027E2E7336843F4807315
:101010003360FFF73DFB80463368DA05DCD4FFF729
:1010200037FBA0EB08006428F6D933E7ABB9236A95
:1010300041F2883823F001032362236A23F004037A
:101040002362FFF725FB0646236A9807D3D5FFF7EF
:101050001FFB801B4045F7D91CE7052B236A03D1F2
:1010600043F004032362BAE723F001032362236AF7
:1010700023F00403B6E7FFF70BFBA0EB0800B04238
:10108000B6D907E700100240000042428004424205
:1010900000000020007000402A4B5A681C4602F0F5
:1010A0000C02082A3DD00023274E022833602BD1A2
:1010B000FFF7EEFA0746236899011FD42B6AB3F5B0
:1010C000803F05D16268A96822F400320A43626059
:1010D000696A62680B4322F474121343636001234C
:1010E0003360FFF7D5FA054623689A013FF5A8AEAD
:1010F000FFF7CEFA401B0228F6D9CBE6FFF7C8FA75
:10110000C01B0228D7D9C5E6FFF7C2FA05462368F7
:101110009B017FF595AEFFF7BBFA401B0228F6D97D
:10112000B8E601283FF4B7AE58682B6A00F4803265
:101130009A427FF471AE6B6A00F47010C01A18BF47
:101140000120A8E6001002406000424230B5184B72
:1011500087B002AC03F110052246186859680833BD
:1011600003C2AB421446F7D140F201231149ADF856
:1011700004304B6803F00C02082A17D1C3F38342F2
:1011800006A80244DB0312F8102C0CD54B680A4861
:10119000C3F34043504306AA134413F8143CB0FB76
:1011A000F3F007B030BD05485043FAE70248F8E7CE
:1011B0009C1800080010024000127A0000093D004F
:1011C0002DE9F0410D46044610B90120BDE8F0813B
:1011D000444A136803F007038B4228D321688E0723
:1011E00030D4CA0743D43F4A136803F00703AB4225
:1011F00065D822683C4D12F0040F6CD1130706D558
:101200006B68226923F4605343EAC2036B60FFF703
:101210009DFF6B68354AC3F30313D35CD840344B4E
:101220001860344B1868FFF7F1F90020CEE7136817
:1012300023F007030B431360136803F007038B428B
:10124000C3D1CBE7284B11F0040F1EBF5A6842F4FC
:10125000E0625A60080742BF5A6842F460525A601E
:101260005A68A06822F0F00202435A60B9E7626847
:101270001D4E012A33681AD113F4003FA5D07368BC
:1012800041F2883823F0030313437360FFF700FA39
:1012900007467368626803F00C03B3EB820FA2D0B9
:1012A000FFF7F6F9C01B4045F3D903208EE7022A69
:1012B00002D113F0007FE1E713F0020FDEE71368BD
:1012C00023F007032B431360136803F00703AB42BB
:1012D0007FF47BAF8DE76B68E16823F4E0630B4339
:1012E0006B608BE70020024000100240AC18000841
:1012F0000000002008000020044B054A5B68C3F38F
:101300000223D35C034A1068D840704700100240A3
:10131000BC18000800000020044B054A5B68C3F3BA
:10132000C223D35C034A1068D840704700100240C3
:10133000BC1800080000002070B50E461546044693
:1013400048B38369B3F5807F25D090F8413003F02E
:10135000FF021BB980F84020FEF7B2FF04F108013C
:10136000206800F0F5F9A2683146206800F022FA02
:10137000236BA2682946606800F03AFAA1682268E7
:10138000002052F8213043F0010342F821300123BC
:1013900084F8413070BD0120FCE70368DA6822F46C
:1013A0009072DA605A6922F001025A61026B012AD6
:1013B00002BFDA6822F01002DA60202380F83E30A3
:1013C000002303637047000010B504460368C1683A
:1013D0001A6922F440520A431A6182680069D96886
:1013E0000243606921F4B05121F00C0102430A4329
:1013F000DA605A69A16922F440720A435A610E4ABE
:10140000934215D1FFF788FF19235843636864227C
:101410009B00B0FBF3F0B0FBF2F102FB11031B01E8
:101420003233B3FBF2F3246803EB0113A36010BD66
:10143000FFF762FFE8E700BF0038014010B504463F
:1014400040B390F83D3003F0FF021BB980F83C2018
:10145000FFF75AF82423226884F83D30D3682046E9
:1014600023F40053D360FFF7AFFF236800201A690D
:1014700022F490421A615A6922F02A025A61DA680B
:1014800042F40052DA602023206484F83D3084F86E
:101490003E3010BD0120FCE770477047704708B52B
:1014A0000023406AC385C384FFF7F8FF08BD704777
:1014B00090F83E3013B5222B48D18168836AB1F58C
:1014C000805F026833D10169002933D15268C2F3C9
:1014D000080223F8022BC48D8362013CA4B2C485A8
:1014E0001CBB0368DA6822F02002DA60DA6822F4B2
:1014F0008072DA605A6922F001025A61202280F873
:101500003E20026B012A1ED10463DA6822F0100229
:10151000DA601A68D20605D501941A6801925B68F0
:101520000193019B818DFFF7C2FF00200FE031B9CD
:10153000016921B952681A70836A0133CBE7526896
:1015400002F07F02F7E7FFF7A8FFEEE7022002B004
:1015500010BD0000036837B51A68044612F00F0F7B
:10156000D9685D6908D195065DD58D065BD503B058
:10157000BDE83040FFF79CBF15F0010502D111F422
:10158000907F50D0D00705D5CB0542BF236C43F0E8
:1015900001032364500704D51DB1236C43F00203FB
:1015A0002364930704D51DB1236C43F00403236423
:1015B000100706D58B0600D41DB1236C43F0080339
:1015C0002364236C4BB3900604D58A0602D52046CB
:1015D000FFF76EFF236820465D69226C130702D473
:1015E00015F040051BD0FFF7D8FE23685A69550651
:1015F00010D55A69A06B22F040025A6150B1534B8A
:101600004363FFF729F940B1A06B436B03B0BDE81A
:10161000304018472046FFF741FF03B030BDFFF7C9
:101620003DFF2564F9E7206B012855D1D00653D53D
:10163000CD0651D5002101911A6801925A68019294
:10164000019A5A6912F040022AD0A06B02685268CF
:1016500092B2002AE1D0A58D9542DED9E285826959
:10166000202A15D0DA6822F48072DA605A6922F0F2
:1016700001025A615A6922F040025A61202284F81C
:101680003E202163DA6822F01002DA60FFF7C2F828
:10169000E38DA18DC91A89B22046FFF708FFBCE788
:1016A000E18D88B2E18D89B20029B6D0A18D091AE9
:1016B00089B20029B1D0D86820F49070D8605869F8
:1016C00020F001005861202084F83E002263DA688F
:1016D00022F01002DA60DFE7100626D50D0624D5C9
:1016E00094F83D20212A98D1A168226AB1F5805F43
:1016F00016D12169A1B932F8021BC1F30801596062
:101700002262E28C013A92B2E284002A85D1DA6840
:1017100022F08002DA60DA6842F04002DA607CE7A8
:10172000511C216212785A60EBE750067FF575AFC5
:101730004A067FF572AFDA68204622F04002DA608E
:10174000202384F83D30FFF7A7FE66E79F140008CA
:101750000A6870B550F822304E6823F0010340F853
:1017600022308B6850F82250082B0CBF40240024F4
:101770003343CE6833430E6933434E693343CE69F6
:1017800033430E6A33434E6A33438E6A3343CE6A21
:1017900033430E6B33438E69496B33430B43044928
:1017A00029400B43234340F82230002070BD00BF86
:1017B0008000F0FF00EB82020B68886910B50343DC
:1017C0004868546843EA0013886843EA0023C868FD
:1017D00043EA004308694969013843EA0053023982
:1017E00043EA016304F040410B435360002010BD05
:1017F000B3F5804F30B514D18D690B6850F8224095
:101800002B434D6843EA05138D68C96843EA0523F5
:1018100043EA0143044921400B4340F822300020B1
:1018200030BD6FF07043F8E70000F0CF70B50025D1
:101830000C4E0D4CA41BA410A54209D100F022F8B7
:1018400000250A4E0A4CA41BA410A54205D170BD68
:1018500056F8253098470135EEE756F82530984779
:101860000135F2E7C4180008C4180008C4180008BD
:10187000C818000803460244934200D1704703F899
:10188000011BF9E7F8B500BFF8BC08BC9E467047DD
:10189000F8B500BFF8BC08BC9E46704702030405BB
:1018A000060708090A0B0C0D0E0F101000000000AF
:1018B0000000000001020304060708090000000000
:1018C0000102030409020008E50100080024F400F5
:04000005080005C129
:00000001FF
