:020000040800F2
:10000000B0680020E1010008314C0008D13100083F
:1000100021450008410C0008BD5600080000000002
:10002000000000000000000000000000490100087E
:10003000E1100008000000008D01000831500008A8
:10004000FB010008FB010008FB010008FB010008A0
:10005000FB010008FB010008FB010008FB01000890
:10006000FB010008FB010008FB010008FB01000880
:10007000011000080D10000819100008FB0100080D
:100080002510000831100008FB010008FB010008E2
:10009000FB010008FB010008FB010008FB01000850
:1000A000FB010008FB010008FB010008FB01000840
:1000B000FB010008FB010008FB010008FB01000830
:1000C000FB010008FB010008FB010008FB01000820
:1000D000FB010008A5560008B1560008FB01000806
:1000E000FB010008FB010008FB010008FB01000800
:1000F000FB010008FB010008FB010008FB010008F0
:10010000FB010008FB010008FB010008FB010008DF
:10011000FB010008FB010008AD500008FB010008CE
:10012000FB010008FB010008FB010008FB010008BF
:10013000DFF810D000F03EFC004800478F61000857
:10014000AFF30080B0680020224B19680868B0E85F
:10015000F00F80F30988BFF36F8F4FF0000080F33A
:1001600011884EF00D0E7047000000000648006830
:10017000006880F3088862B661B6BFF34F8FBFF3A3
:100180006F8F00DF00BF00BF08ED00E0EFF30980D4
:10019000BFF36F8F0F4B1A6820E9F00F106008B59E
:1001A0004FF0500080F31188BFF34F8FBFF36F8F74
:1001B00007F01AF94FF0000080F31188BDE80840FD
:1001C00019680868B0E8F00F80F30988BFF36F8FF3
:1001D000704700BF50000020EFF30580704700001B
:1001E0000648804706480047FEE7FEE7FEE7FEE7D1
:1001F000FEE7FEE7FEE7FEE7FEE7FEE7A9500008A0
:1002000031010008202A04DB203A21FA02F0002103
:10021000704721FA02F3D040C2F120029140084316
:100220001946704740EA01039B0703D009E008C95B
:10023000121F08C0042AFAD203E011F8013B00F8AB
:10024000013B521EF9D27047D2B201E000F8012BF7
:10025000491EFBD270470022F6E710B513460A4646
:1002600004461946FFF7F0FF204610BD10B50446BE
:1002700004E00B7800F8013B03B1491C521EF8D290
:10028000204610BD421C10F8011B0029FBD1801A2A
:10029000704780EA010210B502F00043400022D00E
:1002A0004A001FD0010E01EB1261C0F35600C2F3E9
:1002B000560240F4000042F40002A0FB02200004B9
:1002C0007F39140400D0401C50EA124001D4400091
:1002D000491EC2B20C0604EBD010401C4008802A14
:1002E00002D003E0002010BD20F00100002900DA58
:1002F0000020184310BD2DE9FE4F804681EA03001F
:10030000C00F0C46009021F0004123F00045B8EBEF
:100310000200A94105D24046214690461C460B46A4
:10032000024623F00040104347D0270DC7F30A00D0
:10033000C3F30A510290401A019040286BDAC3F3CC
:10034000130040F4801B0098924620B10023D2EBAA
:10035000030A63EB0B0B01985946C0F1400250466B
:1003600000F043FA06460D4650465946019A00F001
:100370004BFA10EB08006141002487EA115284EA2D
:10038000E7731A4340D0009A62B3019A012A4FEAF8
:10039000075215DC001B61EB02014FF0004202EA3C
:1003A0000752CDE90042001C41F5801132462B4630
:1003B00000F082FA03B0BDE8F08F40462146F9E72D
:1003C000001B61EB0201001C41F5801300185B412A
:1003D0002018A2F5001747EB030140EAD570B619C3
:1003E0006D4111E06D084FEA360645EAC0754FEAE7
:1003F0000752001B61EB0201001C41F58011490806
:100400004FEA30000019514132462B4603B0BDE897
:10041000F04F00F042BA0098012240000023D0EBD8
:10042000020263EBE073009821464FEAE074B8EBF8
:10043000000061EB0401E9E783F000435BE781F032
:10044000004158E72DE9FE4F81EA030404F000441F
:1004500021F0004100944FF0000B23F0004350EADC
:1004600001045ED052EA03045BD0C3F30A54C1F323
:100470000A552C44A4F2F3340194A0FB0254C1F3B6
:10048000130141F48011C3F3130343F4801301FB00
:10049000024400FB034E840A970A44EA815447EA67
:1004A0008357A4FB076802958D0A05FB07854FEA71
:1004B000932C04FB0C542705029D4FEA065847EA8B
:1004C0001637B5EB08056EEB070C870E920E47EA60
:1004D000811742EA8312A7FB0201B6EB0B0164EB22
:1004E00000042B0D43EA0C335E1844EB1C50DA4633
:1004F0005146E7FB0201C5F313044FEA0B3343EA0D
:1005000014534FEA0432019C43EA0603A4F10C049D
:100510000294009CCDE900B400F0CEF903B0BDE830
:10052000F08F00200146F9E72DE9F04D81EA030440
:1005300004F0004B21F0004514464FF0000A23F070
:10054000004150EA050220D054EA01021DD0C5F353
:100550000A570246C5F31303C1F31300C1F30A5649
:1005600040F4801543F48013A7EB0608101BD64611
:1005700008F2FD3873EB050002D308F1010801E031
:1005800092185B41B8F1000F03DA00200146BDE884
:10059000F08D00204FF48011064684460EE0171BB4
:1005A00073EB050705D3121B63EB050306434CEA07
:1005B000010C49084FEA300092185B4150EA0107EC
:1005C000EDD152EA030012D082EA040083EA050169
:1005D000084305D0101BAB4106D20122002306E0E0
:1005E00000224FF0004302E06FF0010253101AEBBB
:1005F00006004CEB085110EB0A0041EB0B01BDE883
:10060000F04D00F04AB90EB5C10F80EAE070084421
:10061000CA07002140F233438DE80E000A460B461C
:1006200000F04AF903B000BD0EB540F2334102912B
:100630000021CDE900110A460B4600F03DF903B058
:1006400000BD00F0004220F00040C10DC0F31600D4
:1006500040F400007F2901DA00207047962903DC6E
:10066000C1F19601C84001E096398840002AF4D0D3
:100670004042704720F00040C10DC0F3160040F426
:1006800000007F2901DA00207047962903DCC1F1C0
:100690009601C8407047963988407047C1F30A52A6
:1006A00010B5C1F3130140F2FF3341F480119A42B7
:1006B00001DA002010BD40F233439A42A2F23342E5
:1006C00003DC5242FFF79EFD10BD904010BD00F0CC
:1006D000004230F000400AD0C10D01F56071C0F356
:1006E000160042EA0151C20840071143704700203A
:1006F0000146704730B5041E71F1000404DB4FF071
:100700000044404264EB0101141E73F1000405DB58
:100710001C464FF00043524263EB04038B4208BF78
:10072000824230BD01F0004330B421F0004150EA74
:10073000010206D00A0DA2F56072C1F31301002A6E
:1007400002DC30BC00207047440F44EAC104C10001
:10075000E01830BC00EBC25000F068B830B50B4672
:10076000014600202022012409E021FA02F59D42E1
:1007700005D303FA02F5491B04FA02F52844151EB5
:10078000A2F10102F1DC30BD2DE9F05F0546002049
:1007900092469B4688460646814640241BE02846F2
:1007A000414647462246FFF72DFD53465A46C01A9A
:1007B000914110D311461846224600F016F82D1A22
:1007C00067EB01084F4622460120002100F00DF89A
:1007D00017EB00094E41201EA4F10104DFDC48465E
:1007E00031462A464346BDE8F09F202A04DB203AE2
:1007F00000FA02F1002070479140C2F1200320FA74
:1008000003F3194390407047202A06DBCB17203AA8
:1008100041FA02F043EAE07306E041FA02F3D04005
:10082000C2F1200291400843194670470029A8BF31
:100830007047401C490008BF20F00100704710B409
:10084000B0FA80FC00FA0CF050EA010404BF10BCBE
:10085000704749B1CCF1200421FA04F411FA0CF1EB
:1008600018BF012121430843A3EB0C01CB1D4FEA24
:1008700000614FEA102042BF002010BC704700EB1F
:10088000C35010440029A4BF10BC7047401C49004D
:1008900008BF20F0010010BC704710B5141E73F1A2
:1008A000000408DA401C41F1000192185B411A4330
:1008B00001D120F0010010BD2DE9F04D92469B467C
:1008C00011B1B1FA81F202E0B0FA80F22032904622
:1008D000FFF78BFF04460F4640EA0A0041EA0B018E
:1008E00053465A46084313D0114653EA010019D023
:1008F000C8F140025046FFF785FC05460E465046BB
:1009000059464246FFF771FF084305D0012004E035
:1009100020463946BDE8F08D0020054346EAE076E2
:100920002C4337430A986305E40AA0EB0800002231
:10093000FD0A44EA47540A3002D500200146E9E79F
:10094000010510196941DDE9084500196941BDE853
:10095000F04DA2E7C1F30A52C1F3130140F2FF3395
:1009600041F480119A4202DA00200146704740F2B9
:1009700033439A42A2F2334202DC5242FFF742BCB6
:10098000FFF733BF30B5041E71F1000404DB4FF0F4
:100990000044404264EB0101141E73F1000405DBC6
:1009A0001C464FF00043524263EB0403994208BFD8
:1009B000904230BD064C074D06E0E06840F0010370
:1009C00094E8070098471034AC42F6D3FFF7B4FB25
:1009D000108F0008308F00084FF4FA6005F0F4FB28
:1009E00018A003F011FB05F0C6FD05F00CFE1AA0DF
:1009F00003F00AFB642303221BA11C4802F097FBAF
:100A00004FF47A74204605F0DFFB6423192218A105
:100A1000164802F08CFB204605F0D6FB64230B221F
:100A20001AA1124802F083FB204605F0CDFB642397
:100A3000092219A10D4802F07AFB204605F0C4FBFB
:100A4000FBE70000424C45205461736B20537573E3
:100A500070656E6400000000424C455461736B2069
:100A600053746172740000002B2B2B0000040020D3
:100A700041542B4E414D453D302C53544D3332465D
:100A8000313033564554780D0A00000041542B5242
:100A90004F4C453D300D0A0041542B455849540DEB
:100AA0000A00000010B54FF4807421461248FFF789
:100AB000D2FB21461148FFF7CEFB114B0020588096
:100AC000187058700FA003F09FFA2246134914487B
:100AD00001F0F1FF20B1BDE8104012A003F084BA8C
:100AE00018A003F071FA0E48C06B0068016821F08D
:100AF0000401016010BD00007862002078630020CE
:100B0000D2000020424C452073797374656D2069D2
:100B10006E697469616C697A65640000F400002094
:100B200000040020554152543220444D412072654A
:100B30006365697665207374617274206661696C9F
:100B400065640000554152543220444D4120726585
:100B5000636569766520737461727465642073756A
:100B6000636365737366756C6C79000010B500681B
:100B70001849C2B088422AD11748C06B0068406843
:100B8000164CC0F580706080618815A003F01CFAD7
:100B90006088ADF8000100F0BDFE41906288184900
:100BA0006846FFF73FFB174800231A46694600686E
:100BB00005F0AAFB18B114A003F016FA03E061884F
:100BC00018A003F001FA0120207004F0FFFA42B0EF
:100BD00010BD00000044004000040020D2000020AE
:100BE000424C45205541525420527820436F6D703D
:100BF0006C6574653A202564206279746573000021
:100C00007862002030000020424C452071756575E7
:100C1000652066756C6C2C2064617461206C6F7348
:100C200074000000424C4520646174612071756558
:100C30007565643A2025642062797465730000004C
:100C4000FEE700001CB54FF47A7005F0BDFA1FA056
:100C500003F0DAF905F08FFC05F0D5FC00200090D8
:100C60000546044601904FF4FA6005F0ADFA1CA069
:100C700003F0CAF900F010FA00F084F841F2883667
:100C8000641CA4B232460021012005F029FC07466D
:100C9000214617A003F098F96D1CF807294601D0EA
:100CA00017A000E023A003F0AFF901A9684600F007
:100CB000A1F820B129462AA003F096F9E0E70098B0
:100CC00004F082F9019804F013F9D9E7444854314B
:100CD00031205461736B2053757370656E6400002E
:100CE00044485431315461736B2053746172740001
:100CF000636F756E746572203A20256400000000F1
:100D000044485431312074726967676572656420A4
:100D10006279207461736B206E6F746966696361B8
:100D200074696F6E2028617474656D70742023255A
:100D30006C752900444854313120747269676765C5
:100D40007265642062792074696D656F75742028FE
:100D5000617474656D70742023256C752900000022
:100D600044485431312072656164206661696C6564
:100D7000642028617474656D70742023256C752956
:100D80000000000010B586B0002002900F48816975
:100D900041F04001816180690D4C00F040000490F9
:100DA00040200090112001900320039069462046C6
:100DB00000F0AAFC01224021204600F0A6FD06B06A
:100DC00004A0BDE8104003F01FB90000001002406D
:100DD00000180140444854313120696E69746961DA
:100DE0006C697A6564207375636365737366756C8B
:100DF0006C7900002DE9F04786B000254026824638
:100E00000096049511200595CDE901050320624C5B
:100E1000894603906946204600F076FC0022402176
:100E2000204600F072FD122000F01DF90122402141
:100E3000204600F06AFD1E2000F01AF9CDE9006599
:100E40000126CDE902656946204600F05DFC03E01D
:100E5000012000F00DF96D1C4021204600F050FDEE
:100E6000012803D0642D14D2002506E0642DEFD3B1
:100E70000FE0012000F0FCF86D1C4021204600F03E
:100E80003FFD20B1642D04D2B046002503E0642D5F
:100E9000EFD342A03CE000273E464021204600F030
:100EA0002FFD0128F9D04021204600F029FD00281F
:100EB000F9D01E2000F0DCF84021204600F020FD93
:100EC000012805D1C6F1070108FA01F03843C7B27D
:100ED0004021204600F014FD0128F9D0761CF6B21E
:100EE000082EDAD304A847556D1CEDB2052DD2D3D8
:100EF0009DF810109DF811009DF812209DF81330F8
:100F000001441A4411449DF81420914206D029A0AE
:100F100003F06AF8012006B0BDE8F087FFF784FB14
:100F20002A4D00222B46FFF7FFFA04460E469DF895
:100F30001000FFF779FB22463346FFF7DCF9FFF795
:100F4000F1FBC9F800009DF81300FFF76DFB0022CC
:100F50002B46FFF7E9FA04460D469DF81200FFF70D
:100F600063FB22462B46FFF7C6F9FFF7DBFB05467E
:100F7000CAF80000D9F80000FFF7A9FB04460E46A6
:100F80002846FFF7A4FBCDE9004602460B4610A019
:100F900003F03AF80020BEE70018014044485431FD
:100FA0003120726573706F6E73652074696D656F43
:100FB00075740000444854313120636865636B7375
:100FC000756D206572726F72000000000000244091
:100FD00044485431312072656164207375636365E0
:100FE00073733A2074656D703D252E316620432C55
:100FF0002068756D693D252E3166252500000000AD
:10100000014800F0A1B90000E8020020014800F00A
:101010009BB900002C030020014800F095B90000A6
:1010200090040020014800F08FB90000D404002093
:10103000014800F089B900001805002030B590F88B
:1010400040500124AC40C56B6C6004686360436829
:10105000102B036803D099600068C26030BD9A60AD
:101060000068C16030BD4FF47A714843AFF300802F
:10107000064A10B55168064B064C1B68B3FBF4F3E7
:1010800043435068401A9842FBD310BD001000E063
:101090004C00002040420F000748016841F0807179
:1010A0000160064800214160016841F001010160D2
:1010B00003A002F0A9BF0000FCED00E0001000E07A
:1010C00044575420696E697469616C697A6564205B
:1010D0007375636365737366756C6C7900000000EB
:1010E000704772B6FEE7012005F06EF8FBE70000DE
:1010F00030B5B3F5804F05D06FF0704140F8221045
:10110000002030BD8C690B688D6823434C68898949
:10111000240144EA0524234343EA014150F82230E4
:10112000014C23401943E9E70000F0CF10B50A68ED
:1011300050F8223023F0010340F822308C68082C4C
:1011400023D000234A682243CC681C430B69224306
:101150001A434B690E4C1A43CB691A430B6A1A4364
:101160004B6A1A438B6A1A43CB6A1A430B6B1A43B6
:101170008B6913434A6B09681A4350F82130A34323
:10118000134340F82130002010BD4023DAE700006F
:101190007FFF0F0030B5D1E9003443EA04138C68B7
:1011A0008D89240244EA054423430C8A074D00EB51
:1011B000820005EB045423430C7D6D0105EB0464B0
:1011C000896923430B434360002030BD0000F0FFDA
:1011D00010B590F821100022022905D00421816366
:1011E00080F82020012010BD01680B6823F00E0359
:1011F0000B6001680B6823F001030B6090F840302E
:10120000C46B012101FA03F3636080F8211080F8B8
:101210002020104610BD00002DE9F05F90F821104D
:101220000024022903D004218163012485E00168A0
:101230000A6822F00E020A6001680A6822F00102C0
:101240000A603F4E3E4FB215DFF8F4C0DFF8F09071
:10125000DFF8ECA0DFF8E8B0DFF8E4E00168783F01
:1012600013011502ACF1640CA9F15009AAF13C0A72
:10127000ABF1280BAEF1140E4FF48018B14227D910
:10128000B9420ED0614512D049451DD0514518D004
:10129000594518D0714501D1424615E0294EB14259
:1012A00001D1012210E0274E1436B14201D11022A3
:1012B0000AE0244E2836B14206D0224A3C329142FE
:1012C00001D11A4600E02A461E49091F0A602BE098
:1012D000B94213D0614517D0494522D051451DD0A0
:1012E00059451DD0714501D142461AE0B14202D1A3
:1012F0004FF0807215E0134EB14201D1012210E08F
:10130000104E1436B14201D110220AE00D4E28369B
:10131000B14206D00B4A3C32914201D11A4600E05C
:101320002A46074980394A60012180F821100021AE
:1013300080F82010416B01B188472046BDE8F09F3E
:1013400080000240080402402DE9F05FC16B0A688A
:1013500001680B68046C4FF0040808FA04F8844D27
:10136000844E854FDFF814C2DFF81492DFF814A220
:10137000DFF814B2DFF814E218EA020F65D05FEA72
:10138000437862D50A68920603D40A6822F0040200
:101390000A60DFF8F0814FF48062016808F11408F8
:1013A00013011402414524D9A9420DD0B1420FD0F6
:1013B000B9421AD0614515D0494515D0514501D1E2
:1013C000120312E0594501D104220EE0714501D10A
:1013D00040220AE06D4D1435A94206D06B4A2832EE
:1013E000914201D11A4600E022466749091F0A606E
:1013F00029E0A94213D0B14215D0B94220D06145AD
:101400001BD049451BD0514502D14FF4800217E053
:10141000414502D14FF0806212E0594501D10422CA
:101420000EE0714501D140220AE0584D1435A94221
:1014300006D0564A2832914201D11A4600E022468F
:101440004B4908394A60C16A71E04FF0020808FA56
:1014500004F818EA020F70D05FEA83786DD50A6845
:10146000920606D40A6822F00A020A60012180F876
:101470002110DFF810814FF40072016808F11408A0
:1014800013011402414524D9A9420DD0B1420FD015
:10149000B9421AD0614515D0494515D0514501D101
:1014A000120312E0594501D102220EE0714501D12B
:1014B00020220AE0354D1435A94206D0334A28329D
:1014C000914201D11A4600E022462F49091F0A60C5
:1014D00029E0A94213D0B14215D0B94220D06145CC
:1014E0001BD049451BD0514502D14FF4001217E0E3
:1014F000414502D14FF0007212E0594501D102225C
:101500000EE0714501D120220AE0204D1435A94298
:1015100006D01E4A2832914201D11A4600E02246E6
:10152000134908394A60002180F82010816A002997
:101530001CD0BDE8F05F0847FFE70825A54015422D
:1015400014D01A0712D50A6822F00E020A6090F829
:101550004020C36B012101FA02F25A60816380F8D6
:101560002110002180F82010016BE0E7BDE8F09F1A
:10157000080002401C0002403000024044000240CB
:10158000580002406C000240080402401C04024063
:1015900030B560B11A4B026814219A4209D2194B36
:1015A0001344B3FBF1F18900016417490AE00120FB
:1015B00030BD134B5B421344B3FBF1F1890001646E
:1015C0000F490839C163022180F82110136843F6DE
:1015D000F0718B43F0E901142143D0E902452C431B
:1015E0002143046921434469214384692143194308
:1015F000116000214163012242770177084630BD26
:1016000008040240F8FFFDBF0000024070B5044628
:1016100090F82000002501280CD0012084F820003B
:1016200094F821600020012E06D084F820000225C5
:10163000284670BD022070BD022684F82160A06398
:101640002068066826F0010606602046FFF7F6FCD3
:10165000E06A00282068016802D041F00E0106E02F
:1016600021F0040101602068016841F00A01016075
:101670002068016841F001010160D9E770B50446B6
:1016800000F048F90546601C02D004480078044484
:1016900000F040F9401BA042FAD370BD400000208A
:1016A00030B585B000200090019002900390124860
:1016B000016800291ED1012101601048416941F4EF
:1016C000807141614069022400F4807004904FF6FB
:1016D0008070CDE90004032569460395084800F0B1
:1016E00013F84CF6B370CDE900046946039505483C
:1016F00000F00AF805B030BD3800002000100240AC
:1017000000180140001401402DE9F84FDFF8C8919E
:101710000024A9F1040B23460F2709F1040AABF1B9
:10172000040ED1E00125A54006EA0502AA4276D1C1
:10173000DFF8A8C14E68A6EB0C0866452BD00DDC7F
:10174000032E34D005DC36B3012E19D0022E2FD152
:101750001BE0112E16D0122E2AD119E0B8F5881FE1
:1017600019D006DCB8F5803F15D0B8F5801F1FD121
:1017700011E0B8F5001F0ED0B8F5041F18D10AE02B
:10178000CB6815E0CB681B1D12E0CB6808330FE077
:10179000CB680C330CE08B682BB1012B4FF00803A6
:1017A00003D0456104E0042302E0056100E000236A
:1017B000FF2A01D8064601E000F104064FEA84053D
:1017C00001D9A5F12005D6F8008007FA05FC28EA22
:1017D0000C0803FA05F548EA0508C6F800804D68CC
:1017E000ED0070D53E4DAE6946F00106AE61AD69C3
:1017F00024F0030605F0010500953A4D06EB050CB3
:10180000DCF80850A607360F07FA06F825EA08059F
:10181000DFF8D480404503D14FF0000825E052E0C6
:10182000DFF8C880404502D14FF001081DE0DFF825
:10183000C080404502D14FF0020816E0DFF8B480C6
:10184000404502D14FF003080FE0DFF8AC8040457F
:1018500002D14FF0040808E0DFF8A080404502D133
:101860004FF0050801E04FF0060808FA06F848EACC
:101870000508CCF808804D68D9F80060ED024D46A7
:1018800001D5164300E096432E604D68DAF80060FB
:10189000AD02554601D5164300E096432E604D68D3
:1018A000DBF80060AD035D4601D5164300E09643CA
:1018B0002E604D68DEF80060ED03754601D51643D5
:1018C00000E096432E60641C0A681646E2407FF4EE
:1018D00029AFBDE8F88F0000080401400000111096
:1018E000001002400000014000080140000C0140CF
:1018F000001001400014014000180140001C01408C
:101900008068084000D0012070470AB1016170472B
:101910000904FBE701488068704700004000002090
:1019200070B5040025D094F83D00002520B984F856
:101930003C50204600F07CFA242084F83D002068CA
:10194000016821F0010101602068016841F4004153
:1019500001602068016821F40041016000F016FC7C
:101960004D4A6168914201D84C4900E04C49884297
:1019700001D2012070BD4B492368B0FBF1F15E68D4
:1019800026F03F060E435E606368934206D94FF42B
:10199000967359434FF47A73B1FBF3F12368491CF2
:1019A0001E6A26F03F06314319626168914210D8E1
:1019B0004900401EB0FBF1F2521CC2F30B02042A94
:1019C00001D2042022E0B0FBF1F0401CC0F30B0078
:1019D0001CE0A268F2B301EBC10303EB0116431E46
:1019E000B3FBF6F35B1C43F480431B0549D092B371
:1019F00001EBC10202EB0111401EB0FBF1F0401CF3
:101A0000C0F30B0040F4804040F400402168CA69F4
:101A10004CF6FF739A431043C861D4E907100143A1
:101A20002068026822F0C00211430160D4E903017A
:101A300001432068826848F2FF339A431143816072
:101A4000D4E9050108432168CA6822F0FF02104367
:101A5000C86001E00EE016E02068016841F0010175
:101A600001602564202084F83D00256384F83E5001
:101A7000002070BD01EB4106431EB3FBF6F35B1C77
:101A8000B3E70120C2E701EB4101401EB0FBF1F0DA
:101A9000401CC0F30B00B7E7A086010080841E0045
:101AA00000093D0040420F002DE9F84F1F469046C7
:101AB0008A460446DDF82890FFF72CFF054694F887
:101AC0003D0020287FD1192301224049204600955E
:101AD00001F096FC002876D194F83C00012872D0E1
:101AE000012084F83C0020680168C90703D101681F
:101AF00041F0010101602068016821F4006101608A
:101B0000212084F83D00102084F83E000026266441
:101B1000C4F824806785608D20852D48E0622B46BF
:101B20004A465146204601F073FB90B9206841694E
:101B30008069009036E02A464946204601F03EFD85
:101B400050B1206C042804D12068016841F4007170
:101B500001600120BDE8F88F606A216800780861A3
:101B6000606A401C6062618D491E6185218D491E3D
:101B700089B2218522685369DB435B070BD451B1DD
:101B800000781061606A401C6062608D401E608554
:101B9000208D401E20852A464946204601F004FC3F
:101BA0000028CED1208D0028C5D154F83D0B016806
:101BB00041F400710160202004F81E09E677667781
:101BC0000020C7E7FFE70220C4E700000200100082
:101BD0000000FFFF2DE9FF4F83B00025DDE91079FC
:101BE0009A4693460446DDF848800095FFF792FE3A
:101BF000064694F83D0020287CD11923012288490B
:101C00002046009601F0FCFB0028F5D194F83C003A
:101C100001286FD0012084F83C0020680168C907C2
:101C200003D1016841F0010101602068016821F4DD
:101C300000610160222084F83D00402084F83E00CD
:101C400025646762A4F82A90608D20857548E0625B
:101C5000CDE9008653465A462046049901F026FBFA
:101C600000287CD1208DDFF8C091202768B10128A1
:101C700014D00228206801681ED041F48061016000
:101C80002068416980690090BCE0206841698169F1
:101C90000091016841F400710160B3E020680168BF
:101CA00021F48061016072B6206841698169009108
:101CB000016841F400710AE041F40061016072B60C
:101CC0002068416981690091016821F480610160A7
:101CD00062B697E0032865D801280CD00228434655
:101CE0004FF000024946204600960BD001F088FBD9
:101CF000A8BB0CE091E032464146204601F026FCAC
:101D000068BB72E001F07CFB48BB72B633E0206830
:101D1000016821F48061016072B620680069616A1F
:101D20000870606A401C6062208D401E2085608DB6
:101D3000401E60853D4846F2A8110068B0FBF1F0F6
:101D4000C0EBC00000EB80000090401E009007D068
:101D500020684069C04340070DD50098F5E727E0AB
:101D600044F8305F6773A573206940F0200020615C
:101D700062B625731CE02068016841F400710160BF
:101D800020680069616A0870606A401C6062218D89
:101D9000491E2185618D491E618562B621680969E8
:101DA000017026E032464146204601F0CFFB18B1D3
:101DB000012007B0BDE8F08F20680069616A0870F3
:101DC000606A401C6062208D401E81B22185608D5A
:101DD000401E608520684269D243520712D403290D
:101DE00003D1016821F48061016020680069616AA3
:101DF0000870606A401C6062208D401E2085608DE6
:101E0000401E6085208D00287FF464AF84F83D700B
:101E100084F83E5084F83C50CBE70220C9E700002C
:101E2000020010000000FFFF040001004C00002031
:101E300010B586B0002100910191029103910068D4
:101E40000F4988421AD10F4CA06940F00800A061E8
:101E5000A069694600F008000490C020009012209C
:101E60000190032003900848FFF74EFCE06940F41E
:101E70000010E061E06900F40010049006B010BDAD
:101E80000054004000100240000C014002488168EC
:101E9000027811448160704740000020074810B567
:101EA000016841F010010160032000F0A7F80F2045
:101EB00000F006F800F050F8002010BD00200240AD
:101EC00030B505461F4887B0C16941F01001C161B6
:101ED000C06906A900F01000009001A800F036F9D2
:101EE0000498B0B100F052F940001749174AB0FB0E
:101EF000F1F11748491E0260416040F2E7320021CB
:101F0000C0E903218160816100F048FC040003D036
:101F100015E000F03BF9E8E70D4800F081FC040013
:101F20000DD1362000F03CF8102D07D200222946B2
:101F3000362000F043F80748056000E0012407B0B0
:101F4000204630BD0010024040420F00001000400B
:101F50005C050020440000200F4808B5816941F06D
:101F600001018161816901F001010091C16941F0C4
:101F70008051C161C069002200F0805000900F21A3
:101F8000901E00F01BF80548416821F0E06141F027
:101F90008061416008BD0000001002400000014067
:101FA000002809DB00F01F02012191404009800058
:101FB00000F1E020C0F8001170470000F0B40E4BB3
:101FC0001B680C46C3F30223C3F10705042D00D997
:101FD0000425191D072901D2002300E0DB1E01267C
:101FE00006FA05F1491E214099409E40761E164092
:101FF0003143F0BC03F056BC0CED00E0064900F0A4
:10200000070208684FF6FF03184040EA0220034A1F
:1020100010430860704700000CED00E00000FA0576
:102020002DE9F0470F46050061D0434E306800F0BF
:102030000700B84209D2306820F00700384330600A
:10204000306800F00700B84251D128683B4C810746
:1020500012D5400703D5606840F4E06060602878DE
:10206000000703D5606840F4605060606068A9684C
:1020700020F0F000084360602878C00728D0686826
:10208000012810D02168022810D0890700292EDAF3
:10209000616821F0030101436160FFF73BFC80466A
:1020A00041F288390DE021688903EFE78901EDE706
:1020B000FFF730FCA0EB0801494502D90320BDE839
:1020C000F0876068696800F00C00B0EB810FEFD119
:1020D000306800F00700B8420BD9306820F00700E4
:1020E00038433060306800F00700B84201D001206A
:1020F000E5E72878400705D56068E96820F4E060E6
:10210000084360602878000706D56068296920F4D4
:10211000605040EAC100606000F058F86168084A09
:10212000C1F30311515CC8400649086006480068C5
:10213000FFF7C6FE0020C2E7002002400010024068
:102140007E8500084C000020440000200F22026021
:102150000C4A536803F003034360536803F0F00331
:102160008360536803F4E063C36052684FF4E06334
:1021700003EAD20202610448006800F00700086028
:10218000704700000010024000200240044805494A
:1021900000684968044AC1F30221515CC840704795
:1021A0004C000020001002408E85000804480549BC
:1021B00000684968044AC1F3C221515CC8407047B5
:1021C0004C000020001002408E8500080E4A516825
:1021D0000E4801F00C03042B11D0082B0FD10C4832
:1021E000C1F38343C903C05C0AD55168084AC1F3EF
:1021F0004041921E515C054A5043B0FBF1F07047DC
:1022000004494843704700000010024000127A0061
:102210006E85000800093D002DE9F84F040070D0DC
:102220002078C04DC00749D06868C0F381000128FC
:1022300007D06868C0F38100022809D16868C0032C
:1022400006D52868800339D560680028E7D035E0D6
:102250006068B0F5803F0BD010B1B0F5A02F11D061
:10226000286820F480302860286820F4802002E06C
:10227000286840F480302860606890B1FFF74AFB1E
:1022800006460AE0286840F480202860F0E700BF96
:10229000FFF740FB801B642873D828688003F7D5BC
:1022A0000CE0FFF737FB064605E000BFFFF732FB07
:1022B000801B6428F0D828688003F7D420789A4ED1
:1022C00080074FF001094FF0000839D5686810F019
:1022D0000C0F07D06868C0F38100022809D1686834
:1022E000C00306D42868800714D52069012808D1C6
:1022F00010E02069B0B1C6F80090FFF70BFB07466D
:1023000005E00AE1FFF706FBC01B0228C4D82868D5
:102310008007F7D52868616920F0F80040EAC1001D
:1023200028600DE0C6F80080FFF7F4FA074604E0E5
:10233000FFF7F0FAC01B022823D828688007F7D4DB
:10234000207800072CD57948A169D9B1C0F8009050
:10235000FFF7E0FA074604E0FFF7DCFAC01B0228AB
:102360000FD8686A8007F7D571484FF4FA510068B2
:10237000B0FBF1F0009000BF0098411E0091FAD22E
:102380000EE080E0C0F80080FFF7C4FA074604E0E2
:10239000FFF7C0FAC01B022875D8686A8007F7D417
:1023A0002078400760D5E8690027C00008D4E869B4
:1023B00040F08050E861E869012700F0805000900B
:1023C0005C480168C90513D40168834641F48071F3
:1023D0000160FFF79FFA824606E000BFFFF79AFA16
:1023E000A0EB0A0064284ED8DBF80000C005F5D544
:1023F000E06801280AD008B1052813D0286A20F027
:1024000001002862286A20F0040002E0286A40F0F7
:1024100001002862E06841F2883B98B1FFF77AFA40
:1024200082460BE0286A40F004002862EEE700BF15
:10243000FFF770FAA0EB0A0159455AD8286A8007BD
:10244000F6D50CE0FFF766FA824605E0FFF762FA80
:10245000A0EB0A0159454CD8286A8007F6D41FB171
:10246000E86920F08050E861E06988B36968C1F3E9
:102470008101022944D00228C6F8608004D0FFF709
:1024800049FA044638E034E0FFF744FA074604E02E
:10249000FFF740FAC01B02282BD828688001F7D428
:1024A000206AB0F5803F05D16868A16820F400304B
:1024B00008436860D4E908010843696821F474118D
:1024C00008436860C6F86090FFF724FA044606E007
:1024D00025E000BFFFF71EFA001B022809D8286874
:1024E0008001F7D51BE000BFFFF714FA001B02289C
:1024F00002D90320BDE8F88F28688001F4D40EE0EB
:102500000128F7D06868226A00F48031914204D132
:10251000616A00F47010884201D00120EAE70020CF
:10252000E8E70000001002400000424280044242FE
:102530004C0000200070004070B5040009D0606AB3
:10254000002540B125616561A56294F8510040B154
:102550000CE0012070BD6068B0F5827FF4D0E561C9
:10256000F2E784F85050204600F040F8022084F84A
:1025700051002068016821F040010160A088218994
:1025800000F4827001F404410843A18901F4006160
:102590000843217C01F002010843217D01F0010183
:1025A0000843218B01F400710843217F01F03801B9
:1025B000084394F8201001F080010843218D01F4B4
:1025C0000051084321680860A069042101EA104015
:1025D000216848602068C16921F40061C1616565B6
:1025E000012084F85100002070BD0000F0B585B0D6
:1025F000002406460094019402940394006828493C
:1026000088424BD12748816941F4805181618169B9
:1026100001F480510491816941F004018161806974
:10262000214D00F004000490A020009002200190B1
:102630000320039069462846FFF766F84020CDE95D
:102640000004694628460294FFF75EF8184D1748C3
:102650008027C5E90004C5E902472C616C61AC61C3
:102660002846EC61FEF794FF08B1FEF73AFDF564E9
:102670006E620F4D0D484435143001C5102091C5D0
:102680000B4845F8104944306C61AC61EC61FEF7D1
:102690007FFF08B1FEF725FDB5646E6205B0F0BDA1
:1026A0000030014000100240000801401C000240C0
:1026B000E802002070B515460E46040007D0A06958
:1026C000B0F5807F03D094F8410010B107E00120FD
:1026D00070BD002084F84000204600F01DF804F191
:1026E00008012068FEF722FD3146A2682068FEF747
:1026F00051FDD4E901022946236BFEF7F9FCA168DC
:10270000206850F8212042F0010240F821200120E9
:1027100084F84100002070BDFEF7C2BF70477047CB
:1027200070B590F83C20012A2CD0012480F83C4060
:10273000022280F83D2003685A689D6822F07006E6
:102740000A6832435A60104B02689A420ED00F4B0F
:102750009A420BD0B2F1804F08D00D4B9A4205D06F
:102760000C4B9A4202D00C4B9A4204D1496825F096
:1027700080031943916080F83D40002180F83C10AF
:10278000084670BD022070BD002C0140003401409D
:102790000004004000080040000C004010B5040098
:1027A00003D094F83D0010B107E0012010BD0020D7
:1027B00084F83C00204600F01FF8022084F83D0019
:1027C000211D206802F078FC012084F8460084F87E
:1027D0003E0084F83F0084F8400084F8410084F80B
:1027E000420084F8430084F8440084F8450084F8EB
:1027F0003D00002010BD000008B500680649884271
:1028000008D10648C16941F00201C161C06900F008
:102810000200009008BD00000004004000100240CB
:1028200090F83D10012901D001207047022180F865
:102830003D100168CA6842F00102CA6000680E4992
:1028400088420ED00D4988420BD0B0F1804F08D09D
:102850000B49884205D00B49884202D00A49884278
:1028600004D1816801F00701062903D0016841F015
:102870000101016000207047002C0140003401403C
:102880000004004000080040000C004070B5044601
:1028900090F83C000025012817D0012684F83C6000
:1028A000022084F83D002068826822F0770222F43A
:1028B0007F4282600868502838D00DDC20284FD035
:1028C00005DC90B3102811D14AE0022070BD3028F9
:1028D00046D040280AD13BE060282FD070280DD088
:1028E000B0F5805F03D0B0F5005F12D0012584F809
:1028F0003D60002084F83C00284670BDCB68D1E9DB
:102900000121206802F026FC2068816841F07701EF
:1029100009E0CB68D1E90121206802F01BFC2068A6
:10292000816841F480418160E1E719E0CA68496843
:10293000206802F021FC5021206806E0CA6849683E
:10294000206802F02AFC6021206802F00DFCCEE72E
:10295000CA684968206802F00FFC40212068F4E74B
:10296000226801461046F0E770472DE9F041044621
:102970000068C66805694FF00007A90713D5B107BD
:1029800011D5F91E01610120207720688069800738
:10299000204602D0FFF7E8FF04E000F07EF8204672
:1029A00000F07CF82777680716D5700714D52168E2
:1029B0006FF004000861022020772068806910F41D
:1029C000407F204602D0FFF7CFFF04E000F065F81B
:1029D000204600F063F82777280715D5300713D570
:1029E00021686FF008000861042020772068C06922
:1029F0008007204602D0FFF7B7FF04E000F04DF853
:102A0000204600F04BF82777E80616D5F00614D5D7
:102A100021686FF010000861082020772068C069E5
:102A200010F4407F204602D0FFF79EFF04E000F044
:102A300034F8204600F032F82777E80708D0F0078E
:102A400006D021686FF001000861204600F028F8E8
:102A5000280608D5300606D521686FF08000086189
:102A60002046FFF75BFE680608D5700606D521688C
:102A70006FF040000861204600F01CF8A8060AD557
:102A8000B00608D521686FF0200008612046BDE837
:102A9000F041FFF744BEBDE8F08170477047000089
:102AA00000680349884201D1FFF7F0B97047000080
:102AB00000100040704738B5044690F842002028C6
:102AC00001D0022038BD51B14AB10120206300205D
:102AD0006063204602F04AFD216B012901D00120EC
:102AE00038BD21680A684968009121680C3151E8B5
:102AF000002F42F0100241E80023002BF5D138BD31
:102B000030B50C46054600681C49C3B0884206D162
:102B100043B02146BDE8304019A001F055BA1F4925
:102B2000884229D121461EA001F04EFAADF800419D
:102B3000FEF7F0FE4190224620496846FDF772FB01
:102B40001F4800231A466946006803F0DDFB18B1F0
:102B50001CA001F049FA03E0214621A001F034FA5B
:102B60004FF4807215492548FFF7A5FFE86B006810
:102B7000016821F00401016043B030BD003801401C
:102B80005541525431205278204576656E743A2072
:102B900025642062797465730000000000440040E1
:102BA000424C452055415254205278204576656E5E
:102BB000743A20256420627974657300F400002063
:102BC00030000020424C45207175657565206675A2
:102BD0006C6C2C2064617461206C6F737400000055
:102BE000424C452064617461207175657565643A75
:102BF00020256420627974657300000000040020C1
:102C000010B500680649884209D106A001F0ECF928
:102C10000A4903204870BDE8104002F0D7BA10BD41
:102C2000004400405541525432206572726F722048
:102C30006F6363757272656400000000D20000204B
:102C4000F8B5016804460868CA684B6910F00F0FB0
:102C50004FF0000559D003F0010602F49077374396
:102C600065D0C10705D0D10503D5616C41F00101E4
:102C70006164410705D5D90703D0616C41F00201B9
:102C80006164810705D5D90703D0616C41F0040167
:102C90006164010707D502F02001314303D0616C64
:102CA00041F008016164616C00293AD0800604D5C6
:102CB000900602D5204602F09BFB20684069616CBB
:102CC000C0F38010090700D460B3204602F05BFB1C
:102CD00020684069400621D52068143050E8001F64
:102CE00021F0400140E80012002AF5D1E06BA8B1C4
:102CF0006D494163E06BFEF78FFA002811D0E06B5D
:102D0000416B01B0BDE8F040084783060FD593063C
:102D10000DD52046BDE8F84002F06ABB2046FFF71B
:102D20006FFFF8BD2046FFF76BFF6564F8BD266BAB
:102D30002023012E7CD1C6067AD5D60678D5086820
:102D40004868009048694FF00206400640D5E16BA4
:102D5000086840680004000CE8D0A28D8242E5D9E2
:102D6000E085886920282DD020680C3050E8001FAD
:102D700021F4807140E80012002AF5D12068143057
:102D800050E8001F21F0010140E80012002AF5D1AF
:102D90002068143050E8001F21F0400140E8001284
:102DA000002AF5D184F84230256320680C3050E8C1
:102DB000001F21F0100140E80012002AF5D1E06B5D
:102DC000FEF706FA6663A08DE18D401A81B22AE013
:102DD000A08DE18D401A81B2E08D0028A6D0002997
:102DE000A4D022680C3252E8000F20F4907042E820
:102DF0000007002FF5D12068143050E8002F22F092
:102E0000010240E80027002FF5D184F84230256305
:102E100020680C3050E8002F22F0100240E8002318
:102E2000002BF5D166632046FFF76AFEF8BDFFE789
:102E300005062BD5150629D594F841002128F5D192
:102E4000A068B0F5805F01D12069B0B1206A411C53
:102E50002162216800784860E08C401E0004000C6C
:102E6000E084E3D12068C16821F08001C16020685E
:102E7000C16841F04001C160D8E7206A0088C0F312
:102E800008004860206A801C2062E5E74006CDD536
:102E90005006CBD5CA68204622F04002CA6084F8AA
:102EA000413000F094F9C1E78952000870B5040080
:102EB00004D094F84100002510B106E0012070BD57
:102EC00084F84050204600F023F8242084F8410084
:102ED0002068C16821F40051C160204602F0EAFA7E
:102EE0002068016921F4904101612068416921F065
:102EF0002A0141612068C16841F40051C1606564E4
:102F0000202084F8410084F842006563002070BDF1
:102F10002DE9F04385B000240094019402940394B9
:102F20000646DFF880C103685F48022103225F4D37
:102F300080274FF480684FF01009634537D18369CB
:102F400043F480438361836903F48043049383697A
:102F500043F0040383618069039200F0040004904D
:102F60000802CDE9000169462846FEF7CDFBCDE910
:102F70000084694628460294FEF7C6FB4D4D4C4836
:102F8000C5E902472C616C61AC61EC61C5E90009DF
:102F90002846FEF7FDFA08B1FEF7A3F8B563002254
:102FA000052125206E62FFF709F8252051E0DFF8A2
:102FB00008C1634552D1C36943F40033C361C36997
:102FC00003F400330493836943F00403836180694D
:102FD000039200F0040004900420CDE9000169464A
:102FE0002846FEF791FB0820CDE9000469462846F3
:102FF0000294FEF789FB2F4D2D4844352830C5E952
:103000000004C5E902472C616C61AC612846EC61A3
:10301000FEF7BEFA08B1FEF764F8F5636E62254D5F
:10302000234888353C30C5E902472C616C61AC61AE
:10303000EC61C5E900092846FEF7AAFA08B1FEF7D7
:1030400050F8B5630022052126206E62FEF7B6FF18
:103050002620FEF7A5FF05B0BDE8F083174DAB4273
:10306000F9D1C36943F48023C361C36903F48023A6
:103070000493836943F0080383618069CDE900818B
:1030800000F00800CDE903200D4D69462846FEF703
:103090003BFBE814CDE90004694628460294FEF79C
:1030A00033FBD8E70038014000100240000801401F
:1030B00044000240900400200044004000480040CA
:1030C000000C014090F84230202B01D002207047C4
:1030D00021B11AB10023036302F048BA01207047FE
:1030E00090F84230202B01D00220704721B11AB154
:1030F0000023036302F082BA01207047074A016887
:10310000914204D1012206490648FFF7E9BF064A69
:10311000914201D1FDF72ABD7047000000380140FF
:10312000D6000020B80300200044004070472DE97D
:10313000F843044690F84100984616460D4620286C
:1031400002D00220BDE8F88385B17EB10020606422
:10315000212084F84100FEF7DDFBA6848146E68449
:10316000A0682027B0F5805F02D003E00120E9E7E6
:10317000206910B12E4600250EE000260CE08021CB
:10318000204602F056FAA8B9C6B116F8010B21681C
:103190004860E08C401EE084E08C4B464FF000021B
:1031A000CDF800800028EAD14FF04001204602F01F
:1031B00040FA40B184F841700320C3E735F8020BB0
:1031C000C0F30800E3E784F841700020BAE77047D5
:1031D000FEE7000001488069704700007864002025
:1031E00001684A69D24352050FD46FF480624A6184
:1031F000002140F8301F202242738173026942F09F
:103200000402026101730120704700207047000032
:10321000F8B50446C06A1E460D461746082807D072
:10322000012805D010F5803F02D0206B122804D170
:103230002068016841F480710160134600224FF05C
:1032400001112046009600F0DBF840B120680068CC
:10325000C00502D54FF4007020640320F8BD20693A
:10326000B0F5804F0ED00620216800EAD51040F05E
:10327000F000086133463A460B49204600F008F951
:1032800078B902E005F0FE0000E0E8B221680861CC
:10329000054933463A46891F204600F0F9F80028D0
:1032A000DCD00120F8BD0000080001002DE9F84F36
:1032B0000446006889460B9D01689846174641F40C
:1032C000806101602068016841F4807101600095AF
:1032D0004FF0011B0022594620460A9B00F090F84F
:1032E0004FF4007A40B120680068C00501D5C4F8E9
:1032F00040A00320BDE8F88F216809F0FE000861B6
:103300002B46284920460A9A00F0C2F8F0BB2068F4
:103310004169806900902A4620460A9900F04EF9DA
:1033200040B1206C04283AD12068016841F4007152
:10333000016034E0FEB2B8F1010F09D02168380A0B
:1033400008612A4620460A9900F038F90028E8D199
:10335000206806612A4620460A9900F02FF90028C5
:10336000DFD12068016841F480710160009500227E
:10337000594620460A9B00F043F80028B3D1216843
:1033800009F0FF0040F00100086100E007E02B4673
:10339000044920460A9A00F07BF80028AAD00120B0
:1033A000A8E700000200010070B516460D4604466D
:1033B0001EE02046FFF714FF08B1012070BD681C15
:1033C00016D0FEF7A7FA801BA84200D885B920685E
:1033D0004069C04340070BD5002044F8300F20213E
:1033E0006173A073216941F0200121612073E4E73A
:1033F00020684069C0434007DBD4002070BD000056
:103400002DE9F047984617460D460446C1F3074696
:10341000DDF820902AE000BFB8F1FF3F26D0FEF78C
:1034200079FAA0EB0901414502D8B8F1000F1DD18E
:103430002068012E16D0806925EA00000004000CE7
:1034400012D00020B84211D1002044F8300F2021C2
:103450006173A073216941F0200121612073012073
:10346000BDE8F0874069E7E70120EBE72068012E1F
:103470000AD0806925EA00000004000C06D0002074
:10348000B842C9D00020EBE74069F3E70120F7E735
:103490002DE9F047984616460D4604464FF00009C0
:1034A0004FF0200AC1F3074723E020684069C0437A
:1034B000400515D42068016841F40071016021685D
:1034C0006FF480604861C4F8309084F83DA084F8BF
:1034D0003E90216C41F00401216484F83C9021E08D
:1034E000701C06D0FEF716FAA0EB0800B04203D815
:1034F00016B1012F1FD021E02068012F15D080695F
:1035000025EA00000004000C18D000BF44F8309FEA
:1035100084F80DA084F80E90216941F0200121610A
:1035200084F80C900120BDE8F087406925EA00008E
:103530000004000CEAD12068406901E0206880693D
:1035400025EA00000004000CAFD1ECE72DE9F041C2
:10355000002590460E460446202728E04069C043D7
:10356000C0060CD454F8301B6FF01000486144F8CA
:1035700010596777A577206A2062257714E0FEF757
:10358000C9F9A0EB0800B04200D886B920684069AC
:10359000C04340060BD544F8305F6773A5732069BC
:1035A00040F02000206125730120BDE8F0812068F3
:1035B0004169C9434906D1D40020F6E770B51646E3
:1035C0000D4604461EE02046FFF70AFE08B1012022
:1035D00070BD681C16D0FEF79DF9801BA84200D86C
:1035E00085B920684069C04300060BD5002044F827
:1035F000300F20216173A073216941F02001216106
:103600002073E4E720684069C0430006DBD4002053
:1036100070BD0000034908B1080601E04FF4805076
:10362000086070471014014070B51C46154600F044
:10363000D1F8044905FB04F04989BDE8704000F069
:1036400067B80000DC00002001B5009801E0401ED2
:1036500000900028FBD108BDF0B5184E203A1FFAA3
:1036600082FCF568AA88EB882D6802FB03F7FC173B
:1036700007EB5474C4F3C7040CFB045500F0AAF81C
:103680002C20C10608800021728933890C4E8027C6
:1036900010E0002015F801C027FA00FE1CEA0E0F0A
:1036A00001D0338000E03280401CC0B20828F1D342
:1036B000491CC9B2A142ECD3F0BD0000DC000020DF
:1036C00000000260F0B50F46064600250F4C19E0D9
:1036D000E068638881882944994203D9C18800251C
:1036E00031448EB2C088A1883044884201D9002577
:1036F0002E4631462846FFF7AFFFE0687F1C8088E2
:10370000284485B23A78002AE2D1F0BDDC000020DE
:1037100010B500222C23DC062380034B01E0198026
:10372000521C8242FBD310BD0000026030B5072856
:103730003AD81E49C4074FF0F00208704FF4A07346
:1037400013D04B808A80362213071A80CC88184AFF
:10375000A4F51345413D04D0A4F50545523D07D0DD
:1037600008E0082444EA401003E04A808B80EAE73E
:10377000400110802A201880002010801080488886
:10378000401EC0F307241480C0B210802B20188084
:103790000020108010808888401EC0F3072111800F
:1037A000C0B210802C20188030BD0000DC0000204A
:1037B0000000026010B50020FFF72CFF00F0BEF9FA
:1037C00000F028F802480078BDE81040FFF7AEBFCF
:1037D000DC00002070B54FF0C0452A242C800C4C32
:1037E000060A2680C6B226801044401E020A2280A5
:1037F000C0B220802B202880080A2080C8B22080F8
:10380000C818401E010A2180C0B2208070BD00008F
:103810000000026010B500F06DF9B349B44AA0F59C
:103820001343C880B1494FF0C044413B7ED0A0F55E
:103830000543523B7BD1CF20208000200880C1204F
:10384000088030200880ED2020806420088003203C
:1038500008801220088081200880E82020808520B0
:1038600008801020088078200880CB202080392014
:1038700008802C2008800020088034200880022046
:103880000880F720208020200880EA202080002067
:1038900008800880C020208021200880C12020804E
:1038A00011200880C52020802D200880332008802A
:1038B00036202080002008803A2020805520088073
:1038C000B12020800020088017200880B6202080AA
:1038D0000A200880A2200880F6202080012008808D
:1038E00030200880F22020800020088026202080C0
:1038F00001200880E0202080D0200880002008805F
:1039000002200880072008800B2008801A200880E9
:103910003120088054200880402008802920088019
:103920001220088008800880172001E029E027E0A5
:103930000880E1202080D02008800020088002201C
:1039400008800720088005200880252008802D2079
:10395000088044200880452008801C20088018200A
:103960000880162008801C2008801D200880112057
:1039700020801046FFF768FE292020802C20208020
:1039800010BDCF20208000200880812008803020BA
:103990000880ED2020806420088003200880122009
:1039A000088081200880E820208085200880102061
:1039B000088078200880CB202080392008802C20A7
:1039C0000880002008803420088006200880F72026
:1039D000208020200880EA202080002008800880A5
:1039E000B1202080002008801B200880B620208085
:1039F0000A200880A2200880C0202080352008806E
:103A0000C120208011200880C5202080452008800A
:103A10000880C7202080A2200880F220208000207B
:103A200008802620208001200880E02020800F20B0
:103A3000088026200880242008800B2008800E2083
:103A400008800920088054200880A820088046208B
:103A500008800C20088017200880092008800F208B
:103A600008800720088000200880E12020800020B6
:103A70000880192008801B2008800420088010205E
:103A80000880072008802A200880472008803920E5
:103A900008800320088006200880088030200880E5
:103AA000382008800F20088036202080C820088019
:103AB0002A2020800020088008800880EF200880CD
:103AC0002B202080002008800880012008803F20D3
:103AD00008803A2020805520088011202080104640
:103AE000FFF7B2FD29204AE7DC0000200000026059
:103AF000FCBF020010B54FF0C043042018800E49EF
:103B00000888088808884FF6FF7202EA00240888AF
:103B10002043A0F50544523C0DD0D32018800888DE
:103B20000888088802EA002208881043A0F513419B
:103B3000413900D0002010BD0000026070B5084C73
:103B40004FF40030206040F6FF252846FFF77CFD4B
:103B5000022020602846BDE87040FFF775BD0000D8
:103B6000101801409AB04FF47A7002F02DFBC2A0F9
:103B700000F04AFA02F0FFFC02F045FD00260127A2
:103B8000FFF718FE0620FFF7D1FDC0A000F03CFAB9
:103B9000DFF80C834FF6FF7A4FF47A720021012090
:103BA00002F09EFC761CB6B247B1BE480021B8F8C0
:103BB000002003880846FFF737FD002701F03AF898
:103BC00004460D4600224FF08043FCF793FD45D09C
:103BD00000F09EF900F09CF9C1884FF0100B0BEB40
:103BE00041001FFA80F900F093F900214B46B8F824
:103BF00000200846FFF7EEFD00F08AF900F088F992
:103C0000C1880BEB41001FFA80F900F081F9002117
:103C10004B46B8F800200846FFF706FDA24800F022
:103C20007DF94FF4FC6000F07FF900F071F99FA17D
:103C30000020FFF747FD9C4800F070F94FF6E07058
:103C400000F072F922462B469CA1684601F0FCFD6B
:103C500000F05EF9C0886946FFF734FD01F0B0FA64
:103C6000044610F0FF4F56D000F052F9C0884500CE
:103C700000F04EF9C088404205EB4000103085B29C
:103C800000F046F9C188D1460AEA41012B46B8F84E
:103C900000200020FFF79EFD00F03AF9C0884500A3
:103CA00000F036F9C088404205EB4000103085B284
:103CB00000F02EF9C1882B4609EA4101B8F800202E
:103CC0000020FFF7B1FC784800F028F94FF4FC60C1
:103CD00000F02AF900F01CF9C18809EA41007AA134
:103CE000FFF7F0FC704800F019F94FF6E07000F0B3
:103CF0001BF92046FCF7EBFC02460B4677A1684611
:103D000001F0A2FD00F004F9C088694600EB400014
:103D100080B2FFF7D7FCFFF75DFA044610F0FF4FC3
:103D200056D000F0F5F8C088850000F0F1F8C088A2
:103D3000404205EB8000103085B200F0E9F8C18800
:103D4000D1460AEA81012B46B8F800200020FFF78F
:103D500041FD00F0DDF8C088850000F0D9F8C0888A
:103D6000404205EB8000103085B200F0D1F8C188E8
:103D70002B4609EA8101B8F800200020FFF754FC27
:103D8000494800F0CBF84FF4FC6000F0CDF800F0AB
:103D9000BFF8C18809EA810052A1FFF793FC4248AD
:103DA00000F0BCF84FF6E07000F0BEF82046FCF7DB
:103DB0008EFC02460B464FA1684601F045FD00F01F
:103DC000A7F8C088694600EB800080B2FFF77AFC54
:103DD00000F09EF8C08800EB400101EB001400F0F9
:103DE00097F8C0886FF0120100FB0140103084B2D8
:103DF00000F08EF8C088234600EB400101EB001074
:103E000081B24446B8F800200020FFF7E3FC00F040
:103E10007FF8C08800EB400101EB001500F078F856
:103E2000C0886FF0120100FB0150103085B200F025
:103E30006FF8C0882B4600EB400101EB001081B207
:103E400022880020FFF7F0FB174800F067F8504683
:103E500000F06AF8324629A1684601F0F5FC00F04E
:103E600057F8C08800EB400101EB001080B26946B2
:103E7000FFF728FC90E600004C4344205461736B2C
:103E80002053757370656E64000000004C4344203D
:103E90005461736B20737461727465640000000078
:103EA000DE000020E0000020EC000020507265736E
:103EB0007375726520446174613A0000252E346682
:103EC000204D50610000000054656D706572617492
:103ED00075726520446174613A000000252E3166D8
:103EE0002043000048756D696469747920446174E9
:103EF000613A0000252E3166252500004469737063
:103F00006C617920436F756E743A2025640000005F
:103F10000148C06870470000DC0000200149C8600B
:103F200070470000DC000020014908817047000054
:103F3000DC000020AAB000F077F81A4C4FF0FF35F3
:103F40002B46002202A9E06A02F080F90028F7D18E
:103F5000154B0DF1980C0FCB8CE80F009DF8080065
:103F600004A9042803D226AA52F8200000E00FA0DA
:103F7000CDE900010FA2502112A8039B01F04AFCD9
:103F80002946606B02F0F4F912A8FCF77BF982B2C3
:103F9000642312A90B48FFF7CAF8606B02F045FAD8
:103FA000CEE70000000000205C850008554E4B4E17
:103FB000000000005B25356C755D2025733A2025D7
:103FC000730D0A00B80300200FB4382100B58FB07C
:103FD00011AB6846109A01F04BFC6946032000F0D3
:103FE00035F80FB05DF814FB0FB4382100B58FB071
:103FF00011AB6846109A01F03BFC6946002000F0C6
:1040000025F80FB05DF814FB0FB4382100B58FB060
:1040100011AB6846109A01F02BFC6946022000F0B3
:1040200015F80FB05DF814FB02490320087002A0D8
:10403000FFF7EABFD00000206C6F6720696E6974DB
:1040400020737563636573730000000010B50C4640
:104050000D4990B00978884213D88DF8000002F01D
:10406000C0F801903722214602A8FCF7FFF8002093
:104070008DF83F000346024604486946006802F096
:1040800043F910B010BD0000D00000202C0000202B
:104090000FB4382100B58FB011AB6846109A01F00B
:1040A000E7FB69460120FFF7D1FF0FB05DF814FB75
:1040B000194808B5416941F0010141614069002298
:1040C00000F00100009005210C20FDF777FF0C2087
:1040D000FDF766FF002205210D20FDF76FFF0D2083
:1040E000FDF75EFF002205210E20FDF767FF0E2081
:1040F000FDF756FF002205211020FDF75FFF10207D
:10410000FDF74EFF002205211120FDF757FFBDE806
:1041100008401120FDF744BF0010024010B52948A7
:1041200002F04FF9284C274A40216063303A0A20B8
:1041300002F0BEF8234AE062183A4FF4837105207A
:1041400002F0B6F82063214A0021214802F016FA55
:104150001E4AE060243200211E4802F00FFA1B4A7A
:104160002061483200211C4802F008FA174A6061B9
:104170006C320021194802F001FA144AA061903211
:104180000021174802F0FAF90E4AE0619C3A00213A
:10419000144802F0F3F90B4A2062783A00211248E1
:1041A00002F0ECF9074A6062543A00210F4802F02D
:1041B000E5F9A06220692060A0696060606AA06083
:1041C00010BD00004C85000800000020FC830008A2
:1041D000353F0008454D0008C1560008653B000802
:1041E000F94B0008D9090008450C0008E710000841
:1041F00000B587B01C216846FCF72DF817484FF032
:104200002041102201601649416000218160C16097
:10421000C0E904128161C16113020162C0E909139E
:10422000C1620163416381630F20CDE9001002ABDD
:10423000082083E807001120CDE905010022694626
:104240000648FEF737FA08B1FCF74BFF0548C1698D
:1042500041F48061C16107B000BD0000F40100209D
:10426000040100A0000001402DE9F04786B00025C0
:1042700041480095019502950395816941F04001FF
:104280008161816901F040010491816941F004017B
:104290008161816901F004010491816941F00801A3
:1042A0008161816901F008010491816941F0200177
:1042B00081618069DFF8C4A000F020000490002232
:1042C00045215046FDF721FBDFF8B480012211465D
:1042D0004046FDF71AFBDFF8AC9001224FF4405145
:1042E0004846FDF712FB012202215046FDF70DFB67
:1042F0000520012403268DE8710069465046FDF72C
:1043000003FA0820CDE90005694650460295FDF7FD
:10431000FBF91020CDE90005694602945046FDF7EF
:10432000F3F9402002278DE8B10069465046FDF7B9
:10433000EBF901AA009482E8B00069464046FDF717
:10434000E3F92003CDE90004CDE902466946484679
:10435000FDF7DAF960038DE8710069464846FDF71C
:10436000D3F9CDE90074CDE9024669465046FDF720
:10437000CBF906B0BDE8F0870010024000180140FC
:10438000000C0140001401400D4810B50B490160BC
:104390000C49416000214FF480428160C0E9031262
:1043A00041618161C1610162FDF7BAFA002803D061
:1043B000BDE81040FCF795BE10BD00000054004061
:1043C0003C020020A0860100104810B50E49016093
:1043D0004FF48271416000218160C1604FF400722E
:1043E0000161C0E905121022C0E907214162816222
:1043F0000A21C162FEF7A0F8002803D0BDE81040F2
:10440000FCF76FBE10BD000000300140900200209C
:1044100010B586B0002417480094019402940394C8
:1044200004941349059401602321C0E901144FF657
:10443000FF71C0E903148461FEF7B0F908B1FCF71D
:1044400050FE4FF48050009069460A48FEF71EFA6D
:1044500008B1FCF746FE049404A906480594FEF74B
:104460005FF9002801D0FCF73CFE06B010BD00004B
:1044700000040040700300200C4810B50A49016098
:104480004FF4E1314160002181600C22C160C0E93C
:1044900004128161C161FEF709FD002803D0BDE867
:1044A0001040FCF71EBE10BD00380140B8030020CC
:1044B0000C4810B50A4901604FF4E1314160002118
:1044C00081600C22C160C0E904128161C161FEF704
:1044D000EDFC002803D0BDE81040FCF702BE10BD83
:1044E00000440040000400200C4810B50A49016057
:1044F0004FF4E1314160002181600C22C160C0E9CC
:1045000004128161C161FEF7D1FC002803D0BDE82F
:104510001040FCF7E6BD10BD0048004048040020F4
:10452000FEE730B51C46039D187041F080005870BE
:104530009A700321184600F025F8E070000A2071F7
:104540000520288030BD70B50324DDE904562870AD
:104550006970AB70002005E0115C2955641C401C9B
:10456000A4B280B29842F7D32146284600F00AF858
:1045700028550146641CA0B2090A2954401C308009
:1045800070BD000030B503464FF6FF700022074DA6
:1045900008E09C5C4440E4B2521C35F8144092B2EE
:1045A00084EA10208A42F4D330BD0000868B0008D4
:1045B00010B500F07BFC0548002101804180C180DE
:1045C0000181BDE8104002A0FFF71EBDA0640020DD
:1045D0004D6F6462757320616E6420676C6F6261F9
:1045E0006C2073656E736F72206461746120696EF4
:1045F000697469616C697A656400000010B504290A
:1046000007D30278012A04D14278032A03D0042A6E
:1046100001D0002010BD00F0D3FA0028FAD001200C
:1046200010BD00002DE9F04F93B01D46934604469F
:10463000042901D2B2A011E000F0C2FAA0B194F8AE
:1046400000A094F8019051464A46B6A0FFF7BCFC82
:104650005046BAF1010F0BD00146BDA0FFF7C4FCD4
:10466000002013B0BDE8F08FC6A0FFF7BDFCF7E750
:1046700048464FF49676B9F1030F0AD0B9F1040F0A
:1046800078D00146C7A0FFF7AFFC5B46012200953A
:1046900016E0608890FA90F8A088414647BA3A46FA
:1046A000CBA0FFF791FC08EB0700334698420CD9EA
:1046B0003A464146D4A0FFF797FC5B46022200959C
:1046C00049465046FFF72DFF17E10024264667E0D4
:1046D00008EB060081B20020032955D0C82932D04A
:1046E000C92953D1D848006810B1012101F0BEFE9C
:1046F000D648006830B1012101F0B8FED4A0FFF720
:1047000083FC02E0DBA0FFF7C3FC642001F05CFD4A
:1047100000F090FA00224FF08043CDE90001FBF752
:10472000E9FF0AD0DDE900010022DA4BFBF78AFE3F
:10473000FBF7B4FFD849088002E0D8A0FFF7A8FC37
:10474000D548008822E0E548006830B1012101F039
:104750008DFEE3A0FFF758FC02E0EBA0FFF798FC0A
:10476000BA48006838B1012101F080FEB8A0FFF717
:104770004BFC03E01DE0BFA0FFF78AFC642001F0C2
:1047800023FDC548408801E0C348008902AA010A08
:104790001155641CA1B25054491C761C8CB2B6B29F
:1047A000BE4295D32146E1A0FFF70EFC234602AAA4
:1047B0009DE0608890FA90F8A088414647BA3A4652
:1047C000E4A0FFF701FC08EB0700334698423FF6F0
:1047D0006FAF0024264681E008EB060081B200207E
:1047E000C8293BD0C92902D0CA296DD16AE09648B0
:1047F000006828B1012101F039FEE4A0FFF7E4FBD5
:104800009248006828B1012101F030FE90A0FFF726
:10481000DBFB642001F0D8FC00F00CFACDE90110BC
:1048200000224FF08043FBF765FF11D0DDE9011056
:104830000022984BFBF706FEFBF730FF964980B24B
:1048400008800090DDE90132DA48FFF7DDFB02E085
:1048500092A0FFF71DFC9048008835E09F48006853
:1048600030B1012101F002FE9DA0FFF7CDFB02E077
:10487000A5A0FFF70DFC7548006830B1012101F0DB
:10488000F5FD73A0FFF7C0FB02E07AA0FFF700FC84
:10489000642001F099FC00F093FCC7490190FBF7FC
:1048A000F8FCFBF7E7FE81B27B480091418001985C
:1048B000FBF70DFF02460B46C048FFF7A5FB764805
:1048C000408801E07448808803AA010A1155641CDD
:1048D000A1B25054491C761C8CB2B6B2BE42FFF451
:1048E0007BAF214691A0FFF76FFB234603AACDE9DA
:1048F00000B549465046FFF726FE0120B1E600000C
:104900004D6F646275733A204672616D6520746FF5
:104910006F2073686F72742C206C656E6774683DCD
:10492000256400004D6F646275733A20536C6176A4
:104930006520616464723D3078253032582C204601
:10494000756E6374696F6E3D3078253032580000A3
:104950004D6F646275733A20496E76616C696420AC
:10496000736C61766520616464726573732030785E
:10497000253032582C20657870656374656420306A
:10498000783031004D6F646275733A204352432092
:1049900076616C69646174696F6E206661696C65CB
:1049A000640000004D6F646275733A20556E737534
:1049B00070706F727465642066756E6374696F6E73
:1049C00020636F6465203078253032580000000085
:1049D0004D6F646275733A205265616420486F6C54
:1049E00064696E6720526567697374657273202D00
:1049F0002053746172743D3078253034582C204334
:104A00006F756E743D2564004D6F646275733A2056
:104A1000496C6C6567616C206461746120616464D9
:104A200072657373202D2053746172743D30782544
:104A30003034582C20436F756E743D25642C204D06
:104A400061783D2564000000000000200400002083
:104A50004D6F646275733A2053656E74204C434405
:104A6000207461736B206E6F746966696361746929
:104A70006F6E00004D6F646275733A20675F4C4340
:104A8000445461736B48616E646C65206973204E99
:104A9000554C4C000088C340A06400204D6F6462F8
:104AA00075733A204661696C656420746F20676590
:104AB000742070726573737572652076616C7565AC
:104AC000206166746572207461736B206E6F746907
:104AD0006669636174696F6E000000000800002061
:104AE0004D6F646275733A2053656E742044485468
:104AF0003131207461736B206E6F74696669636114
:104B000074696F6E000000004D6F646275733A2027
:104B1000675F44485431315461736B48616E646C13
:104B200065206973204E554C4C0000004D6F646247
:104B300075733A204275696C64696E67207265739B
:104B4000706F6E73652077697468202564206279C0
:104B5000746573004D6F646275733A2052656164C9
:104B600020496E707574205265676973746572733D
:104B7000202D2053746172743D3078253034582CC8
:104B800020436F756E743D25640000004D6F6462B4
:104B900075733A2053656E74207072657373757205
:104BA00065207461736B206E6F74696669636174EC
:104BB000696F6E00CC8E000800401C46888E00088D
:104BC00070B5032914D34218891E32F8024C89B2F9
:104BD00066BAFFF7D7FC054603462246314605482C
:104BE000FFF7F2F9AE4201D0AC4201D1012070BD15
:104BF000002070BD348E00084FF47A74204601F016
:104C0000E3FA05A0FFF700FA01F0B5FC01F0FBFCA8
:104C1000204601F0D9FAFBE74D6F6E69746F722080
:104C20005461736B2053757370656E6400000000EF
:104C3000FEE700000149D1E90001704778640020D7
:104C40007CB5134C3025002120608DF804508DF880
:104C500005106426022301AADA210096FCF724FF3E
:104C600078B90A20FCF70AFD8DF8045003208DF86E
:104C700005000096022301AADA212068FCF714FF40
:104C800008B101207CBD322001F09EFA00207CBDDD
:104C9000D80000201FB56422032103A88DE8070077
:104CA000164801230622DA210068FCF793FF20B1A1
:104CB00004B000204FF0804110BD9DF80C009DF81D
:104CC0000D10000440EA01249DF80E000443200268
:104CD00002D5641EE0434442214609A0FFF794F93F
:104CE0002046FBF790FC0C4A0C4BFBF7A5FB04B0ED
:104CF0000022BDE810400A4BFBF7A4BBD8000020FF
:104D00005072657373757265207261772076616C7D
:104D100075653A20256400009A99999999992941D5
:104D20000000843E70B504460D4600224FF08043DB
:104D3000FBF7E0FC05D020462946BDE8704000F0B6
:104D40000BB970BD4FF47A74204601F03DFA23A0F0
:104D5000FFF75AF901F00FFC01F055FC601001F06B
:104D600033FA24A0FFF750F92848FFF769FF30B164
:104D700027A0FFF739F9204601F026FAFBE72EA01D
:104D8000FFF742F941F28836F7063246002101204A
:104D900001F0A6FB1D48FFF77DFF04460D460022EB
:104DA0003B46FBF7A7FC15D020462946FFF7BAFF84
:104DB00000222C4B20462946FBF744FBFBF76EFCF8
:104DC00081B229A0FFF700F922462B462BA0FFF75E
:104DD000FBF8DAE72EA0FFF707F9D6E75072657304
:104DE00073757265205461736B2053757370656EB3
:104DF00064000000507265737375726520546173AE
:104E00006B20737461727465640000003C020020C2
:104E100050726573737572652073656E736F72205F
:104E2000696E697469616C697A6174696F6E206614
:104E300061696C656400000050726573737572651A
:104E40002073656E736F7220696E697469616C6935
:104E50007A6564207375636365737366756C6C79CA
:104E6000000000000088C34050726573737572655E
:104E70005F6870613A20256400000000507265731D
:104E8000737572655F6D50613A20252E346600009F
:104E900050726573737572652073656E736F7220DF
:104EA00072656164206572726F72000010B528210E
:104EB0000648FBF7D0F9054C0120E083FCF72AFDFA
:104EC0006062BDE8104002A0FFF79EB87864002041
:104ED000476C6F62616C2073656E736F72206461E2
:104EE000746120696E697469616C697A6564000037
:104EF00010B504460B480121846101770A49204618
:104F0000FBF7C7F9FBF79DFB06492831888020464F
:104F1000FBF7DDFB0246BDE810400B4603A0FFF7A0
:104F200073B80000786400200000204153656E7360
:104F30006F7220646174613A2048756D69646974A8
:104F400079207570646174656420746F20252E3239
:104F5000662525200000000070B50E4E04460D4663
:104F6000C6E90001FCF7D6FCB060012030730022D6
:104F7000094B20462946FBF765FAFBF78FFB06F144
:104F80002801224608802B46BDE8704003A0FFF7A9
:104F90003BB80000786400200088C34053656E73FE
:104FA0006F7220646174613A205072657373757218
:104FB00065207570646174656420746F20252E34DB
:104FC00066204D506100000010B504460B480121D9
:104FD000046101750A492046FBF75BF9FBF731FBD9
:104FE0000649283148802046FBF771FB0246BDE8A0
:104FF00010400B4603A0FFF707B8000078640020BC
:105000000000204153656E736F7220646174613AD1
:105010002054656D70657261747572652075706479
:105020006174656420746F20252E32662043000071
:1050300010B54FF0E020006902F0A0FF012803D076
:10504000BDE8104002F056BA10BD30B58FB028212F
:105050006846FBF700F914210AA8FBF7FCF80121C8
:105060000804CDE900100024029402250491CDE942
:1050700007504FF4E01009906846FDF7CDF808B1ED
:1050800072B6FEE70F20CDE90A054FF48060CDE946
:105090000C4002210AA80E94FCF7C2FF002801D0A0
:1050A00072B6FEE70FB030BD704700000148FDF753
:1050B0005CBC00005C050020F0B50268204C214D6E
:1050C000214E224F224B4FF0804CA04209D09842F3
:1050D00007D0604505D0A84203D0B04201D0B84205
:1050E00004D122F0700E4A6842EA0E02A04209D0B2
:1050F000984207D0604505D0A84203D0B04201D005
:10510000B84203D122F44075CA682A434D6922F09F
:1051100080022A4302608A68C2620A688262A042F0
:1051200001D0984201D109690163012141610169FE
:10513000C90703D0016921F001010161F0BD000040
:10514000002C01400004004000080040000C00401A
:105150000034014010B5846842EA032224F47F44FD
:105160000A432243826010BD826822F070020A4323
:1051700042F007018160704710B5036A046A24F0A9
:1051800001040462846924F0F00444EA021423F068
:105190000A020A438461026210BD10B5036A046A00
:1051A00024F010040462846923F0A00324F4704402
:1051B00044EA023243EA01118261016210BD00003B
:1051C00001480069704700007864002070B50E4CFB
:1051D00000206080207001206070050229460BA02D
:1051E000FEF7F2FE2A4614491448FDF76BFF28B17A
:1051F00013A0FEF7F9FE0320607070BDBDE870409B
:1052000017A0FEF7E1BE0000D200002053746172C7
:1052100074696E6720554152543220444D412072CA
:105220006563656976652C206275666665722073B4
:10523000697A653A20256400786200200004002025
:10524000554152543220444D412072656365697660
:1052500065207374617274206661696C6564000016
:10526000554152543220444D412072656365697640
:10527000652073746172746564207375636365730C
:105280007366756C6C79000010B5406A0021C185A9
:10529000C184FDF7B5FC10BD70B5446A2068406953
:1052A00094F84110C0F3C0100025212904D118B191
:1052B000E584204600F08EF82068406994F842109A
:1052C000C0F38010222904D118B1E585204600F0F2
:1052D0005AF8606C40F0100060642046FDF790FCC6
:1052E00070BD10B50146406A096809684FF00002B8
:1052F00089062ED4C28501680C3151E8003F23F4A1
:10530000807341E80034002CF5D10168143151E874
:10531000003F23F0010341E80034002CF5D101687F
:10532000143151E8003F23F0400341E80034002CE1
:10533000F5D1202180F84210016B012909D10168C3
:105340000C3151E8003F23F0100341E80034002CF9
:10535000F5D14263016B012902D0FDF7CFFE10BDEC
:10536000818DFDF7CDFB10BD10B5406A0121416371
:10537000016B012902D0FDF7D9FE10BD818D4908CE
:10538000FDF7BEFB10BD01680C3151E8002F22F47F
:10539000907241E80023002BF5D10168143151E8E7
:1053A000002F22F0010241E80023002BF5D1016B10
:1053B000012909D101680C3151E8002F22F01002B7
:1053C00041E80023002BF5D1202180F84210002174
:1053D0000163704701680C3151E8002F22F0C002D0
:1053E00041E80023002BF5D1202180F841107047BF
:1053F00008B590F84210222901D0022008BD826829
:105400004FF480539A4201D1016921B1816A9A42D5
:105410001BD04AB10AE00268816A5268C2F30802EE
:105420000A80816A891C08E0026972B102685268C8
:1054300002F07F020A70816A491C8162C18D491E97
:105440000904090CC18503D01BE002685268F1E72A
:105450000168CA6822F02002CA600168CA6822F4A2
:105460008072CA6001684A6922F001024A61202103
:1054700080F8421000214163026B012A03D0FDF73E
:105480003DFE002008BD016301680C3151E8002F8A
:1054900022F0100241E80023002BF5D101680A68D0
:1054A000D20602D50A6849680091818DFDF728FB74
:1054B000E7E7000070B5044600680169E26821F47E
:1054C0004051114301612169A068084361690843A3
:1054D0002168CA6841F20C639A430243CA6020689B
:1054E0004169A26921F44071114341611E4920685C
:1054F000884202D1FCF75AFE01E0FCF747FE00EBC0
:10550000C00101EB0012606864218000B2FBF0F37F
:10551000B3FBF1F36FF018067343B2FBF0F5B2FB87
:10552000F0F605EB8305322303EB0515B5FBF1F52A
:10553000B6FBF1F605F0F00505EB0615B2FBF0F64B
:10554000B2FBF0F0B0FBF1F06FF01802504306EB45
:10555000800003EB0010B0FBF1F0216800F00F00B9
:105560002844886070BD00000038014038B5816271
:1055700004468285002013466064222284F842207B
:10558000E56B1B4AAA62E56B1A4AEA62E56B1A4AA6
:105590002A63E26B50630A462168E06B091DFCF741
:1055A00035F82068016840680090206948B120689B
:1055B0000C3050E8001F41F4807140E80012002ACE
:1055C000F5D12068143050E8001F41F0010140E897
:1055D0000012002AF5D12068143050E8001F41F075
:1055E000400140E80012002AF5D1002038BD00003B
:1055F000E3520008695300089952000881628285CD
:10560000C28500214164222180F84210016921B144
:105610000168CA6842F48072CA6001684A6942F04F
:1056200001024A610068C16841F02001C1600020A8
:1056300070472DE9F843984617460D460446089EE4
:1056400024E0701C22D0FCF765F9A0EB0800B04202
:105650001AD8CEB12068C168490717D5802D15D05A
:10566000402D13D00168C94309070FD401680025F4
:10567000406800902046FFF786FE0820606484F8AA
:1056800040500120BDE8F8830320FBE72068006854
:1056900035EA000004D00020B842D2D00020F1E763
:1056A0000120F9E70148FDF7CBBA0000B80300205C
:1056B0000148FDF7C5BA000000040020FEE7000025
:1056C000ADF5047DC82000F07FFDFBF7EBF9FEF798
:1056D0006FFF2CA0FEF798FC374C4FF0FF352B46A0
:1056E00000226946206B00F0B1FD0028F7D1BDF81B
:1056F00000116846FEF782FF28B3BDF8001182ABA7
:1057000042AA6846FEF78EFFBDF808020028E6D0E0
:105710002946606B00F02CFE6423BDF8082242A9E4
:105720002648FDF704FD6423BDF8082242A9244859
:10573000FDF7FDFC606B00F078FEBDF8081221A0BB
:10574000FEF762FCCBE72946606B00F011FE642394
:10575000082224A11948FDF7EAFCBDF800216423C2
:1057600069461648FDF7E3FC6423022220A1134892
:10577000FDF7DDFC606B00F058FEBDF800111DA0C8
:10578000DEE70000557361727432205461736B2040
:10579000737461727465642C2077616974696E67D3
:1057A00020666F7220646174612066726F6D20558F
:1057B000415254320000000000000020B8030020D5
:1057C000000400204D6F6462757320726573706F02
:1057D0006E73652073656E743A2025642062797457
:1057E00065730000726563656976653A00000000C4
:1057F0000D0A0000537472696E6720646174612041
:1058000072656365697665643A20256420627974FF
:10581000657300000FB47CB50C0009AD01D0611EAA
:1058200000E00021CDE90001064B6A4629460898B0
:1058300000F01AF9002C02D0009A002111707CBCF3
:105840005DF814FB6F6100080FB4084B10B504A994
:1058500002AA039800F008F9044602A9002000F00B
:1058600091FC204610BC5DF814FB00008561000827
:105870007CB50C001D461646014601D0601E00E0B6
:105880000020CDE90010064B6A462946304600F05C
:10589000EBF8002C02D0009A002111707CBD0000B2
:1058A0006F6100080907090E002804DB00F1E02001
:1058B00080F80014704700F00F0000F1E02080F83D
:1058C000141D704702E008C8121F08C1002AFAD14F
:1058D00070477047002001E001C1121F002AFBD170
:1058E000704700002DE9FF5F82B00021DDE9043040
:1058F000020DDDF840B0034318D044F61050A2F278
:10590000FF3242431514119801281FD0A5EB0B005C
:10591000401C5FEA000A4FF000064E4FDFF8389156
:10592000B046504615D5CAF1000413E01198012481
:105930004AA3012801D16FEA0B010298119AC0E92C
:105940000031C0E9024206B0BDE8F09FCBF1000093
:10595000DFE704460021404A491842EB0450CDE9F4
:10596000001012E0E00707D032463B464046494669
:10597000FAF768FD8046894632463B46104619468E
:10598000FAF760FD06460F466410002CEAD1DDE907
:105990000401DDE90023BAF1000F06DAFAF752FD3F
:1059A00042464B46FAF74EFD05E0FAF7BDFD42468A
:1059B0004B46FAF7B9FD04460E460022284BFAF78B
:1059C000E1FF03D84FF0FF30014607E00022254BEE
:1059D00020463146FAF78FFCFAF7BCFF102409E0A5
:1059E000002C0ADB0A220023FAF7CEFE039B30329A
:1059F0001A55641E50EA0102F2D1641C039AC4F1E4
:105A000011031444119A012A03D0012208430DD135
:105A10000AE0084304D000204FF0110B119072E708
:105A2000A3EB0B056D1E0DE05B4504DD4FF000029E
:105A300005F1010504E003DA4FF00002A5F10105CC
:105A4000002AECD002981199C0E90231C0E9004562
:105A500079E70000000014400000F03F3000000033
:105A60000000F0430000E03F2DE9FF4F95B09A465B
:105A7000884606460025EEE1252877D100242746F2
:105A8000F94A0121039400E0044316F8013F203B4A
:105A900001FA03F01042F7D130782A2811D06FF0C4
:105AA0002F033078A0F13002092A16D8039A44F067
:105AB000020402EB820203EB42021044761C0390C4
:105AC000EFE758F8042B0392002A03DA504244F41B
:105AD0000054039044F00204761C30782E2816D12E
