:020000040800F2
:1000000040740020E5010008BD740008515A000842
:10001000AD6D0008590C0008998000080000000030
:10002000000000000000000000000000490100087E
:10003000F9100008000000008D0100080D7A00088A
:10004000FF010008FF010008FF010008FF01000890
:10005000FF010008FF010008FF010008FF01000880
:10006000FF010008FF010008FF010008FF01000870
:10007000191000082510000831100008FF010008C1
:100080003D10000849100008FF010008FF010008AA
:10009000FF010008FF010008FF010008FF01000840
:1000A000FF010008FF010008FF010008FF01000830
:1000B000FF010008FF010008FF010008FF01000820
:1000C000FF010008FF010008FF010008FF01000810
:1000D000FF010008818000088D800008FF010008F2
:1000E000FF010008FF010008FF010008FF010008F0
:1000F000FF010008FF010008FF010008FF010008E0
:10010000FF010008FF010008FF010008FF010008CF
:10011000FF010008FF010008897A0008FF010008BC
:10012000FF010008FF010008FF010008FF010008AF
:10013000DFF810D000F04AFC00480047BD8B0008F3
:10014000AFF3008040740020224B19680868B0E8C3
:10015000F00F80F30988BFF36F8F4FF0000080F33A
:1001600011884EF00D0E7047000000000648006830
:10017000006880F3088862B661B6BFF34F8FBFF3A3
:100180006F8F00DF00BF00BF08ED00E0EFF30980D4
:10019000BFF36F8F0F4B1A6820E9F00F106008B59E
:1001A0004FF0500080F31188BFF34F8FBFF36F8F74
:1001B00009F068FE4FF0000080F31188BDE80840A8
:1001C00019680868B0E8F00F80F30988BFF36F8FF3
:1001D000704700BF54000020EFF305807047000017
:1001E00040BA70470648804706480047FEE7FEE7EA
:1001F000FEE7FEE7FEE7FEE7FEE7FEE7FEE7FEE7D7
:10020000857A000831010008202A04DB203A21FA0F
:1002100002F00021704721FA02F3D040C2F120021F
:10022000914008431946704740EA01039B0703D0F9
:1002300009E008C9121F08C0042AFAD203E011F825
:10024000013B00F8013B521EF9D27047D2B201E0E7
:1002500000F8012B491EFBD270470022F6E710B5CB
:1002600013460A4604461946FFF7F0FF204610BD24
:1002700010B5044604E00B7800F8013B03B1491CBB
:10028000521EF8D2204610BD421C10F8011B002956
:10029000FBD1801A704780EA010210B502F00043DA
:1002A000400022D04A001FD0010E01EB1261C0F3C2
:1002B0005600C2F3560240F4000042F40002A0FBD4
:1002C000022000047F39140400D0401C50EA124080
:1002D00001D44000491EC2B20C0604EBD010401CF1
:1002E0004008802A02D003E0002010BD20F0010069
:1002F000002900DA0020184310BD2DE9FE4F80468A
:1003000081EA0300C00F0C46009021F0004123F069
:100310000045B8EB0200A94105D24046214690466F
:100320001C460B46024623F00040104347D0270DE1
:10033000C7F30A00C3F30A510290401A0190402803
:100340006BDAC3F3130040F4801B0098924620B18F
:100350000023D2EB030A63EB0B0B01985946C0F163
:100360004002504600F04DFA06460D4650465946AA
:10037000019A00F055FA10EB08006141002487EA69
:10038000115284EAE7731A4340D0009A62B3019A8B
:10039000012A4FEA075215DC001B61EB02014FF006
:1003A000004202EA0752CDE90042001C41F58011EB
:1003B00032462B4600F08CFA03B0BDE8F08F404681
:1003C0002146F9E7001B61EB0201001C41F5801397
:1003D00000185B412018A2F5001747EB030140EA23
:1003E000D570B6196D4111E06D084FEA360645EA41
:1003F000C0754FEA0752001B61EB0201001C41F57A
:10040000801149084FEA30000019514132462B460D
:1004100003B0BDE8F04F00F04CBA00980122400054
:100420000023D0EB020263EBE073009821464FEA11
:10043000E074B8EB000061EB0401E9E783F00043EE
:100440005BE781F0004158E72DE9FE4F81EA0304A4
:1004500004F0004421F0004100944FF0000B23F021
:10046000004350EA01045ED052EA03045BD0C3F3B8
:100470000A54C1F30A552C44A4F2F3340194A0FBAE
:100480000254C1F3130141F48011C3F3130343F485
:10049000801301FB024400FB034E840A970A44EADE
:1004A000815447EA8357A4FB076802958D0A05FB30
:1004B00007854FEA932C04FB0C542705029D4FEA55
:1004C000065847EA1637B5EB08056EEB070C870EA2
:1004D000920E47EA811742EA8312A7FB0201B6EBAC
:1004E0000B0164EB00042B0D43EA0C335E1844EB64
:1004F0001C50DA465146E7FB0201C5F313044FEAEC
:100500000B3343EA14534FEA0432019C43EA0603D7
:10051000A4F10C040294009CCDE900B400F0D8F9D9
:1005200003B0BDE8F08F00200146F9E72DE9F04D5A
:1005300081EA030404F0004B21F0004514464FF01B
:10054000000A23F0004150EA050220D054EA0102DB
:100550001DD0C5F30A570246C5F31303C1F31300B8
:10056000C1F30A5640F4801543F48013A7EB060844
:10057000101BD64608F2FD3873EB050002D308F1D4
:10058000010801E092185B41B8F1000F03DA002086
:100590000146BDE8F08D00204FF4801106468446E8
:1005A0000EE0171B73EB050705D3121B63EB050366
:1005B00006434CEA010C49084FEA300092185B41AF
:1005C00050EA0107EDD152EA030012D082EA04009A
:1005D00083EA0501084305D0101BAB4106D2012276
:1005E000002306E000224FF0004302E06FF001021A
:1005F00053101AEB06004CEB085110EB0A0041EBCC
:100600000B01BDE8F04D00F054B90EB5C10F80EA02
:10061000E0700844CA07002140F233438DE80E0021
:100620000A460B4600F054F903B000BD0EB540F287
:10063000334102910021CDE900110A460B4600F03A
:1006400047F903B000BD00F0004220F00040C10DAA
:10065000C0F3160040F400007F2901DA0020704743
:10066000962903DCC1F19601C84001E09639884023
:10067000002AF4D04042704720F00040C10DC0F382
:10068000160040F400007F2901DA00207047962907
:1006900003DCC1F19601C840704796398840704725
:1006A000C1F30A5210B5C1F3130140F2FF3341F414
:1006B00080119A4201DA002010BD40F233439A4281
:1006C000A2F2334203DC5242FFF79EFD10BD904080
:1006D00010BD00F0004230F000400AD0C10D01F51D
:1006E0006071C0F3160042EA0151C208400711438D
:1006F000704700200146704730B5041E71F10004B8
:1007000004DB4FF00044404264EB0101141E73F11E
:10071000000405DB1C464FF00043524263EB040328
:100720008B4208BF824230BD01F0004330B421F05B
:10073000004150EA010206D00A0DA2F56072C1F331
:100740001301002A02DC30BC00207047440F44EA49
:10075000C104C100E01830BC00EBC25000F072B818
:10076000002801DBC0F10040002901DBC1F100419C
:100770008142704730B50B460146002020220124FB
:1007800009E021FA02F59D4205D303FA02F5491B5F
:1007900004FA02F52844151EA2F10102F1DC30BD75
:1007A0002DE9F05F0546002092469B4688460646A6
:1007B000814640241BE02846414647462246FFF733
:1007C00023FD53465A46C01A914110D3114618468C
:1007D000224600F016F82D1A67EB01084F46224614
:1007E0000120002100F00DF817EB00094E41201EFA
:1007F000A4F10104DFDC484631462A464346BDE801
:10080000F09F202A04DB203A00FA02F10020704712
:100810009140C2F1200320FA03F31943904070473E
:10082000202A06DBCB17203A41FA02F043EAE073B4
:1008300006E041FA02F3D040C2F1200291400843A1
:10084000194670470029A8BF7047401C490008BFDF
:1008500020F00100704710B4B0FA80FC00FA0CF0F0
:1008600050EA010404BF10BC704749B1CCF1200428
:1008700021FA04F411FA0CF118BF012121430843B5
:10088000A3EB0C01CB1D4FEA00614FEA102042BFE1
:10089000002010BC704700EBC35010440029A4BFD7
:1008A00010BC7047401C490008BF20F0010010BC7C
:1008B000704710B5141E73F1000408DA401C41F1B2
:1008C000000192185B411A4301D120F0010010BDD4
:1008D0002DE9F04D92469B4611B1B1FA81F202E04A
:1008E000B0FA80F220329046FFF78BFF04460F46A5
:1008F00040EA0A0041EA0B0153465A46084313D026
:10090000114653EA010019D0C8F140025046FFF7E2
:100910007BFC05460E46504659464246FFF771FF9E
:10092000084305D0012004E020463946BDE8F08D9B
:100930000020054346EAE0762C4337430A986305D6
:10094000E40AA0EB08000022FD0A44EA47540A30FA
:1009500002D500200146E9E7010510196941DDE9EA
:10096000084500196941BDE8F04DA2E7C1F30A52FC
:10097000C1F3130140F2FF3341F480119A4202DACD
:1009800000200146704740F233439A42A2F23342BC
:1009900002DC5242FFF738BCFFF733BF30B5041E0C
:1009A00071F1000404DB4FF00044404264EB0101AC
:1009B000141E73F1000405DB1C464FF00043524245
:1009C00063EB0403994208BF904230BD064C074DCB
:1009D00006E0E06840F0010394E80700984710340F
:1009E000AC42F6D3FFF7A8FBE4BE000804BF000842
:1009F0004FF4FA6008F036F918A005F031FF08F05E
:100A000008FB08F04EFB1AA005F02AFF642303221E
:100A10001BA11C4804F0CBFF4FF47A74204608F069
:100A200021F96423192218A1164804F0C0FF2046BA
:100A300008F018F964230B221AA1124804F0B7FF3A
:100A4000204608F00FF96423092219A10D4804F08B
:100A5000AEFF204608F006F9FBE70000424C4520B7
:100A60005461736B2053757370656E6400000000F1
:100A7000424C455461736B205374617274000000E2
:100A80002B2B2B002C04002041542B4E414D453D77
:100A9000302C53544D333246313033564554780D53
:100AA0000A00000041542B524F4C453D300D0A00C6
:100AB00041542B455849540D0A00000010B54FF41D
:100AC000807421461248FFF7C8FB21461148FFF702
:100AD000C4FB114B00205880187058700FA005F00F
:100AE000BFFE22461349144804F025FC20B1BDE89E
:100AF000104012A005F0A4BE18A005F091FE0E480B
:100B0000C06B0068016821F00401016010BD0000A5
:100B1000A4620020A4630020D6000020424C45209F
:100B200073797374656D20696E697469616C697A33
:100B300065640000200100202C040020554152541F
:100B40003220444D41207265636569766520737477
:100B5000617274206661696C65640000554152548D
:100B60003220444D41207265636569766520737457
:100B70006172746564207375636365737366756C05
:100B80006C79000010B500681849C2B088422AD1BB
:100B90001748C06B00684068164CC0F580706080D4
:100BA000618815A005F03CFE6088ADF8000103F0F7
:100BB0009BF84190628818496846FFF735FB174853
:100BC00000231A466946006808F0ECF818B114A032
:100BD00005F036FE03E0618818A005F021FE012033
:100BE000207006F0E1FF42B010BD0000004400405C
:100BF0002C040020D6000020424C45205541525480
:100C000020527820436F6D706C6574653A202564BE
:100C10002062797465730000A46200203400002013
:100C2000424C452071756575652066756C6C2C208D
:100C300064617461206C6F7374000000424C452045
:100C400064617461207175657565643A202564205E
:100C50006279746573000000FEE700001CB54FF474
:100C60007A7007F0FFFF1FA005F0FAFD08F0D1F938
:100C700008F017FA002000900546044601904FF452
:100C8000FA6007F0EFFF1CA005F0EAFD00F010FA93
:100C900000F084F841F28836641CA4B23246002188
:100CA000012008F06BF90746214617A005F0B8FDB2
:100CB0006D1CF807294601D017A000E023A005F01D
:100CC000CFFD01A9684600F0A1F820B129462AA06D
:100CD00005F0B6FDE0E7009806F064FE019806F026
:100CE000F5FDD9E74448543131205461736B2053EA
:100CF000757370656E6400004448543131546173FB
:100D00006B20537461727400636F756E746572202A
:100D10003A202564000000004448543131207472A8
:100D200069676765726564206279207461736B20FE
:100D30006E6F74696669636174696F6E202861748F
:100D400074656D70742023256C75290044485431F6
:100D500031207472696767657265642062792074F6
:100D6000696D656F75742028617474656D70742089
:100D700023256C75290000004448543131207265E8
:100D80006164206661696C65642028617474656DB6
:100D900070742023256C75290000000010B586B002
:100DA000002002900F48816941F040018161806913
:100DB0000D4C00F040000490402000901120019064
:100DC000032003906946204602F088FE012240215C
:100DD000204602F084FF06B004A0BDE8104005F0F4
:100DE0003FBD00000010024000180140444854314B
:100DF0003120696E697469616C697A656420737504
:100E0000636365737366756C6C7900002DE9F04758
:100E100086B000254026824600960495112005954F
:100E2000CDE901050320624C8946039069462046BE
:100E300002F054FE00224021204602F050FF122012
:100E400000F01DF901224021204602F048FF1E203B
:100E500000F01AF9CDE900650126CDE90265694681
:100E6000204602F03BFE03E0012000F00DF96D1C6E
:100E70004021204602F02EFF012803D0642D14D219
:100E8000002506E0642DEFD30FE0012000F0FCF810
:100E90006D1C4021204602F01DFF20B1642D04D2BC
:100EA000B046002503E0642DEFD342A03CE00027CC
:100EB0003E464021204602F00DFF0128F9D0402196
:100EC000204602F007FF0028F9D01E2000F0DCF8D1
:100ED0004021204602F0FEFE012805D1C6F107019F
:100EE00008FA01F03843C7B24021204602F0F2FE72
:100EF0000128F9D0761CF6B2082EDAD304A847559B
:100F00006D1CEDB2052DD2D39DF810109DF8110087
:100F10009DF812209DF8133001441A4411449DF8A5
:100F20001420914206D029A005F08AFC012006B0C9
:100F3000BDE8F087FFF77AFB2A4D00222B46FFF72A
:100F4000F5FA04460E469DF81000FFF76FFB2246A7
:100F50003346FFF7D2F9FFF7E7FBC9F800009DF829
:100F60001300FFF763FB00222B46FFF7DFFA04466E
:100F70000D469DF81200FFF759FB22462B46FFF75E
:100F8000BCF9FFF7D1FB0546CAF80000D9F800000C
:100F9000FFF79FFB04460E462846FFF79AFBCDE974
:100FA000004602460B4610A005F05AFC0020BEE7A2
:100FB00000180140444854313120726573706F6EDF
:100FC00073652074696D656F757400004448543111
:100FD0003120636865636B73756D206572726F7223
:100FE0000000000000002440444854313120726564
:100FF000616420737563636573733A2074656D7003
:101000003D252E316620432C2068756D693D252EC7
:101010003166252500000000014802F07FBB00007A
:1010200014030020014802F079BB0000580300209F
:10103000014802F073BB0000BC040020014802F02C
:101040006DBB000000050020014802F067BB0000F6
:101050004405002030B590F840500124AC40C56BE9
:101060006C60046863604368102B036803D0996068
:101070000068C26030BD9A600068C16030BD4FF446
:101080007A714843AFF30080064A10B55168064BA9
:10109000064C1B68B3FBF4F343435068401A984274
:1010A000FBD310BD001000E05000002040420F00B4
:1010B0000748016841F080710160064800214160E5
:1010C000016841F00101016003A005F0C9BB000007
:1010D000FCED00E0001000E044575420696E697494
:1010E00069616C697A65642073756363657373669F
:1010F000756C6C7900000000704772B6FEE7000066
:10110000ADF58A6D4FF47A7007F0ACFD64A005F080
:10111000A7FB07F07EFF07F0C4FF66A005F0A0FB69
:1011200001F046FF4FF4FA6007F09CFD67A005F060
:1011300097FB41F28836724D07F0A1FD044601F09D
:101140005BFF07F09CFD011BB14202D96D4805F021
:1011500077FB07F094FD04462868201AB04214D3A8
:1011600006F08EFB0746014628220DF22440FFF7C9
:101170005BF80DF584622821101D01F013FD0100BC
:1011800007D061A005F05CFB2C60012007F06AFD30
:10119000D2E76AA0DDF8201405F062FB05A9DDF8AE
:1011A000200400F0B1FE002877D19DF81C0400282F
:1011B00073D00698282805D0024628216AA005F099
:1011C0003FFBE1E7DDE90723D7E900014FF0010824
:1011D000FFF792FA0AD0DDE90701CDE90001D7E96E
:1011E000002370A005F02CFB4FF000080B99386924
:1011F000FFF7B6FA10D00B98FFF76BFA80468946D6
:101200003869FFF766FA02460B467648CDE9008951
:1012100005F016FB4FF000080D99B869FFF7A0FA2A
:1012200010D00D98FFF755FA80468946B869FFF748
:1012300050FA02460B466CA0CDE9008905F000FB90
:101240004FF00008F98BBDF83A20914203D0764860
:1012500005F0F6FA1CE0B8F1000F19D073A005F004
:10126000FFFAB869FFF735FA814688463869FFF713
:1012700030FA0346F88BCDF80890CDE90380CDE92C
:101280000031D7E9002379A005F0EAFA7CE704E011
:1012900081A000BF05F0D4FA76E78FA0FAE700003E
:1012A000464C415348205461736B205375737065ED
:1012B0006E640000466C617368205461736B3A2061
:1012C0005374617274696E672E2E2E00466C6173C2
:1012D00068205461736B3A2053797374656D207282
:1012E0006561647920666F722073656E736F72201A
:1012F000646174612073746F72616765000000003F
:101300000000002034BA0008466C61736820546104
:10131000736B3A204661696C656420746F20737446
:101320006F72652073656E736F7220646174612CD7
:10133000206572726F72202564000000466C617334
:1013400068205461736B3A2053746F726564207324
:10135000656E736F722064617461207769746820B0
:10136000494420256C750000466C61736820546107
:10137000736B3A2044617461206C656E67746820F9
:101380006D69736D6174636821204578706563745D
:1013900065643A20256C752C20526561643A2025DD
:1013A0006C750000466C617368205461736B3A2061
:1013B00050726573737572652076616C7565206D0A
:1013C00069736D61746368212053746F7265643A48
:1013D00020252E36662C20526561643A20252E3653
:1013E00066000000E4BA0008466C6173682054612E
:1013F000736B3A2048756D69646974792076616C05
:101400007565206D69736D61746368212053746F15
:101410007265643A20252E32662C20526561643A4A
:1014200020252E326600000088BA0008466C6173E1
:1014300068205461736B3A20446174612076657250
:10144000696669636174696F6E2050415353454406
:10145000202D20416C6C2073656E736F7220646167
:101460007461206D6174636865730000466C61731C
:1014700068205461736B3A20503A252E366620540A
:101480003A252E326620483A252E326620533A30CD
:101490007825303458000000466C61736820546130
:1014A000736B3A2044617461207665726966696382
:1014B0006174696F6E204641494C4544202D20449B
:1014C000617461206D69736D617463682064657413
:1014D0006563746564000000466C61736820546144
:1014E000736B3A204661696C656420746F20726585
:1014F00061642073746F7265642064617461206636
:101500006F7220766572696669636174696F6E00D7
:1015100030B5B3F5804F05D06FF0704140F8221020
:10152000002030BD8C690B688D6823434C68898925
:10153000240144EA0524234343EA014150F82230C0
:10154000014C23401943E9E70000F0CF10B50A68C9
:1015500050F8223023F0010340F822308C68082C28
:1015600023D000234A682243CC681C430B692243E2
:101570001A434B690E4C1A43CB691A430B6A1A4340
:101580004B6A1A438B6A1A43CB6A1A430B6B1A4392
:101590008B6913434A6B09681A4350F82130A343FF
:1015A000134340F82130002010BD4023DAE700004B
:1015B0007FFF0F0030B5D1E9003443EA04138C6893
:1015C0008D89240244EA054423430C8A074D00EB2D
:1015D000820005EB045423430C7D6D0105EB04648C
:1015E000896923430B434360002030BD0000F0FFB6
:1015F000F0B5134C134E2369C82B12D35FF00005CE
:1016000005EB450306EB830303F10C076D1C97E81C
:10161000805083E88050C72DF2D3C72323613368FD
:101620006361236903EB43055B1C46F8250006EB69
:101630008505012BC5E90112236100D16061F0BD70
:10164000F8000020DC64002030B503464FF6FF7040
:101650000022074C08E09D5C521C85EA102534F8F6
:10166000155085EA002080B28A42F4D330BD0000D4
:1016700022B8000838B5B1F5803F01D3D82100E089
:1016800020218DF80010010C8DF80110010A8DF851
:1016900002108DF8030001F019FE08B116A019E040
:1016A00001F0C8FC08B11EA014E0284C0022012162
:1016B000204602F014FB642304226946244803F008
:1016C0008DFA00284FF001021146204606D002F0A4
:1016D00006FB20A005F0B4F8042038BD02F0FFFAA4
:1016E00001F0A8FC040004D023A005F0A9F82046CE
:1016F00038BD002038BD0000466C6173683A205741
:101700007269746520656E61626C65206661696CE2
:101710006564206265666F7265206572617365003D
:10172000466C6173683A205761697420666F722055
:101730007265616479206661696C656420626566C2
:101740006F726520657261736500000000100140D2
:10175000BC020020466C6173683A204661696C6582
:101760006420746F2073656E6420657261736520F8
:10177000636F6D6D616E6400466C6173683A2057EB
:1017800061697420666F7220726561647920666198
:10179000696C656420616674657220657261736549
:1017A000000000003EB52DA005F09EF8344C01224B
:1017B0001146204602F093FA0A2007F053FA6620F9
:1017C0008DF8040000220121204602F088FA32231D
:1017D000012201A92B4803F001FA00284FF0010271
:1017E0001146204603D002F07AFA27A01BE002F04F
:1017F00076FA012007F036FA99208DF808000022C9
:101800000121204602F06BFA3223012202A91D4871
:1018100003F0E4F900284FF001021146204605D0FC
:1018200002F05DFA23A005F00BF810E002F057FA81
:10183000322007F017FA684600F098FE18B92849D8
:101840000098884205D027A0009904F0F9FF0220F3
:101850003EBD33A005F004F800203EBD466C617328
:10186000683A20506572666F726D696E6720666FA8
:101870007263652072657365742E2E2E0000000061
:1018800000100140BC020020466C6173683A20469B
:1018900061696C656420746F2073656E6420726585
:1018A00073657420656E61626C6520636F6D6D6138
:1018B0006E640000466C6173683A204661696C652D
:1018C0006420746F2073656E642072657365742084
:1018D0006578656375746520636F6D6D616E640016
:1018E0001740EF00466C6173683A20466F7263657B
:1018F00020726573657420766572696669636174C8
:10190000696F6E206661696C65642C204A454445A8
:10191000432049443A2030782530385800000000F0
:10192000466C6173683A20466F7263652072657316
:10193000657420636F6D706C657465642073756386
:101940006365737366756C6C790000000A4B10B5A3
:101950001C786CB170B169B162B1DC6814609A68CE
:10196000A2F580220260C2F5F8000860002010BDD8
:10197000012010BD082010BDF8000020F8B5274C4C
:10198000207818B126A004F0AFFF44E02BA004F0AB
:1019900067FF01F04FFB08B130A004E0684600F09B
:1019A000E5FD18B135A004F04BFF06E03B48009977
:1019B000814204D03AA004F043FF0120F8BD012584
:1019C000A804C4E901500020E0602061606100F0DB
:1019D000FFF858B140A004F087FF01F04BF8060073
:1019E00004D04CA004F02CFF3046F8BDE06840B1B4
:1019F00050A004F035FF59A06268E16804F030FFA0
:101A000002E065A004F02CFF2570D4E902316F4894
:101A1000626804F025FF0020F8BD0000F8000020F7
:101A2000466C6173683A20416C7265616479206923
:101A30006E697469616C697A65640000466C6173F3
:101A4000683A20496E697469616C697A696E6720C9
:101A50005732355136342E2E2E000000466C6173FD
:101A6000683A204661696C656420746F207761690B
:101A70007420666F7220726561647900466C6173D0
:101A8000683A204661696C656420746F20726561F4
:101A900064204A4544454320494400001740EF0074
:101AA000466C6173683A20496E76616C6964204ABD
:101AB000454445432049442C20657870656374652E
:101AC000642030784546343031372C20676F7420DD
:101AD0003078253038580000466C6173683A2046EB
:101AE00061696C656420746F206C6F616420696E3D
:101AF000646578207461626C652C207363616E6E1E
:101B0000696E67206461746120617265612E2E2E9A
:101B100000000000466C6173683A204661696C659C
:101B20006420746F207363616E206461746120614E
:101B300072656100466C6173683A20566572696629
:101B400079696E672073746F7261676520636F6E69
:101B500074696E756974792E2E2E0000466C61735F
:101B6000683A20466F756E6420256C75206578692B
:101B70007374696E67207265636F7264732C20637F
:101B80006F6E74696E75696E672066726F6D20493D
:101B90004420256C75000000466C6173683A204E45
:101BA0006F206578697374696E67207265636F7200
:101BB000647320666F756E642C207374617274692F
:101BC0006E6720667265736800000000B0BD000893
:101BD0002DE9F04385B043A004F042FE0020494CBB
:101BE00007464FF480482061054606464AF65529C7
:101BF000606112226946384600F02EFBD8B9BDF864
:101C00000010494517D1DDF80A20DDF80610DDF88F
:101C10000200FFF7EDFCDDF8020061686D1C8842F0
:101C200003D3DDF80200401C6060761C1237464585
:101C300001D2C82DDDD3E560002D49D0012100205F
:101C4000314E226916E000BF00EB400356F8233006
:101C50008B420DD000EB400056F820202BA004F062
:101C600043FE394804F040FE00F004FF28B108E0CC
:101C7000401C491C9042E7D303E034A0E16804F023
:101C8000EFFD2DB30022134611461046D4F810C0C4
:101C90000CE000BF00EB400856F828708F4204D9D2
:101CA00006EB88033946D3E90123401C6045F1D394
:101CB00072B1D0180C3010F0FF0FA06004D0000AF1
:101CC000000200F58070A06003462E4804F0A8FDD5
:101CD00029462DA0A26804F0C3FD05B00020BDE890
:101CE000F0830000466C6173683A204C6F61646950
:101CF0006E6720696E646578207461626C652E2E53
:101D00002E000000F8000020DC640020466C6173A7
:101D1000683A20466F756E642067617020696E2096
:101D20007265636F726420494473202D206578705A
:101D3000656374656420256C752C20666F756E6410
:101D400020256C75000000009CBE0008466C617385
:101D5000683A204461746120617265612073636137
:101D60006E20636F6D706C657465642C20726563A2
:101D70006F766572656420256C75207265636F727D
:101D80006473000060BD0008466C6173683A204CC3
:101D90006F6164656420256C7520696E64657820C8
:101DA000656E74726965732C206E65787420777225
:101DB00069746520616464726573733A20307825B4
:101DC000303858003EB5174C2078002827D002AA9A
:101DD00001A96846FFF7BAFD13A004F041FD18A061
:101DE00004F03EFD1BA0029904F03AFD1EA06168BC
:101DF00004F036FD21A0A16804F032FD26A0009970
:101E000004F02EFD2AA0019904F02AFD2EA02169DC
:101E100004F026FD31A000BF04F022FD3EBD34A039
:101E2000FAE70000F80000203D3D3D20466C61735C
:101E30006820537461747573203D3D3D00000000BF
:101E4000496E697469616C697A65643A2059657391
:101E500000000000546F74616C207265636F7264DF
:101E6000733A20256C7500004E65787420726563A6
:101E70006F72642049443A20256C75004E65787471
:101E800020777269746520616464726573733A20A7
:101E900030782530385800005573656420737061C0
:101EA00063653A20256C75206279746573000000C3
:101EB000467265652073706163653A20256C7520F4
:101EC0006279746573000000436163686520656E24
:101ED00074726965733A20256C7500003D3D3D3D87
:101EE0003D3D3D3D3D3D3D3D3D3D3D3D3D3D00009C
:101EF000466C6173683A204E6F7420696E6974692C
:101F0000616C697A656400002DE9F0475E4A054618
:101F10008CB010780C4640B15CB1002084F8080405
:101F2000C4E900505949126926E001200CB0BDE80F
:101F3000F0870820FAE700BF00EB400351F8236068
:101F40002B46AE4217D100EB400001EB80004FF072
:101F5000010A466819464EA004F062FC0C22314684
:101F600054A004F05DFC0C2209A9304600F074F97D
:101F700050B15EA067E0401C9042DDD3294664A0CA
:101F800004F0B2FC0620D1E79DF82C0005AF9DF8C7
:101F90002F309DF82E209DF82D1087E80F009DF81A
:101FA000280001AF9DF82B309DF82A209DF82910BC
:101FB00087E80F009DF8270000909DF826309DF8D7
:101FC00025209DF824105C4804F02AFC09AB45F25A
:101FD000AA5993E8070001AB009583E80700BDF814
:101FE0000470DDF806304A463946544804F018FCBF
:101FF0003846FEF7F5F880B28046014650A004F05E
:102000000FFC4F4503D0C84501D056A004E0DDF8D1
:102010000600A84203D05EA004F012FC24E0DDF824
:102020000A00B0F5806F03D965A004F009FC80E7D1
:1020300006F10C0004F10801DDF80A200E4600F05C
:102040000BF920B167A004F0FBFB02206EE7DDF87E
:102050000A103046FFF7F8FABDF80E10024691421A
:1020600004D067A004F0ECFB05205FE784F808A427
:10207000DDF80A006060DDF80A2029466DA004F052
:10208000EFFB002052E70000F8000020DC64002095
:10209000466C6173683A20466F756E6420726563A2
:1020A0006F726420256C7520696E206361636865BA
:1020B00000000000466C6173683A205265616469F3
:1020C0006E67206865616465722066726F6D20615D
:1020D0006464726573732030782530386C582C2016
:1020E00073697A653A20256C75000000466C61734F
:1020F000683A204661696C656420746F207265617E
:102100006420646174612068656164657200000028
:10211000466C6173683A205265636F726420256C67
:1021200075206E6F7420666F756E6420696E206313
:102130006163686500000000BCBC000804BE0008C4
:10214000466C6173683A20427974652D73776170CB
:10215000706564206D616769633A2030782530349A
:1021600058000000466C6173683A20496E76616CD5
:102170006964206461746120686561646572202D02
:10218000206D61676963206D69736D6174636800B8
:10219000466C6173683A20496E76616C69642064AC
:1021A00061746120686561646572202D20726563C9
:1021B0006F72645F6964206D69736D617463680038
:1021C000466C6173683A204461746120746F6F20BB
:1021D0006C6172676520666F7220627566666572F3
:1021E00000000000466C6173683A204661696C65C6
:1021F0006420746F20726561642064617461000002
:10220000466C6173683A20435243206D69736D6177
:102210007463682C20657870656374656420307819
:10222000253034582C20676F74203078253034588E
:1022300000000000466C6173683A205265616420BA
:102240007265636F726420256C752C206C656E67F7
:10225000746820256C7500002DE9FF4704460020B6
:10226000029003208DF80400200C8DF80500200A50
:1022700015468DF8060089468DF807402246294606
:102280004CA004F0CDFA03A800F0D8F958B99DF895
:102290000C00032807D153A004F026FBFFF782FAB5
:1022A00008B160A032E0694E00220121304601F001
:1022B00016FD3227042302AA01A96548009702F0FF
:1022C00040FD002825D001221146304601F007FDCF
:1022D000214660A004F0B4FA00F014FA002833D1CB
:1022E0006AA004F0BDFA00220121304601F0F7FC9B
:1022F000042302AA01A95648009702F022FD40B12A
:1023000001221146304601F0EAFC6AA004F098FA76
:102310001AE0322D01D9322000E014208046034615
:10232000AAB249464A4802F0AFFB002835D0012244
:102330001146304601F0D3FC2A462146664804F097
:102340007FFA00F0DFF918B1022004B0BDE8F08791
:102350004EA004F085FA00220121304601F0BFFCB6
:10236000042302AA01A93A48009702F0EAFC30B11E
:1023700001221146304601F0B2FC58A0C6E7AAB2CD
:1023800043464946324802F07FFB30B101221146F4
:10239000304601F0A4FC5CA0B8E7012211463046AB
:1023A00001F09DFC2246294662A004F039FA002083
:1023B000CBE70000466C6173683A2052656164693E
:1023C0006E6720256C752062797465732066726F64
:1023D0006D20616464726573732030782530386CC9
:1023E00058000000466C6173683A20446574656368
:1023F0007465642070726F6772616D6D696E6720BD
:102400007374617465206265666F726520726561C0
:10241000642C20666F7263696E67207265736574E1
:102420002E2E2E00466C6173683A20466F726365EB
:10243000207265736574206661696C6564206265ED
:10244000666F7265207265616400000000100140D3
:10245000BC020020466C6173683A204661696C6575
:102460006420746F2073656E6420726561642063FC
:102470006F6D6D616E6420746F206164647265734A
:10248000732030782530386C58000000466C61733A
:10249000683A205265747279696E6720726561646A
:1024A000206166746572207265636F766572792E3D
:1024B0002E2E0000466C6173683A20526574727962
:1024C000206661696C65642061667465722072655E
:1024D000636F76657279000058BE0008466C6173C0
:1024E000683A20526574727920636F6D6D616E6415
:1024F000206661696C65642061667465722072652E
:10250000636F766572790000466C6173683A205299
:1025100065747279207265636569766520666169A4
:102520006C6564206166746572207265636F7665A0
:1025300072790000466C6173683A20537563636575
:10254000737366756C6C79207265616420256C7597
:102550002062797465732066726F6D2061646472A5
:102560006573732030782530386C58007CB504468C
:102570009F201C4D8DF8040000220121284601F007
:10258000AEFB6423012201A9174802F027FB30B1FA
:1025900001221146284601F0A2FB14A00EE03223CE
:1025A00003226946104802F06FFA00284FF001023A
:1025B0001146284606D001F092FB16A004F040F91F
:1025C00002207CBD01F08BFB9DF800009DF80110FE
:1025D000000440EA01209DF802100843206000201A
:1025E0007CBD000000100140BC020020466C6173FD
:1025F000683A204661696C656420746F2073656E6B
:1026000064204A4544454320494420636F6D6D6111
:102610006E640000466C6173683A204661696C65BF
:102620006420746F2072656365697665204A45444D
:102630004543204944206461746100007CB5040076
:1026400016D00520184D8DF80000002201212846E3
:1026500001F045FB322301226946144802F0BEFA1C
:1026600040B101221146284601F039FB10A010E0CC
:1026700008207CBD3223012201A90C4802F004FA93
:1026800000284FF001021146284606D001F027FB32
:1026900012A004F0D5F802207CBD01F020FB9DF8CB
:1026A0000400207000207CBD00100140BC0200200E
:1026B000466C6173683A204661696C656420746F8A
:1026C0002073656E64207265616420737461747533
:1026D0007320636F6D6D616E64000000466C617302
:1026E000683A204661696C656420746F2072656188
:1026F000642073746174757320726567697374659F
:102700007200000038B510A004F0EEF800F08EF86A
:10271000040001D015A005E06846FFF727FF04007C
:1027200004D01CA004F08CF8204638BD2548009940
:10273000814204D024A004F083F8012038BD2FA0EA
:1027400004F08EF8002038BD466C6173683A204171
:102750007474656D7074696E67206572726F722033
:102760007265636F766572792E2E2E00466C6173EA
:10277000683A205350492072657365742066616918
:102780006C656420647572696E67207265636F762C
:1027900065727900466C6173683A204661696C65C0
:1027A0006420746F2072656164204A45444543206B
:1027B000494420647572696E67207265636F76653F
:1027C000727900001740EF00466C6173683A204947
:1027D0006E76616C6964204A454445432049442033
:1027E000647572696E67207265636F766572792CA5
:1027F00020676F742030782530385800466C61733C
:10280000683A204572726F72207265636F766572E6
:102810007920636F6D706C65746564207375636394
:1028200065737366756C6C790000000038B51BA089
:1028300004F05AF8234C01221146204601F04FFAC9
:102840000A2006F00FFAAB208DF8000000220121CB
:10285000204601F044FA3223012269461A4802F068
:10286000BDF900284FF001021146204603D001F0C7
:1028700036FA16A008E001F032FA0A2006F0F2F962
:1028800000F0D8FB20B11EA003F0DAFF022038BD13
:1028900024A003F0E5FF002038BD0000466C617302
:1028A000683A20526573657474696E6720535049A5
:1028B00020636F6D6D756E69636174696F6E2E2E26
:1028C0002E00000000100140BC020020466C617325
:1028D000683A204661696C656420746F2073656E88
:1028E000642072656C6561736520706F7765722016
:1028F000646F776E20636F6D6D616E640000000021
:10290000466C6173683A20466C617368206E6F7420
:1029100020726561647920616674657220726573E6
:1029200065740000466C6173683A20535049206317
:102930006F6D6D756E69636174696F6E207265731A
:10294000657420636F6D706C6574656400000000D1
:102950002DE9F04385B022A003F082FF4FF48021DF
:102960000020FEF787FE30B125A003F069FF0420A8
:1029700005B0BDE8F08300252C462A4E2F464AF6C6
:102980005529DFF8A48021E004EB4401ADF8009064
:1029900058F82120CDF8022008EB8100122241686E
:1029A000CDF806108068CDF80A00ADF80E70ADF8CD
:1029B00010706946284600F0C5FC28B121461BA0CE
:1029C00003F03EFF0320D3E7641C123530698442D4
:1029D000DAD301461FA003F043FF0020C8E7000040
:1029E000466C6173683A20536176696E6720696E40
:1029F000646578207461626C652E2E2E00000000E4
:102A0000466C6173683A204661696C656420746F36
:102A100020657261736520696E64657820617265F6
:102A200061000000F8000020DC640020466C617347
:102A3000683A204661696C656420746F207772691A
:102A4000746520696E64657820656E7472792025DE
:102A50006C750000466C6173683A2053617665645A
:102A600020256C7520696E64657820656E747269C6
:102A700065730000FEB527A003F0F2FE00202D4D87
:102A80004FF480246701286168610646E8600C22E3
:102A900069462046FFF7E0FB58BBBDF80000A0F5F3
:102AA000AA41AA3925D1DDF80600B0F5806F29D8F2
:102AB000DDF8060030B3DDF80620DDF8020021461F
:102AC000FEF796FDDDF802006968761C884203D3A4
:102AD000DDF80200401C6860DDF806000C34044498
:102AE00014F0FF0F03D0200A040204F58074BC42E6
:102AF000CDD3C5E90246224631460FA003F0B0FE11
:102B00000020FEBDDDF80610224619A003F0ECFE01
:102B1000EFE70000466C6173683A205363616E6EA4
:102B2000696E67206461746120617265612E2E2E6A
:102B300000000000F8000020466C6173683A2053E2
:102B400063616E6E656420256C75207265636F72BB
:102B500064732C206E6578742077726974652061C7
:102B60006464726573733A203078253038580000F9
:102B7000466C6173683A20496E76616C69642064C2
:102B8000617461206C656E67746820256C752061C6
:102B9000742061646472657373203078253038580E
:102BA000000000002DE9F047674C074688B0207808
:102BB00091460D4688B197B18DB1B9F1000F0ED095
:102BC000A06828440C30B0F5000F0AD95FA003F0CC
:102BD00037FE072008B0BDE8F0870120FAE708209B
:102BE000F8E745F2AA50ADF804006068CDF8060099
:102BF000CDF80A5029463846FEF726FDADF80E00FE
:102C0000A0684FF48051B0FBF1F00003FEF732FDF5
:102C100020B154A003F014FE0420DBE7A668A2460E
:102C20000C2201A9304600F08DFB08B158A086E0C7
:102C30000C2204A93046FFF70FFB18B15DA003F08A
:102C4000FFFD34E0DDF812000090DDF80630BDF83D
:102C50001020BDF8041064A003F0E2FDBDF81000E0
:102C6000BDF80410884205D1DDF81200DDF8061029
:102C7000884201D06BA030E006F10C0080462A4665
:102C8000394600F05FFB08B176A058E0284605F011
:102C9000B3FF04000DD001462A464046FFF7DCFA98
:102CA00060B177A003F0CCFD204605F05FFF022065
:102CB00090E780A003F0C4FD09208BE7002111E01C
:102CC000605C7A5C90420CD0C3B2D2B2864803F00A
:102CD000B7FD204605F04AFF84A003F0B1FD0520B2
:102CE00078E7491CA942EBD3204605F03FFF29466F
:102CF0008DA003F095FD2A4631465446DAF80400CB
:102D0000FEF776FC6168C9F80010481C6060E06856
:102D1000401CE06008EB050010F0FF0FA06004D03D
:102D2000000A000200F58070A06033462A468DA09C
:102D300003F096FDFFF70CFE0028B9D093A003F036
:102D40007FFD032046E70000F8000020466C617319
:102D5000683A204461746120617265612066756C17
:102D60006C000000466C6173683A204661696C65CE
:102D70006420746F20657261736520736563746F7E
:102D800072206265666F72652077726974650000F3
:102D9000466C6173683A204661696C656420746FA3
:102DA000207772697465206461746120686561646C
:102DB00065720000466C6173683A204661696C6513
:102DC0006420746F2072656164206261636B2068A7
:102DD000656164657220666F7220766572696669E6
:102DE000636174696F6E0000466C6173683A2048D5
:102DF000656164657220766572696679202D206D43
:102E0000616769633A203078253034582D3E307838
:102E1000253034582C2049443A20256C752D3E2508
:102E20006C750000466C6173683A204865616465A2
:102E30007220766572696669636174696F6E206677
:102E400061696C6564202D206461746120636F7218
:102E500072757074696F6E206465746563746564FF
:102E600000000000466C6173683A204661696C6539
:102E70006420746F207772697465206461746100E6
:102E8000466C6173683A204661696C656420746FB2
:102E90002072656164206261636B206461746120EB
:102EA000666F7220766572696669636174696F6EB8
:102EB00000000000466C6173683A204661696C65E9
:102EC0006420746F20616C6C6F63617465206D6544
:102ED0006D6F727920666F722076657269666963BC
:102EE0006174696F6E00000014BD0008466C617368
:102EF000683A20446174612076657269666963612D
:102F000074696F6E206661696C6564202D20646150
:102F1000746120636F7272757074696F6E2064657E
:102F20007465637465640000466C6173683A205789
:102F30007269746520766572696669636174696F28
:102F40006E207375636365737366756C202D202521
:102F50006C7520627974657320766572696669653F
:102F600064000000466C6173683A2053746F7265A8
:102F7000642049443A256C752C20256C75206279B3
:102F8000746573204030782530385800466C617382
:102F9000683A204661696C656420746F20736176BD
:102FA0006520696E646578207461626C650000005C
:102FB00010B5FEF7E3FC010004D0BDE8104002A00C
:102FC00003F03EBC10BD0000466C61736820546184
:102FD000736B3A20496E697469616C697A617469CE
:102FE0006F6E206661696C65642077697468206320
:102FF0006F6465202564000070B50D4D42F21076B7
:10300000A869401CB0FBF6F1A86106FB110048B9A5
:1030100005F035FE0446E869201AB04202D3FEF7F7
:10302000D1FEEC61BDE87040012005F01BBE000040
:10303000F80000202DE9FC414FF47A76394F3546EF
:1030400000244FF0050800BF8DF804800022012104
:10305000384600F044FE3223012201A9324801F033
:10306000BDFD002810D001221146384600F037FE81
:1030700021462EA003F0E4FB0A2005F0F3FD641CBA
:103080000A2C39D938A018E0322301226946264893
:1030900001F0FAFC00284FF00102114638460FD02B
:1030A00000F01DFE21463AA003F0CAFB0A2005F0FD
:1030B000D9FD641C0A2C1FD943A003F0C1FB2FE0EB
:1030C00000F00DFE9DF8000003280DD1C5F57A70C3
:1030D000C82809D9464803F007FCFEF763FB00281F
:1030E00018D044A003F0ACFB9DF80000C00715D039
:1030F000012005F0B7FD6D1E002DA5D1314649A078
:1031000003F09EFB54A003F0EFFBFEF74BFB38B13E
:103110005DA0D2E763A003F0A3FB0020BDE8FC8123
:103120000220FBE700100140BC020020466C6173E6
:10313000683A204661696C656420746F2073656E1F
:103140006420737461747573207265676973746544
:103150007220636F6D6D616E642028726574727980
:1031600020256C7529000000466C6173683A205474
:103170006F6F206D616E7920535049207472616EBB
:10318000736D6974206661696C7572657300000007
:10319000466C6173683A204661696C656420746F9F
:1031A0002072656365697665207374617475732038
:1031B000726567697374657220287265747279200C
:1031C000256C752900000000466C6173683A205434
:1031D0006F6F206D616E7920535049207265636571
:1031E000697665206661696C757265730000000020
:1031F00078BC0008466C6173683A20526573657448
:10320000206661696C65642C20636F6E74696E75ED
:10321000696E6720776974682074696D656F75746D
:103220002E2E2E00466C6173683A20576169742017
:10323000666F722072656164792074696D656F755F
:103240007420616674657220256C752061747465E4
:103250006D70747300000000466C6173683A20461C
:103260006F7263696E6720466C6173682072657364
:1032700065742064756520746F2074696D656F7561
:10328000742E2E2E00000000466C6173683A2046B2
:103290006F726365207265736574206661696C6521
:1032A00064000000466C6173683A2052657365746F
:1032B000207375636365737366756C2C20636F6E22
:1032C00074696E75696E672E2E2E000038B5062063
:1032D0000F4C8DF8000000220121204600F0FFFC79
:1032E0006423012269460B4801F078FC00284FF066
:1032F00001021146204606D000F0F1FC06A003F0C2
:103300009FFA032038BD00F0EAFC002038BD000021
:1033100000100140BC020020466C6173683A2046F0
:1033200061696C656420746F2073656E64207772C8
:1033300069746520656E61626C6520636F6D6D6197
:103340006E640000FEB515464FF480720F460446C9
:10335000954205D929463DA003F072FA0820FEBD2A
:10336000474E00220121304600F0B9FC05208DF8BF
:1033700004006423012201A9424801F02FFC30B16E
:1033800001221146304600F0AAFC3FA00EE0322395
:10339000012202A93B4801F077FB00284FF001020F
:1033A0001146304606D000F09AFC41A003F048FADE
:1033B0000220FEBD00F093FCFFF788FF08B147A094
:1033C00032E0FFF737FE08B14BA02DE002208DF868
:1033D0000000200C8DF80100200A8DF802008DF805
:1033E000034000220121304600F079FC64230422CE
:1033F0006946244801F0F2FB30B101221146304603
:1034000000F06DFC47A00FE0AAB24FF47A73394682
:103410001C4801F0E3FB00284FF001021146304642
:1034200006D000F05CFC4AA003F00AFA0320FEBDBF
:1034300000F055FCFFF7FEFD040004D04EA003F0A1
:10344000FFF92046FEBD0020FEBD0000466C617302
:10345000683A2057726974652070616765206C65F1
:103460006E67746820256C75206578636565647384
:1034700020706167652073697A6520256C7500008E
:1034800000100140BC020020466C6173683A20467F
:1034900061696C656420746F207265616420737467
:1034A00061747573207265676973746572000000DA
:1034B000466C6173683A204661696C656420746F7C
:1034C0002072656365697665207374617475732015
:1034D000726567697374657200000000466C617301
:1034E000683A20577269746520656E61626C652068
:1034F0006661696C65640000466C6173683A2057C8
:1035000061697420666F72207265616479206661FA
:10351000696C6564206265666F7265207772697494
:1035200065000000466C6173683A204661696C650D
:103530006420746F2073656E64207061676520700D
:10354000726F6772616D20636F6D6D616E640000F4
:10355000466C6173683A204661696C656420746FDB
:103560002073656E6420706167652070726F67728A
:10357000616D206461746100466C6173683A205724
:1035800061697420666F722072656164792066617A
:10359000696C656420616674657220777269746510
:1035A0000000000010B590F821100022022905D07B
:1035B0000421816380F82020012010BD01680B6880
:1035C00023F00E030B6001680B6823F001030B600E
:1035D00090F84030C46B012101FA03F3636080F876
:1035E000211080F82020104610BD00002DE9F05F6A
:1035F00090F821100024022903D0042181630124C2
:1036000085E001680A6822F00E020A6001680A6813
:1036100022F001020A603F4E3E4FB215DFF8F4C0BF
:10362000DFF8F090DFF8ECA0DFF8E8B0DFF8E4E0D6
:103630000168783F13011502ACF1640CA9F150093F
:10364000AAF13C0AABF1280BAEF1140E4FF480182E
:10365000B14227D9B9420ED0614512D049451DD09B
:10366000514518D0594518D0714501D1424615E051
:10367000294EB14201D1012210E0274E1436B14249
:1036800001D110220AE0244E2836B14206D0224A47
:103690003C32914201D11A4600E02A461E49091FD8
:1036A0000A602BE0B94213D0614517D0494522D0BA
:1036B00051451DD059451DD0714501D142461AE0F2
:1036C000B14202D14FF0807215E0134EB14201D1E8
:1036D000012210E0104E1436B14201D110220AE04E
:1036E0000D4E2836B14206D00B4A3C32914201D1F0
:1036F0001A4600E02A46074980394A60012180F8CD
:103700002110002180F82010416B01B1884720462C
:10371000BDE8F09F80000240080402402DE9F05F00
:10372000C16B0A6801680B68046C4FF0040808FA62
:1037300004F8844D844E854FDFF814C2DFF81492EC
:10374000DFF814A2DFF814B2DFF814E218EA020F6F
:1037500065D05FEA437862D50A68920603D40A68A6
:1037600022F004020A60DFF8F0814FF48062016801
:1037700008F1140813011402414524D9A9420DD0BF
:10378000B1420FD0B9421AD0614515D0494515D084
:10379000514501D1120312E0594501D104220EE036
:1037A000714501D140220AE06D4D1435A94206D081
:1037B0006B4A2832914201D11A4600E022466749FD
:1037C000091F0A6029E0A94213D0B14215D0B942BD
:1037D00020D061451BD049451BD0514502D14FF443
:1037E000800217E0414502D14FF0806212E0594556
:1037F00001D104220EE0714501D140220AE0584D6A
:103800001435A94206D0564A2832914201D11A46AF
:1038100000E022464B4908394A60C16A71E04FF026
:10382000020808FA04F818EA020F70D05FEA8378F9
:103830006DD50A68920606D40A6822F00A020A6068
:10384000012180F82110DFF810814FF40072016827
:1038500008F1140813011402414524D9A9420DD0DE
:10386000B1420FD0B9421AD0614515D0494515D0A3
:10387000514501D1120312E0594501D102220EE057
:10388000714501D120220AE0354D1435A94206D0F8
:10389000334A2832914201D11A4600E022462F498C
:1038A000091F0A6029E0A94213D0B14215D0B942DC
:1038B00020D061451BD049451BD0514502D14FF462
:1038C000001217E0414502D14FF0007212E0594555
:1038D00001D102220EE0714501D120220AE0204DE3
:1038E0001435A94206D01E4A2832914201D11A4607
:1038F00000E02246134908394A60002180F8201070
:10390000816A00291CD0BDE8F05F0847FFE7082561
:10391000A540154214D01A0712D50A6822F00E02EB
:103920000A6090F84020C36B012101FA02F25A604C
:10393000816380F82110002180F82010016BE0E7FE
:10394000BDE8F09F080002401C0002403000024029
:1039500044000240580002406C000240080402404B
:103960001C04024030B560B11A4B026814219A421F
:1039700009D2194B1344B3FBF1F1890001641749D3
:103980000AE0012030BD134B5B421344B3FBF1F15D
:10399000890001640F490839C163022180F82110B0
:1039A000136843F6F0718B43F0E901142143D0E929
:1039B00002452C432143046921434469214384691E
:1039C00021431943116000214163012242770177AD
:1039D000084630BD08040240F8FFFDBF0000024069
:1039E00070B5044690F82000002501280CD0012075
:1039F00084F8200094F821600020012E06D084F87D
:103A000020000225284670BD022070BD022684F8E1
:103A10002160A0632068066826F001060660204643
:103A2000FDF718FBE06A00282068016802D041F029
:103A30000E0106E021F0040101602068016841F0F8
:103A40000A0101602068016841F001010160D9E7C5
:103A500070B5044600F048F90546601C02D00448E1
:103A60000078044400F040F9401BA042FAD370BD36
:103A70004400002030B585B00020009001900290F5
:103A800003901248016800291ED1012101601048ED
:103A9000416941F4807141614069022400F4807001
:103AA00004904FF68070CDE9000403256946039524
:103AB000084800F013F84CF6B370CDE900046946ED
:103AC0000395054800F00AF805B030BD3C00002021
:103AD0000010024000180140001401402DE9F84F89
:103AE000DFF8C8910024A9F1040B23460F2709F140
:103AF000040AABF1040ED1E00125A54006EA050257
:103B0000AA4276D1DFF8A8C14E68A6EB0C0866453C
:103B10002BD00DDC032E34D005DC36B3012E19D0AA
:103B2000022E2FD11BE0112E16D0122E2AD119E011
:103B3000B8F5881F19D006DCB8F5803F15D0B8F568
:103B4000801F1FD111E0B8F5001F0ED0B8F5041F7B
:103B500018D10AE0CB6815E0CB681B1D12E0CB68DA
:103B600008330FE0CB680C330CE08B682BB1012BD2
:103B70004FF0080303D0456104E0042302E005612F
:103B800000E00023FF2A01D8064601E000F1040608
:103B90004FEA840501D9A5F12005D6F8008007FA7F
:103BA00005FC28EA0C0803FA05F548EA0508C6F8FA
:103BB00000804D68ED0070D53E4DAE6946F00106BF
:103BC000AE61AD6924F0030605F0010500953A4D9C
:103BD00006EB050CDCF80850A607360F07FA06F8C6
:103BE00025EA0805DFF8D480404503D14FF00008EE
:103BF00025E052E0DFF8C880404502D14FF00108CF
:103C00001DE0DFF8C080404502D14FF0020816E009
:103C1000DFF8B480404502D14FF003080FE0DFF831
:103C2000AC80404502D14FF0040808E0DFF8A080E6
:103C3000404502D14FF0050801E04FF0060808FAB0
:103C400006F848EA0508CCF808804D68D9F8006005
:103C5000ED024D4601D5164300E096432E604D68B7
:103C6000DAF80060AD02554601D5164300E09643F0
:103C70002E604D68DBF80060AD035D4601D516434C
:103C800000E096432E604D68DEF80060ED03754657
:103C900001D5164300E096432E60641C0A68164660
:103CA000E2407FF429AFBDE8F88F0000080401402E
:103CB0000000111000100240000001400008014007
:103CC000000C0140001001400014014000180140A8
:103CD000001C01408068084000D0012070470AB1F4
:103CE000016170470904FBE70148806870470000E4
:103CF0004400002070B5040025D094F83D00002554
:103D000020B984F83C50204600F07CFA242084F846
:103D10003D002068016821F0010101602068016810
:103D200041F4004101602068016821F40041016014
:103D300000F016FC4D4A6168914201D84C4900E000
:103D40004C49884201D2012070BD4B492368B0FB29
:103D5000F1F15E6826F03F060E435E6063689342B1
:103D600006D94FF4967359434FF47A73B1FBF3F1CC
:103D70002368491C1E6A26F03F06314319626168B8
:103D8000914210D84900401EB0FBF1F2521CC2F320
:103D90000B02042A01D2042022E0B0FBF1F0401C07
:103DA000C0F30B001CE0A268F2B301EBC10303EB0C
:103DB0000116431EB3FBF6F35B1C43F480431B0563
:103DC00049D092B301EBC10202EB0111401EB0FBDE
:103DD000F1F0401CC0F30B0040F4804040F4004080
:103DE0002168CA694CF6FF739A431043C861D4E94D
:103DF000071001432068026822F0C00211430160ED
:103E0000D4E9030101432068826848F2FF339A43F2
:103E100011438160D4E9050108432168CA6822F092
:103E2000FF021043C86001E00EE016E02068016860
:103E300041F0010101602564202084F83D002563E4
:103E400084F83E50002070BD01EB4106431EB3FBD9
:103E5000F6F35B1CB3E70120C2E701EB4101401E12
:103E6000B0FBF1F0401CC0F30B00B7E7A0860100E7
:103E700080841E0000093D0040420F002DE9F84FEC
:103E80001F4690468A460446DDF82890FFF72CFF2F
:103E9000054694F83D0020287FD11923012240498E
:103EA0002046009501F0ECFE002876D194F83C0005
:103EB000012872D0012084F83C0020680168C907FD
:103EC00003D1016841F0010101602068016821F41B
:103ED00000610160212084F83D00102084F83E003C
:103EE00000262664C4F824806785608D20852D48CF
:103EF000E0622B464A465146204601F0C9FD90B982
:103F0000206841698069009036E02A46494620468B
:103F100001F094FF50B1206C042804D1206801689E
:103F200041F4007101600120BDE8F88F606A2168EA
:103F300000780861606A401C6062618D491E61857D
:103F4000218D491E89B2218522685369DB435B07B5
:103F50000BD451B100781061606A401C6062608DC2
:103F6000401E6085208D401E20852A4649462046F9
:103F700001F05AFE0028CED1208D0028C5D154F87A
:103F80003D0B016841F400710160202004F81E0916
:103F9000E67766770020C7E7FFE70220C4E7000066
:103FA000020010000000FFFF2DE9FF4F83B0002545
:103FB000DDE910799A4693460446DDF8488000957D
:103FC000FFF792FE064694F83D0020287CD1192385
:103FD000012288492046009601F052FE0028F5D1C2
:103FE00094F83C0001286FD0012084F83C00206840
:103FF0000168C90703D1016841F00101016020682F
:10400000016821F400610160222084F83D00402015
:1040100084F83E0025646762A4F82A90608D2085AC
:104020007548E062CDE9008653465A462046049919
:1040300001F07CFD00287CD1208DDFF8C091202785
:1040400068B1012814D00228206801681ED041F40C
:10405000806101602068416980690090BCE020684F
:10406000416981690091016841F400710160B3E028
:104070002068016821F48061016072B6206841699E
:1040800081690091016841F400710AE041F4006126
:10409000016072B62068416981690091016821F46C
:1040A0008061016062B697E0032865D801280CD0D2
:1040B000022843464FF000024946204600960BD0A6
:1040C00001F0DEFDA8BB0CE091E0324641462046FF
:1040D00001F07CFE68BB72E001F0D2FD48BB72B615
:1040E00033E02068016821F48061016072B62068C5
:1040F0000069616A0870606A401C6062208D401E21
:104100002085608D401E60853D4846F2A8110068FC
:10411000B0FBF1F0C0EBC00000EB80000090401E4F
:10412000009007D020684069C04340070DD5009833
:10413000F5E727E044F8305F6773A573206940F026
:104140002000206162B625731CE02068016841F4FC
:104150000071016020680069616A0870606A401C33
:104160006062218D491E2185618D491E618562B67F
:1041700021680969017026E032464146204601F077
:1041800025FE18B1012007B0BDE8F08F2068006956
:10419000616A0870606A401C6062208D401E81B2B6
:1041A0002185608D401E608520684269D243520798
:1041B00012D4032903D1016821F4806101602068D1
:1041C0000069616A0870606A401C6062208D401E50
:1041D0002085608D401E6085208D00287FF464AFAF
:1041E00084F83D7084F83E5084F83C50CBE70220C0
:1041F000C9E70000020010000000FFFF04000100FA
:104200005000002010B586B000210091019102916C
:10421000039100680F4988421AD10F4CA06940F001
:104220000800A061A069694600F008000490C02061
:10423000009012200190032003900848FFF74EFCE5
:10424000E06940F40010E061E06900F400100490BF
:1042500006B010BD0054004000100240000C0140A8
:104260000248816802781144816070474400002050
:10427000074810B5016841F010010160032000F00B
:10428000A7F80F2000F006F800F050F8002010BD4D
:104290000020024030B505461F4887B0C16941F093
:1042A0001001C161C06906A900F01000009001A8CA
:1042B00000F036F90498B0B100F052F94000174907
:1042C000174AB0FBF1F11748491E0260416040F205
:1042D000E7320021C0E903218160816100F09EFE88
:1042E000040003D015E000F03BF9E8E70D4800F0CA
:1042F000D7FE04000DD1362000F03CF8102D07D277
:1043000000222946362000F043F80748056000E007
:10431000012407B0204630BD0010024040420F008B
:104320000010004088050020480000200F4808B514
:10433000816941F001018161816901F00101009110
:10434000C16941F08051C161C069002200F0805014
:1043500000900F21901E00F01BF80548416821F0E5
:10436000E06141F08061416008BD00000010024042
:1043700000000140002809DB00F01F0201219140EC
:104380004009800000F1E020C0F8001170470000F3
:10439000F0B40E4B1B680C46C3F30223C3F10705B0
:1043A000042D00D90425191D072901D2002300E09E
:1043B000DB1E012606FA05F1491E214099409E4068
:1043C000761E16403143F0BC03F05ABF0CED00E0FE
:1043D000064900F0070208684FF6FF03184040EA5C
:1043E0000220034A10430860704700000CED00E013
:1043F0000000FA052DE9F0470F46050061D0434E55
:10440000306800F00700B84209D2306820F0070099
:1044100038433060306800F00700B84251D1286856
:104420003B4C810712D5400703D5606840F4E0603B
:1044300060602878000703D5606840F460506060D1
:104440006068A96820F0F000084360602878C00721
:1044500028D06868012810D02168022810D0890768
:1044600000292EDA616821F0030101436160FFF742
:104470003BFC804641F288390DE021688903EFE773
:104480008901EDE7FFF730FCA0EB0801494502D9AF
:104490000320BDE8F0876068696800F00C00B0EBAD
:1044A000810FEFD1306800F00700B8420BD93068B7
:1044B00020F0070038433060306800F00700B84251
:1044C00001D00120E5E72878400705D56068E96854
:1044D00020F4E060084360602878000706D5606833
:1044E000296920F4605040EAC100606000F058F88B
:1044F0006168084AC1F30311515CC840064908606D
:1045000006480068FFF7C6FE0020C2E70020024010
:10451000001002401AB0000850000020480000209F
:104520000F2202600C4A536803F003034360536890
:1045300003F0F0038360536803F4E063C3605268E0
:104540004FF4E06303EAD20202610448006800F01D
:104550000700086070470000001002400020024081
:104560000448054900684968044AC1F30221515CC6
:10457000C840704750000020001002402AB00008D8
:104580000448054900684968044AC1F3C221515CE6
:10459000C840704750000020001002402AB00008B8
:1045A0000E4A51680E4801F00C03042B11D0082B61
:1045B0000FD10C48C1F38343C903C05C0AD55168CD
:1045C000084AC1F34041921E515C054A5043B0FB7A
:1045D000F1F0704704494843704700000010024062
:1045E00000127A000AB0000800093D002DE9F84FDA
:1045F000040070D02078C04DC00749D06868C0F36F
:104600008100012807D06868C0F38100022809D121
:104610006868C00306D52868800339D5606800281B
:10462000E7D035E06068B0F5803F0BD010B1B0F551
:10463000A02F11D0286820F480302860286820F44A
:10464000802002E0286840F480302860606890B1E3
:10465000FFF74AFB06460AE0286840F480202860FD
:10466000F0E700BFFFF740FB801B642873D8286881
:104670008003F7D50CE0FFF737FB064605E000BFE7
:10468000FFF732FB801B6428F0D828688003F7D43A
:1046900020789A4E80074FF001094FF0000839D575
:1046A000686810F00C0F07D06868C0F3810002281A
:1046B00009D16868C00306D42868800714D520692A
:1046C000012808D110E02069B0B1C6F80090FFF7CA
:1046D0000BFB074605E00AE1FFF706FBC01B0228BB
:1046E000C4D828688007F7D52868616920F0F800E9
:1046F00040EAC10028600DE0C6F80080FFF7F4FA38
:10470000074604E0FFF7F0FAC01B022823D8286808
:104710008007F7D4207800072CD57948A169D9B152
:10472000C0F80090FFF7E0FA074604E0FFF7DCFA74
:10473000C01B02280FD8686A8007F7D571484FF46C
:10474000FA510068B0FBF1F0009000BF0098411EE4
:104750000091FAD20EE080E0C0F80080FFF7C4FAC2
:10476000074604E0FFF7C0FAC01B022875D8686A44
:104770008007F7D42078400760D5E8690027C0009B
:1047800008D4E86940F08050E861E869012700F04A
:10479000805000905C480168C90513D401688346C5
:1047A00041F480710160FFF79FFA824606E000BF86
:1047B000FFF79AFAA0EB0A0064284ED8DBF8000055
:1047C000C005F5D5E06801280AD008B1052813D046
:1047D000286A20F001002862286A20F0040002E024
:1047E000286A40F001002862E06841F2883B98B1F5
:1047F000FFF77AFA82460BE0286A40F0040028624C
:10480000EEE700BFFFF770FAA0EB0A0159455AD84E
:10481000286A8007F6D50CE0FFF766FA824605E0C5
:10482000FFF762FAA0EB0A0159454CD8286A8007C5
:10483000F6D41FB1E86920F08050E861E06988B3E0
:104840006968C1F38101022944D00228C6F860805A
:1048500004D0FFF749FA044638E034E0FFF744FAA1
:10486000074604E0FFF740FAC01B02282BD828684F
:104870008001F7D4206AB0F5803F05D16868A1684F
:1048800020F4003008436860D4E9080108436968EF
:1048900021F4741108436860C6F86090FFF724FAA9
:1048A000044606E025E000BFFFF71EFA001B0228C1
:1048B00009D828688001F7D51BE000BFFFF714FA7C
:1048C000001B022802D90320BDE8F88F2868800168
:1048D000F4D40EE00128F7D06868226A00F4803131
:1048E000914204D1616A00F47010884201D0012025
:1048F000EAE70020E8E70000001002400000424222
:1049000080044242500000200070004070B5040056
:1049100009D0606A002540B125616561A56294F8FF
:10492000510040B10CE0012070BD6068B0F5827F9D
:10493000F4D0E561F2E784F85050204600F040F8EA
:10494000022084F851002068016821F040010160D4
:10495000A088218900F4827001F404410843A189F0
:1049600001F400610843217C01F002010843217D2C
:1049700001F001010843218B01F400710843217FFC
:1049800001F03801084394F8201001F08001084339
:10499000218D01F40051084321680860A0690421B9
:1049A00001EA1040216848602068C16921F4006173
:1049B000C1616565012084F85100002070BD0000D0
:1049C000F0B585B000240646009401940294039447
:1049D0000068284988424BD12748816941F48051B9
:1049E0008161816901F480510491816941F0040180
:1049F00081618069214D00F004000490A0200090A6
:104A0000022001900320039069462846FFF766F8CC
:104A10004020CDE90004694628460294FFF75EF87D
:104A2000184D17488027C5E90004C5E902472C61E5
:104A30006C61AC612846EC61FEF794FF08B1FCF7AD
:104A40005CFBF5646E620F4D0D484435143001C5B2
:104A5000102091C50B4845F8104944306C61AC6199
:104A6000EC61FEF77FFF08B1FCF747FBB5646E62AF
:104A700005B0F0BD003001400010024000080140C8
:104A80001C000240140300202DE9F84F044690F862
:104A900051001D4616460F46012838D160684FF078
:104AA0000408B0F5827F01D1A06830B3FFF71CF98C
:104AB0008246002F75D0002E73D094F85000012844
:104AC00025D04FF0010984F8509084F851804FF0C0
:104AD0000008C4F85480A763A687E687C4F830802E
:104AE000A4F83480A4F83680C4F84080C4F8448028
:104AF000A068B0F5004F0CD015E084F85180009309
:104B000013460A46204600F01CF9BDE8F88F022043
:104B1000FBE72068016821F040010160206801681E
:104B200021F48041016020680168490603D40168CE
:104B300041F040010160E068C0B134E02068816864
:104B4000C90709D0007BA16B0870A06B401CA06353
:104B5000E08F401EE08709E0FFF7C6F8A0EB0A00EF
:104B6000A84202D3681C01D032E085B3E08F002850
:104B7000E4D11BE020688168C90709D0C068A16B37
:104B80000880A06B801CA063E08F401EE0870AE0D5
:104B9000FFF7AAF8A0EB0A00A84203D3681C02D0D2
:104BA00016E012E09DB1E08F0028E3D1524629467D
:104BB000204602F0C1FD08B12020606584F85190C4
:104BC00084F85080606D00289FD001209DE7FFE7AA
:104BD00084F8519084F85080032096E72DE9F84F2F
:104BE000984616468A460446FFF77EF8814694F8B2
:104BF000510001281ED1BAF1000F73D0002E71D0E0
:104C000094F85000012815D0012784F85070032033
:104C100084F8510000256565C4F830A0A686E686B4
:104C2000A563A587E58765642564A068B0F5004F96
:104C300003D00CE00220BDE8F88F2068016821F065
:104C4000400101602068016841F4804101602068F2
:104C50000168490603D4016841F040010160E06841
:104C6000B0F5006F606803D048B3012E27D047E04D
:104C700008B1012E1FD1206B21680088C86006E0B2
:104C800020688168890709D5216B0988C160206B7C
:104C9000801C2063E08E401EE0860CE0FFF724F8C5
:104CA000A0EB0901414503D3B8F1FF3F03D035E044
:104CB000B8F1000F32D0E08E0028E1D123E0206B64
:104CC00021680078087306E02068816889070AD5A2
:104CD000216B09780173206B401C2063E08E401E1D
:104CE000E0860DE02BE0FEF7FFFFA0EB0901414558
:104CF00003D3B8F1FF3F03D010E0B8F1000F0DD09F
:104D0000E08E0028E0D14A464146204602F042FDAE
:104D100008B120206065A06830B109E084F85170C6
:104D200084F85050032086E72068C16880680090AE
:104D300084F8517004F8505F60680028F3D00120B7
:104D400079E72DE9FF4F81B01D46934604464FF0A9
:104D500001090E9EFEF7C8FF074694F851006168EE
:104D6000012806D0B1F5827F3CD1A168C9BB0428D7
:104D700038D10298002871D0BBF1000FFBD0002D74
:104D8000F9D094F8500001282CD04FF0010A84F893
:104D900050A094F85100042802D0052084F8510056
:104DA0004FF00008C4F85480C4F838B0E587A587F0
:104DB00002992163E586A586C4F84080C4F8448042
:104DC00020680168490603D4016841F04001016090
:104DD000E068B0F5006F606808D0F0B3012D49D0ED
:104DE00081E0FFE7022005B0BDE8F08F08B1012D9A
:104DF00039D1206B21680088C860206B801C20633B
:104E0000E08E401EE0862EE02068816889070FD57D
:104E1000E18E69B1B9F1010F0AD1216B0988C16036
:104E2000206B801C2063E08E401EE0864FF000095E
:104E300020688168C9070CD0E18F51B1C068A16BAF
:104E40000880A06B801CA063E08F401EE0874FF0BD
:104E50000109FEF749FFC01B01E00BE067E0B0422B
:104E600001D3701C50D1E08E0028CDD1E08F0028F6
:104E7000CAD13EE0206B216800780873206B401C8B
:104E80002063E08E401EE0862DE02068816889075F
:104E90000FD5E18E69B1B9F1010F0AD1216B097803
:104EA0000173206B401C2063E08E401EE0864FF0B3
:104EB000000920688168C9070CD0E18F51B1C06832
:104EC000A16B0870A06B401CA063E08F401EE087C0
:104ED0004FF00109FEF708FFC01BB04202D3701C5F
:104EE00001D011E086B1E08E0028CED1E08F0028FD
:104EF000CBD13A463146204602F04CFC50B120203E
:104F0000606584F8508012E084F851A084F85080E5
:104F1000032068E7A06818B92068C168806800901D
:104F200084F851A084F85080606D0028F1D00120F1
:104F300059E770B515460E46040007D0A069B0F5D4
:104F4000807F03D094F8410010B107E0012070BDCC
:104F5000002084F84000204600F01DF804F108010C
:104F60002068FCF7F3FA3146A2682068FCF722FBC0
:104F7000D4E901022946236BFCF7CAFAA16820682C
:104F800050F8212042F0010240F82120012084F84D
:104F90004100002070BDFEF76DBD704770470000F6
:104FA00070B590F83C20012A2CD0012480F83C40B8
:104FB000022280F83D2003685A689D6822F070063E
:104FC0000A6832435A60104B02689A420ED00F4B67
:104FD0009A420BD0B2F1804F08D00D4B9A4205D0C7
:104FE0000C4B9A4202D00C4B9A4204D1496825F0EE
:104FF00080031943916080F83D40002180F83C1007
:10500000084670BD022070BD002C014000340140F4
:105010000004004000080040000C004010B50400EF
:1050200003D094F83D0010B107E0012010BD00202E
:1050300084F83C00204600F01FF8022084F83D0070
:10504000211D206802F026FD012084F8460084F826
:105050003E0084F83F0084F8400084F8410084F862
:10506000420084F8430084F8440084F8450084F842
:105070003D00002010BD000008B5006806498842C8
:1050800008D10648C16941F00201C161C06900F060
:105090000200009008BD0000000400400010024023
:1050A00090F83D10012901D001207047022180F8BD
:1050B0003D100168CA6842F00102CA6000680E49EA
:1050C00088420ED00D4988420BD0B0F1804F08D0F5
:1050D0000B49884205D00B49884202D00A498842D0
:1050E00004D1816801F00701062903D0016841F06D
:1050F0000101016000207047002C01400034014094
:105100000004004000080040000C004070B5044658
:1051100090F83C000025012817D0012684F83C6057
:10512000022084F83D002068826822F0770222F491
:105130007F4282600868502838D00DDC20284FD08C
:1051400005DC90B3102811D14AE0022070BD302850
:1051500046D040280AD13BE060282FD070280DD0DF
:10516000B0F5805F03D0B0F5005F12D0012584F860
:105170003D60002084F83C00284670BDCB68D1E932
:105180000121206802F0D4FC2068816841F0770199
:1051900009E0CB68D1E90121206802F0C9FC206850
:1051A000816841F480418160E1E719E0CA6849689B
:1051B000206802F0CFFC5021206806E0CA684968E8
:1051C000206802F0D8FC6021206802F0BBFCCEE72A
:1051D000CA684968206802F0BDFC40212068F4E7F5
:1051E000226801461046F0E770472DE9F041044679
:1051F0000068C66805694FF00007A90713D5B10715
:1052000011D5F91E0161012020772068806980078F
:10521000204602D0FFF7E8FF04E000F07EF82046C9
:1052200000F07CF82777680716D5700714D5216839
:105230006FF004000861022020772068806910F474
:10524000407F204602D0FFF7CFFF04E000F065F872
:10525000204600F063F82777280715D5300713D5C7
:1052600021686FF008000861042020772068C06979
:105270008007204602D0FFF7B7FF04E000F04DF8AA
:10528000204600F04BF82777E80616D5F00614D52F
:1052900021686FF010000861082020772068C0693D
:1052A00010F4407F204602D0FFF79EFF04E000F09C
:1052B00034F8204600F032F82777E80708D0F007E6
:1052C00006D021686FF001000861204600F028F840
:1052D000280608D5300606D521686FF080000861E1
:1052E0002046FFF75AFE680608D5700606D52168E5
:1052F0006FF040000861204600F01CF8A8060AD5AF
:10530000B00608D521686FF0200008612046BDE88E
:10531000F041FFF743BEBDE8F081704770470000E1
:1053200000680349884201D1FEF79ABF7047000028
:1053300000100040704738B5044690F8420020281D
:1053400001D0022038BD51B14AB1012020630020B4
:105350006063204602F0F8FD216B012901D0012095
:1053600038BD21680A684968009121680C3151E80C
:10537000002F42F0100241E80023002BF5D138BD88
:1053800030B50C46054600681C49C3B0884206D1BA
:1053900043B02146BDE8304019A001F041BA1F4991
:1053A000884229D121461EA001F03AFAADF8004109
:1053B000FEF79AFC4190224620496846FAF734FFEE
:1053C0001F4800231A466946006803F0EBFC18B139
:1053D0001CA001F035FA03E0214621A001F020FADB
:1053E0004FF4807215492548FFF7A5FFE86B006868
:1053F000016821F00401016043B030BD0038014074
:105400005541525431205278204576656E743A20C9
:105410002564206279746573000000000044004038
:10542000424C452055415254205278204576656EB5
:10543000743A20256420627974657300200100208D
:1054400034000020424C45207175657565206675F5
:105450006C6C2C2064617461206C6F7374000000AC
:10546000424C452064617461207175657565643ACC
:105470002025642062797465730000002C040020EC
:1054800010B500680649884209D106A001F0D8F994
:105490000A4903204870BDE8104002F085BB10BDEA
:1054A000004400405541525432206572726F7220A0
:1054B0006F6363757272656400000000D60000209F
:1054C000F8B5016804460868CA684B6910F00F0F08
:1054D0004FF0000559D003F0010602F490773743EE
:1054E00065D0C10705D0D10503D5616C41F001013C
:1054F0006164410705D5D90703D0616C41F0020111
:105500006164810705D5D90703D0616C41F00401BE
:105510006164010707D502F02001314303D0616CBB
:1055200041F008016164616C00293AD0800604D51D
:10553000900602D5204602F049FC20684069616C63
:10554000C0F38010090700D460B3204602F009FCC4
:1055500020684069400621D52068143050E8001FBB
:1055600021F0400140E80012002AF5D1E06BA8B11B
:105570006D494163E06BFEF739F8002811D0E06B0C
:10558000416B01B0BDE8F040084783060FD5930694
:105590000DD52046BDE8F84002F018BC2046FFF7C4
:1055A0006FFFF8BD2046FFF76BFF6564F8BD266B03
:1055B0002023012E7CD1C6067AD5D60678D5086878
:1055C0004868009048694FF00206400640D5E16BFC
:1055D000086840680004000CE8D0A28D8242E5D93A
:1055E000E085886920282DD020680C3050E8001F05
:1055F00021F4807140E80012002AF5D120681430AF
:1056000050E8001F21F0010140E80012002AF5D106
:105610002068143050E8001F21F0400140E80012DB
:10562000002AF5D184F84230256320680C3050E818
:10563000001F21F0100140E80012002AF5D1E06BB4
:10564000FDF7B0FF6663A08DE18D401A81B22AE0BC
:10565000A08DE18D401A81B2E08D0028A6D00029EE
:10566000A4D022680C3252E8000F20F4907042E877
:105670000007002FF5D12068143050E8002F22F0E9
:10568000010240E80027002FF5D184F8423025635D
:1056900020680C3050E8002F22F0100240E8002370
:1056A000002BF5D166632046FFF76AFEF8BDFFE7E1
:1056B00005062BD5150629D594F841002128F5D1EA
:1056C000A068B0F5805F01D12069B0B1206A411CAB
:1056D0002162216800784860E08C401E0004000CC4
:1056E000E084E3D12068C16821F08001C1602068B6
:1056F000C16841F04001C160D8E7206A0088C0F36A
:1057000008004860206A801C2062E5E74006CDD58D
:105710005006CBD5CA68204622F04002CA6084F801
:10572000413000F094F9C1E7657C000870B50400D1
:1057300004D094F84100002510B106E0012070BDAE
:1057400084F84050204600F023F8242084F84100DB
:105750002068C16821F40051C160204602F098FB26
:105760002068016921F4904101612068416921F0BC
:105770002A0141612068C16841F40051C16065643B
:10578000202084F8410084F842006563002070BD49
:105790002DE9F04385B00024009401940294039411
:1057A0000646DFF880C103685F48022103225F4D8F
:1057B00080274FF480684FF01009634537D1836923
:1057C00043F480438361836903F4804304938369D2
:1057D00043F0040383618069039200F004000490A5
:1057E0000802CDE9000169462846FEF777F9CDE9C0
:1057F0000084694628460294FEF770F94D4D4C48E6
:10580000C5E902472C616C61AC61EC61C5E9000936
:105810002846FEF7A7F808B1FBF76FFCB563002236
:10582000052125206E62FEF7B3FD252051E0DFF84B
:1058300008C1634552D1C36943F40033C361C369EE
:1058400003F400330493836943F0040383618069A4
:10585000039200F0040004900420CDE900016946A1
:105860002846FEF73BF90820CDE9000469462846A2
:105870000294FEF733F92F4D2D4844352830C5E901
:105880000004C5E902472C616C61AC612846EC61FB
:10589000FEF768F808B1FBF730FCF5636E62254D42
:1058A000234888353C30C5E902472C616C61AC6106
:1058B000EC61C5E900092846FEF754F808B1FBF78A
:1058C0001CFCB5630022052126206E62FEF760FDF8
:1058D0002620FEF74FFD05B0BDE8F083174DAB4223
:1058E000F9D1C36943F48023C361C36903F48023FE
:1058F0000493836943F0080383618069CDE90081E3
:1059000000F00800CDE903200D4D69462846FEF75A
:10591000E5F8E814CDE90004694628460294FEF74C
:10592000DDF8D8E7003801400010024000080140CF
:1059300044000240BC0400200044004000480040F5
:10594000000C014090F84230202B01D0022070471B
:1059500021B11AB10023036302F0F6BA01207047A7
:1059600090F84230202B01D00220704721B11AB1AB
:105970000023036302F030BB01207047074A01682F
:10598000914204D1012206490648FFF7E9BF064AC1
:10599000914201D1FBF7F6B8704700000038014092
:1059A000DA000020E40300200044004070472DE9A5
:1059B000F843044690F84100984616460D462028C4
:1059C00002D00220BDE8F88385B17EB1002060647A
:1059D000212084F84100FEF787F9A6848146E684F9
:1059E000A0682027B0F5805F02D003E00120E9E73E
:1059F000206910B12E4600250EE000260CE0802123
:105A0000204602F004FBA8B9C6B116F8010B2168C4
:105A10004860E08C401EE084E08C4B464FF0000272
:105A2000CDF800800028EAD14FF04001204602F076
:105A3000EEFA40B184F841700320C3E735F8020B59
:105A4000C0F30800E3E784F841700020BAE770472C
:105A5000FEE700000148806970470000A86400204C
:105A600001684A69D24352050FD46FF480624A61DB
:105A7000002140F8301F202242738173026942F0F6
:105A8000040202610173012070470020704700008A
:105A9000F8B50446C06A1E460D461746082807D0CA
:105AA000012805D010F5803F02D0206B122804D1C8
:105AB0002068016841F480710160134600224FF0B4
:105AC00001112046009600F0DBF840B12068006824
:105AD000C00502D54FF4007020640320F8BD206992
