:020000040800F2
:10000000F0660020E1010008C7360008FD25000861
:10001000C536000891080008D53F00080000000020
:10002000000000000000000000000000490100087E
:10003000E3080008000000008D010008C139000835
:10004000FB010008FB010008FB010008FB010008A0
:10005000FB010008FB010008FB010008FB01000890
:10006000FB010008FB010008FB010008FB01000880
:10007000FB010008FB01000895080008FB010008CF
:10008000A1080008AD080008FB010008FB010008FA
:10009000FB010008FB010008FB010008FB01000850
:1000A000FB010008FB010008FB010008FB01000840
:1000B000FB010008FB010008FB010008FB01000830
:1000C000FB010008FB010008FB010008FB01000820
:1000D000FB010008BD3F0008C93F0008FB01000804
:1000E000FB010008FB010008FB010008FB01000800
:1000F000FB010008FB010008FB010008FB010008F0
:10010000FB010008FB010008FB010008FB010008DF
:10011000FB010008FB0100083D3A0008FB01000854
:10012000FB010008FB010008FB010008FB010008BF
:10013000DFF810D000F06CFB00480047E3490008EE
:10014000AFF30080F0660020224B19680868B0E821
:10015000F00F80F30988BFF36F8F4FF0000080F33A
:1001600011884EF00D0E7047000000000648006830
:10017000006880F3088862B661B6BFF34F8FBFF3A3
:100180006F8F00DF00BF00BF08ED00E0EFF30980D4
:10019000BFF36F8F0F4B1A6820E9F00F106008B59E
:1001A0004FF0500080F31188BFF34F8FBFF36F8F74
:1001B00005F058FC4FF0000080F31188BDE80840BE
:1001C00019680868B0E8F00F80F30988BFF36F8FF3
:1001D000704700BF38000020EFF305807047000033
:1001E0000648804706480047FEE7FEE7FEE7FEE7D1
:1001F000FEE7FEE7FEE7FEE7FEE7FEE7393A000826
:1002000031010008202A04DB203A21FA02F0002103
:10021000704721FA02F3D040C2F120029140084316
:100220001946704740EA01039B0703D009E008C95B
:10023000121F08C0042AFAD203E011F8013B00F8AB
:10024000013B521EF9D27047D2B201E000F8012BF7
:10025000491EFBD270470022F6E710B513460A4646
:1002600004461946FFF7F0FF204610BD10B50446BE
:1002700004E00B7800F8013B03B1491C521EF8D290
:10028000204610BD421C10F8011B0029FBD1801A2A
:1002900070472DE9FE4F804681EA0300C00F0C46EF
:1002A000009021F0004123F00045B8EB0200A94185
:1002B00005D24046214690461C460B46024623F096
:1002C0000040104347D0270DC7F30A00C3F30A517B
:1002D0000290401A019040286BDAC3F3130040F4F7
:1002E000801B0098924620B10023D2EB030A63EBF7
:1002F0000B0B01985946C0F14002504600F06BF9D3
:1003000006460D4650465946019A00F073F910EB27
:1003100008006141002487EA115284EAE7731A4316
:1003200040D0009A62B3019A012A4FEA075215DCC5
:10033000001B61EB02014FF0004202EA0752CDE9D7
:100340000042001C41F5801132462B4600F073F943
:1003500003B0BDE8F08F40462146F9E7001B61EB92
:100360000201001C41F5801300185B412018A2F522
:10037000001747EB030140EAD570B6196D4111E053
:100380006D084FEA360645EAC0754FEA0752001B72
:1003900061EB0201001C41F5801149084FEA300071
:1003A0000019514132462B4603B0BDE8F04F00F032
:1003B00033B90098012240000023D0EB020263EB26
:1003C000E073009821464FEAE074B8EB000061EB5F
:1003D0000401E9E783F000435BE781F0004158E75F
:1003E0002DE9FE4F81EA030404F0004421F00041AE
:1003F00000944FF0000B23F0004350EA01045ED05C
:1004000052EA03045BD0C3F30A54C1F30A552C44E7
:10041000A4F2F3340194A0FB0254C1F3130141F49C
:100420008011C3F3130343F4801301FB024400FB68
:10043000034E840A970A44EA815447EA8357A4FB8F
:10044000076802958D0A05FB07854FEA932C04FB8C
:100450000C542705029D4FEA065847EA1637B5EBBC
:1004600008056EEB070C870E920E47EA811742EAE9
:100470008312A7FB0201B6EB0B0164EB00042B0D0A
:1004800043EA0C335E1844EB1C50DA465146E7FB56
:100490000201C5F313044FEA0B3343EA14534FEA46
:1004A0000432019C43EA0603A4F10C040294009C6C
:1004B000CDE900B400F0BFF803B0BDE8F08F002034
:1004C0000146F9E70EB5C10F80EAE0700844CA079B
:1004D000002140F233438DE80E000A460B4600F03F
:1004E000AAF803B000BDC1F30A5210B5C1F313015D
:1004F00040F2FF3341F480119A4201DA002010BD2E
:1005000040F233439A42A2F2334203DC5242FFF7F5
:1005100079FE10BD904010BD30B5041E71F100048D
:1005200004DB4FF00044404264EB0101141E73F100
:10053000000405DB1C464FF00043524263EB04030A
:100540008B4208BF824230BD30B50B4601460020C9
:100550002022012409E021FA02F59D4205D303FA85
:1005600002F5491B04FA02F52844151EA2F1010206
:10057000F1DC30BD2DE9F05F0546002092469B4638
:1005800088460646814640241BE0284641464746A9
:100590002246FFF737FE53465A46C01A914110D300
:1005A00011461846224600F016F82D1A67EB01088E
:1005B0004F4622460120002100F00DF817EB0009FC
:1005C0004E41201EA4F10104DFDC484631462A4694
:1005D0004346BDE8F09F202A04DB203A00FA02F1EE
:1005E000002070479140C2F1200320FA03F3194321
:1005F00090407047202A06DBCB17203A41FA02F0E0
:1006000043EAE07306E041FA02F3D040C2F120026F
:10061000914008431946704710B5141E73F1000449
:1006200008DA401C41F1000192185B411A4301D1E4
:1006300020F0010010BD2DE9F04D92469B4611B10E
:10064000B1FA81F202E0B0FA80F220329046FFF770
:10065000C2FF04460F4640EA0A0041EA0B01534636
:100660005A46084313D0114653EA010019D0C8F185
:1006700040025046FFF7C6FD05460E465046594615
:100680004246FFF7A8FF084305D0012004E02046BA
:100690003946BDE8F08D0020054346EAE0762C435C
:1006A00037430A986305E40AA0EB08000022FD0A1C
:1006B00044EA47540A3002D500200146E9E7010523
:1006C00010196941DDE9084500196941BDE8F04D9F
:1006D000A2E72DE9F04D81EA030404F0004B21F07C
:1006E000004514464FF0000A23F0004150EA05028D
:1006F00020D054EA01021DD0C5F30A570246C5F3C3
:100700001303C1F31300C1F30A5640F4801543F4F8
:100710008013A7EB0608101BD64608F2FD3873EBD2
:10072000050002D308F1010801E092185B41B8F11D
:10073000000F03DA00200146BDE8F08D00204FF4E1
:100740008011064684460EE0171B73EB050705D3A0
:10075000121B63EB050306434CEA010C49084FEA00
:10076000300092185B4150EA0107EDD152EA0300D4
:1007700012D082EA040083EA0501084305D0101B69
:10078000AB4106D20122002306E000224FF00043D5
:1007900002E06FF0010253101AEB06004CEB085117
:1007A00010EB0A0041EB0B01BDE8F04DFFF734BF41
:1007B000C1F30A52C1F3130140F2FF3341F4801137
:1007C0009A4202DA00200146704740F233439A42CF
:1007D000A2F2334202DC5242FFF714BDFFF7FBBE28
:1007E00030B5041E71F1000404DB4FF000444042B8
:1007F00064EB0101141E73F1000405DB1C464FF08D
:100800000043524263EB0403994208BF904230BD5B
:10081000064C074D06E0E06840F0010394E807004D
:1008200098471034AC42F6D3FFF786FCA46F00085B
:10083000C46F000810B500680A49884211D10A48FF
:10084000C06B00684068094CC0F5807060806188AA
:1008500007A002F03BFD01202070BDE8104003F02E
:1008600041B910BD00440040C0020020BA00002081
:10087000424C45205541525420527820436F6D70B0
:100880006C6574653A202564206279746573000094
:10089000FEE70000014800F053B900000803002003
:1008A000014800F04DB900004C030020014800F061
:1008B00047B900009003002030B590F84050012463
:1008C000AC40C56B6C60046863604368102B0368C0
:1008D00003D099600068C26030BD9A600068C16052
:1008E00030BD704772B6FEE730B5B3F5804F05D026
:1008F0006FF0704140F82210002030BD8C690B6809
:100900008D6823434C688989240144EA05242343E4
:1009100043EA014150F82230014C23401943E9E7F2
:100920000000F0CF10B50A6850F8223023F0010320
:1009300040F822308C68082C23D000234A682243D8
:10094000CC681C430B6922431A434B690E4C1A4373
:10095000CB691A430B6A1A434B6A1A438B6A1A43D0
:10096000CB6A1A430B6B1A438B6913434A6B0968B2
:100970001A4350F82130A343134340F8213000209C
:1009800010BD4023DAE700007FFF0F0030B5D1E94A
:10099000003443EA04138C688D89240244EA054438
:1009A00023430C8A074D00EB820005EB04542343DC
:1009B0000C7D6D0105EB0464896923430B4343609F
:1009C000002030BD0000F0FF10B590F8211000228B
:1009D000022905D00421816380F82020012010BD68
:1009E00001680B6823F00E030B6001680B6823F0AD
:1009F00001030B6090F84030C46B012101FA03F34E
:100A0000636080F8211080F82020104610BD00009F
:100A10002DE9F05F90F821100024022903D0042171
:100A20008163012485E001680A6822F00E020A60F1
:100A300001680A6822F001020A603F4E3E4FB2157B
:100A4000DFF8F4C0DFF8F090DFF8ECA0DFF8E8B0F2
:100A5000DFF8E4E00168783F13011502ACF1640CA3
:100A6000A9F15009AAF13C0AABF1280BAEF1140E22
:100A70004FF48018B14227D9B9420ED0614512D047
:100A800049451DD0514518D0594518D0714501D15F
:100A9000424615E0294EB14201D1012210E0274E15
:100AA0001436B14201D110220AE0244E2836B14258
:100AB00006D0224A3C32914201D11A4600E02A4631
:100AC0001E49091F0A602BE0B94213D0614517D0B7
:100AD000494522D051451DD059451DD0714501D100
:100AE00042461AE0B14202D14FF0807215E0134E37
:100AF000B14201D1012210E0104E1436B14201D1B1
:100B000010220AE00D4E2836B14206D00B4A3C3284
:100B1000914201D11A4600E02A46074980394A60CD
:100B2000012180F82110002180F82010416B01B1D3
:100B300088472046BDE8F09F80000240080402403C
:100B40002DE9F05FC16B0A6801680B68046C4FF017
:100B5000040808FA04F8844D844E854FDFF814C267
:100B6000DFF81492DFF814A2DFF814B2DFF814E211
:100B700018EA020F65D05FEA437862D50A689206E8
:100B800003D40A6822F004020A60DFF8F0814FF40F
:100B90008062016808F1140813011402414524D948
:100BA000A9420DD0B1420FD0B9421AD0614515D03B
:100BB000494515D0514501D1120312E0594501D1E3
:100BC00004220EE0714501D140220AE06D4D14353A
:100BD000A94206D06B4A2832914201D11A4600E060
:100BE00022466749091F0A6029E0A94213D0B14291
:100BF00015D0B94220D061451BD049451BD0514585
:100C000002D14FF4800217E0414502D14FF08062DB
:100C100012E0594501D104220EE0714501D1402274
:100C20000AE0584D1435A94206D0564A283291425E
:100C300001D11A4600E022464B4908394A60C16A90
:100C400071E04FF0020808FA04F818EA020F70D0B9
:100C50005FEA83786DD50A68920606D40A6822F0A6
:100C60000A020A60012180F82110DFF810814FF498
:100C70000072016808F1140813011402414524D9D7
:100C8000A9420DD0B1420FD0B9421AD0614515D05A
:100C9000494515D0514501D1120312E0594501D102
:100CA00002220EE0714501D120220AE0354D1435B3
:100CB000A94206D0334A2832914201D11A4600E0B7
:100CC00022462F49091F0A6029E0A94213D0B142E8
:100CD00015D0B94220D061451BD049451BD05145A4
:100CE00002D14FF4001217E0414502D14FF00072DB
:100CF00012E0594501D102220EE0714501D12022B6
:100D00000AE0204D1435A94206D01E4A28329142ED
:100D100001D11A4600E02246134908394A600021F1
:100D200080F82010816A00291CD0BDE8F05F0847D8
:100D3000FFE70825A540154214D01A0712D50A6806
:100D400022F00E020A6090F84020C36B012101FAE4
:100D500002F25A60816380F82110002180F820108F
:100D6000016BE0E7BDE8F09F080002401C00024074
:100D70003000024044000240580002406C00024033
:100D8000080402401C04024030B560B11A4B0268EE
:100D900014219A4209D2194B1344B3FBF1F1890093
:100DA000016417490AE0012030BD134B5B42134434
:100DB000B3FBF1F1890001640F490839C1630221D5
:100DC00080F82110136843F6F0718B43F0E90114A9
:100DD0002143D0E902452C4321430469214344695E
:100DE0002143846921431943116000214163012299
:100DF00042770177084630BD08040240F8FFFDBF86
:100E00000000024070B5044690F82000002501283B
:100E10000CD0012084F8200094F821600020012EDD
:100E200006D084F820000225284670BD022070BD3F
:100E3000022684F82160A0632068066826F0010677
:100E400006602046FFF738FDE06A00282068016848
:100E500002D041F00E0106E021F00401016020689B
:100E6000016841F00A0101602068016841F0010158
:100E70000160D9E770B5044600F044F90546601CEE
:100E800002D004480078044400F03CF9401BA04222
:100E9000FAD370BD2800002030B585B00020009046
:100EA0000190029003901248016800291ED101218F
:100EB00001601048416941F4807141614069022438
:100EC00000F4807004904FF68070CDE90004032593
:100ED00069460395084800F013F84CF6B370CDE965
:100EE000000469460395054800F00AF805B030BDD6
:100EF00020000020001002400018014000140140B2
:100F00002DE9F84FDFF8C8910024A9F1040B23461E
:100F10000F2709F1040AABF1040ED1E00125A54029
:100F200006EA0502AA4276D1DFF8A8C14E68A6EB10
:100F30000C0866452BD00DDC032E34D005DC36B30F
:100F4000012E19D0022E2FD11BE0112E16D0122EF9
:100F50002AD119E0B8F5881F19D006DCB8F5803F12
:100F600015D0B8F5801F1FD111E0B8F5001F0ED0C5
:100F7000B8F5041F18D10AE0CB6815E0CB681B1D3B
:100F800012E0CB6808330FE0CB680C330CE08B68C1
:100F90002BB1012B4FF0080303D0456104E004237B
:100FA00002E0056100E00023FF2A01D8064601E0C7
:100FB00000F104064FEA840501D9A5F12005D6F811
:100FC000008007FA05FC28EA0C0803FA05F548EA50
:100FD0000508C6F800804D68ED0070D53E4DAE693D
:100FE00046F00106AE61AD6924F0030605F0010587
:100FF00000953A4D06EB050CDCF80850A607360FB5
:1010000007FA06F825EA0805DFF8D480404503D141
:101010004FF0000825E052E0DFF8C880404502D1DB
:101020004FF001081DE0DFF8C080404502D14FF0CD
:10103000020816E0DFF8B480404502D14FF0030803
:101040000FE0DFF8AC80404502D14FF0040808E023
:10105000DFF8A080404502D14FF0050801E04FF0D5
:10106000060808FA06F848EA0508CCF808804D6832
:10107000D9F80060ED024D4601D5164300E09643D5
:101080002E604D68DAF80060AD02554601D5164372
:1010900000E096432E604D68DBF80060AD035D46CE
:1010A00001D5164300E096432E604D68DEF80060DF
:1010B000ED03754601D5164300E096432E60641C8F
:1010C0000A681646E2407FF429AFBDE8F88F0000B9
:1010D000080401400000111000100240000001400F
:1010E00000080140000C01400010014000140140C4
:1010F00000180140001C01400AB101617047090459
:10110000FBE70000014880687047000028000020CD
:1011100070B5040025D094F83D00002520B984F86E
:101120003C50204600F07CFA242084F83D002068E2
:10113000016821F0010101602068016841F400416B
:1011400001602068016821F40041016000F018FC92
:101150004D4A6168914201D84C4900E04C498842AF
:1011600001D2012070BD4B492368B0FBF1F15E68EC
:1011700026F03F060E435E606368934206D94FF443
:10118000967359434FF47A73B1FBF3F12368491C0A
:101190001E6A26F03F06314319626168914210D8F9
:1011A0004900401EB0FBF1F2521CC2F30B02042AAC
:1011B00001D2042022E0B0FBF1F0401CC0F30B0090
:1011C0001CE0A268F2B301EBC10303EB0116431E5E
:1011D000B3FBF6F35B1C43F480431B0549D092B389
:1011E00001EBC10202EB0111401EB0FBF1F0401C0B
:1011F000C0F30B0040F4804040F400402168CA690D
:101200004CF6FF739A431043C861D4E907100143B9
:101210002068026822F0C00211430160D4E9030192
:1012200001432068826848F2FF339A43114381608A
:10123000D4E9050108432168CA6822F0FF0210437F
:10124000C86001E00EE016E02068016841F001018D
:1012500001602564202084F83D00256384F83E5019
:10126000002070BD01EB4106431EB3FBF6F35B1C8F
:10127000B3E70120C2E701EB4101401EB0FBF1F0F2
:10128000401CC0F30B00B7E7A086010080841E005D
:1012900000093D0040420F002DE9F84F1F469046DF
:1012A0008A460446DDF82890FFF72CFF054694F89F
:1012B0003D0020287FD11923012240492046009576
:1012C00001F0ACFA002876D194F83C00012872D0E5
:1012D000012084F83C0020680168C90703D1016837
:1012E00041F0010101602068016821F400610160A2
:1012F000212084F83D00102084F83E00002626645A
:10130000C4F824806785608D20852D48E0622B46D7
:101310004A465146204601F089F990B92068416952
:101320008069009036E02A464946204601F054FB89
:1013300050B1206C042804D12068016841F4007188
:1013400001600120BDE8F88F606A216800780861BB
:10135000606A401C6062618D491E6185218D491E55
:1013600089B2218522685369DB435B070BD451B1F5
:1013700000781061606A401C6062608D401E60856C
:10138000208D401E20852A464946204601F01AFA43
:101390000028CED1208D0028C5D154F83D0B01681E
:1013A00041F400710160202004F81E09E677667799
:1013B0000020C7E7FFE70220C4E70000020010009A
:1013C0000000FFFF2DE9FF4F83B00025DDE9107914
:1013D0009A4693460446DDF848800095FFF792FE52
:1013E000064694F83D0020287CD119230122884923
:1013F0002046009601F012FA0028F5D194F83C003E
:1014000001286FD0012084F83C0020680168C907DA
:1014100003D1016841F0010101602068016821F4F5
:1014200000610160222084F83D00402084F83E00E5
:1014300025646762A4F82A90608D20857548E06273
:10144000CDE9008653465A462046049901F03CF9FE
:1014500000287CD1208DDFF8C091202768B10128B9
:1014600014D00228206801681ED041F48061016018
:101470002068416980690090BCE020684169816909
:101480000091016841F400710160B3E020680168D7
:1014900021F48061016072B6206841698169009120
:1014A000016841F400710AE041F40061016072B624
:1014B0002068416981690091016821F480610160BF
:1014C00062B697E0032865D801280CD0022843466D
:1014D0004FF000024946204600960BD001F09EF9DD
:1014E000A8BB0CE091E032464146204601F03CFAB0
:1014F00068BB72E001F092F948BB72B633E0206835
:10150000016821F48061016072B620680069616A37
:101510000870606A401C6062208D401E2085608DCE
:10152000401E60853D4846F2A8110068B0FBF1F00E
:10153000C0EBC00000EB80000090401E009007D080
:1015400020684069C04340070DD50098F5E727E0C3
:1015500044F8305F6773A573206940F02000206174
:1015600062B625731CE02068016841F400710160D7
:1015700020680069616A0870606A401C6062218DA1
:10158000491E2185618D491E618562B62168096900
:10159000017026E032464146204601F0E5F918B1D7
:1015A000012007B0BDE8F08F20680069616A08700B
:1015B000606A401C6062208D401E81B22185608D72
:1015C000401E608520684269D243520712D4032925
:1015D00003D1016821F48061016020680069616ABB
:1015E0000870606A401C6062208D401E2085608DFE
:1015F000401E6085208D00287FF464AF84F83D7024
:1016000084F83E5084F83C50CBE70220C9E7000044
:10161000020010000000FFFF040001003400002061
:1016200010B586B0002100910191029103910068EC
:10163000104988421BD1104CA06940F00800A061FD
:10164000A069694600F0080004904FF440600090E3
:1016500012200190032003900848FFF751FCE06935
:1016600040F48000E061E06900F48000049006B07E
:1016700010BD00000058004000100240000C014066
:101680000248816802781144816070472800002078
:10169000074810B5016841F010010160032000F017
:1016A000A7F80F2000F006F800F050F8002010BD59
:1016B0000020024030B505461F4887B0C16941F09F
:1016C0001001C161C06906A900F01000009001A8D6
:1016D00000F036F90498B0B100F052F94000174913
:1016E000174AB0FBF1F11748491E0260416040F211
:1016F000E7320021C0E903218160816100F04CFBE9
:10170000040003D015E000F03BF9E8E70D4800F0D5
:1017100071FB04000DD1362000F03CF8102D07D2EB
:1017200000222946362000F043F80748056000E013
:10173000012407B0204630BD0010024040420F0097
:1017400000100040D40300202C0000200F4808B5F2
:10175000816941F001018161816901F0010100911C
:10176000C16941F08051C161C069002200F0805020
:1017700000900F21901E00F01BF80548416821F0F1
:10178000E06141F08061416008BD0000001002404E
:1017900000000140002809DB00F01F0201219140F8
:1017A0004009800000F1E020C0F8001170470000FF
:1017B000F0B40E4B1B680C46C3F30223C3F10705BC
:1017C000042D00D90425191D072901D2002300E0AA
:1017D000DB1E012606FA05F1491E214099409E4074
:1017E000761E16403143F0BC02F086BC0CED00E0E2
:1017F000064900F0070208684FF6FF03184040EA68
:101800000220034A10430860704700000CED00E01E
:101810000000FA052DE9F0470F46050061D0434E60
:10182000306800F00700B84209D2306820F00700A5
:1018300038433060306800F00700B84251D1286862
:101840003B4C810712D5400703D5606840F4E06047
:1018500060602878000703D5606840F460506060DD
:101860006068A96820F0F000084360602878C0072D
:1018700028D06868012810D02168022810D0890774
:1018800000292EDA616821F0030101436160FFF74E
:1018900039FC804641F288390DE021688903EFE781
:1018A0008901EDE7FFF72EFCA0EB0801494502D9BD
:1018B0000320BDE8F0876068696800F00C00B0EBB9
:1018C000810FEFD1306800F00700B8420BD93068C3
:1018D00020F0070038433060306800F00700B8425D
:1018E00001D00120E5E72878400705D56068E96860
:1018F00020F4E060084360602878000706D560683F
:10190000296920F4605040EAC100606000F058F896
:101910006168084AC1F30311515CC8400649086078
:1019200006480068FFF7C6FE0020C2E7002002401C
:101930000010024012690008340000202C00002032
:101940000F2202600C4A536803F00303436053689C
:1019500003F0F0038360536803F4E063C3605268EC
:101960004FF4E06303EAD20202610448006800F029
:10197000070008607047000000100240002002408D
:101980000448054900684968044AC1F30221515CD2
:10199000C84070473400002000100240226900084F
:1019A0000448054900684968044AC1F3C221515CF2
:1019B000C84070473400002000100240226900082F
:1019C0000E4A51680E4801F00C03042B11D0082B6D
:1019D0000FD10C48C1F38343C903C05C0AD55168D9
:1019E000084AC1F34041921E515C054A5043B0FB86
:1019F000F1F070470449484370470000001002406E
:101A000000127A000269000800093D002DE9F84F34
:101A1000040070D02078C04DC00749D06868C0F37A
:101A20008100012807D06868C0F38100022809D12D
:101A30006868C00306D52868800339D56068002827
:101A4000E7D035E06068B0F5803F0BD010B1B0F55D
:101A5000A02F11D0286820F480302860286820F456
:101A6000802002E0286840F480302860606890B1EF
:101A7000FFF748FB06460AE0286840F4802028600B
:101A8000F0E700BFFFF73EFB801B642873D828688F
:101A90008003F7D50CE0FFF735FB064605E000BFF5
:101AA000FFF730FB801B6428F0D828688003F7D448
:101AB00020789A4E80074FF001094FF0000839D581
:101AC000686810F00C0F07D06868C0F38100022826
:101AD00009D16868C00306D42868800714D5206936
:101AE000012808D110E02069B0B1C6F80090FFF7D6
:101AF00009FB074605E00AE1FFF704FBC01B0228CB
:101B0000C4D828688007F7D52868616920F0F800F4
:101B100040EAC10028600DE0C6F80080FFF7F2FA45
:101B2000074604E0FFF7EEFAC01B022823D8286816
:101B30008007F7D4207800072CD57948A169D9B15E
:101B4000C0F80090FFF7DEFA074604E0FFF7DAFA84
:101B5000C01B02280FD8686A8007F7D571484FF478
:101B6000FA510068B0FBF1F0009000BF0098411EF0
:101B70000091FAD20EE080E0C0F80080FFF7C2FAD0
:101B8000074604E0FFF7BEFAC01B022875D8686A52
:101B90008007F7D42078400760D5E8690027C000A7
:101BA00008D4E86940F08050E861E869012700F056
:101BB000805000905C480168C90513D401688346D1
:101BC00041F480710160FFF79DFA824606E000BF94
:101BD000FFF798FAA0EB0A0064284ED8DBF8000063
:101BE000C005F5D5E06801280AD008B1052813D052
:101BF000286A20F001002862286A20F0040002E030
:101C0000286A40F001002862E06841F2883B98B100
:101C1000FFF778FA82460BE0286A40F00400286259
:101C2000EEE700BFFFF76EFAA0EB0A0159455AD85C
:101C3000286A8007F6D50CE0FFF764FA824605E0D3
:101C4000FFF760FAA0EB0A0159454CD8286A8007D3
:101C5000F6D41FB1E86920F08050E861E06988B3EC
:101C60006968C1F38101022944D00228C6F8608066
:101C700004D0FFF747FA044638E034E0FFF742FAB1
:101C8000074604E0FFF73EFAC01B02282BD828685D
:101C90008001F7D4206AB0F5803F05D16868A1685B
:101CA00020F4003008436860D4E9080108436968FB
:101CB00021F4741108436860C6F86090FFF722FAB7
:101CC000044606E025E000BFFFF71CFA001B0228CF
:101CD00009D828688001F7D51BE000BFFFF712FA8A
:101CE000001B022802D90320BDE8F88F2868800174
:101CF000F4D40EE00128F7D06868226A00F480313D
:101D0000914204D1616A00F47010884201D0012030
:101D1000EAE70020E8E7000000100240000042422D
:101D200080044242340000200070004070B5154627
:101D30000E46040007D0A069B0F5807F03D094F868
:101D4000410010B107E0012070BD002084F8400080
:101D5000204600F01DF804F108012068FEF7E2FDBE
:101D60003146A2682068FEF711FED4E90102294637
:101D7000236BFEF7B9FDA168206850F8212042F0DE
:101D8000010240F82120012084F84100002070BDAC
:101D9000FFF782B87047704710B5040003D094F87D
:101DA0003D0010B107E0012010BD002084F83C0088
:101DB000204600F01EF8022084F83D00211D206816
:101DC00001F042FE012084F8460084F83E0084F8C9
:101DD0003F0084F8400084F8410084F8420084F811
:101DE000430084F8440084F8450084F83D00002056
:101DF00010BD704790F83D10012901D001207047B7
:101E0000022180F83D100168CA6842F00102CA60F0
:101E100000680E4988420ED00D4988420BD0B0F1BF
:101E2000804F08D00B49884205D00B49884202D028
:101E30000A49884204D1816801F00701062903D0CC
:101E4000016841F00101016000207047002C014051
:101E5000003401400004004000080040000C004035
:101E600070472DE9F04104460068C66805694FF0E7
:101E70000007A90713D5B10711D5F91E016101208B
:101E80002077206880698007204602D0FFF7E8FFAE
:101E900004E000F07EF8204600F07CF82777680721
:101EA00016D5700714D521686FF004000861022070
:101EB00020772068806910F4407F204602D0FFF729
:101EC000CFFF04E000F065F8204600F063F82777C4
:101ED000280715D5300713D521686FF00800086171
:101EE000042020772068C0698007204602D0FFF7D1
:101EF000B7FF04E000F04DF8204600F04BF82777DC
:101F0000E80616D5F00614D521686FF010000861B8
:101F1000082020772068C06910F4407F204602D056
:101F2000FFF79EFF04E000F034F8204600F032F89E
:101F30002777E80708D0F00706D021686FF0010086
:101F40000861204600F028F8280608D5300606D596
:101F500021686FF0800008612046FFF71BFF6806CC
:101F600008D5700606D521686FF04000086120464C
:101F700000F01CF8A8060AD5B00608D521686FF055
:101F8000200008612046BDE8F041FFF704BFBDE82E
:101F9000F08170477047000000680349884201D112
:101FA000FFF76EBB7047000000100040704738B567
:101FB000044690F84200202801D0022038BD51B1DB
:101FC0004AB10120206300206063204601F05AFFDF
:101FD000216B012901D0012038BD21680A684968B8
:101FE000009121680C3151E8002F42F0100241E8C5
:101FF0000023002BF5D138BD30B50D4604460068EE
:102000001349C3B0884220D1ADF80051FFF77AF8E8
:1020100041902A460F496846FEF704F90E4800230E
:102020001A466946006802F093FD10B10BA001F05A
:102030005DF94FF4807207490F48FFF7B8FFE06B76
:102040000068016821F00401016043B030BD000068
:1020500000440040DC00002014000020424C4520D9
:1020600071756575652066756C6C2C206461746192
:10207000206C6F7374000000C002002010B500686F
:102080000649884209D106A001F030F90A49032027
:102090004870BDE8104001F025BD10BD004400406F
:1020A0005541525432206572726F72206F636375AE
:1020B0007272656400000000BA000020F8B5016883
:1020C00004460868CA684B6910F00F0F4FF000050E
:1020D00059D003F0010602F49077374365D0C10769
:1020E00005D0D10503D5616C41F001016164410760
:1020F00005D5D90703D0616C41F002016164810705
:1021000005D5D90703D0616C41F004016164010772
:1021100007D502F02001314303D0616C41F0080182
:102120006164616C00293AD0800604D5900602D51E
:10213000204601F0E9FD20684069616CC0F3801021
:10214000090700D460B3204601F0A9FD206840696A
:10215000400621D52068143050E8001F21F04001CE
:1021600040E80012002AF5D1E06BA8B16D49416347
:10217000E06BFEF74DFC002811D0E06B416B01B025
:10218000BDE8F040084783060FD593060DD52046DD
:10219000BDE8F84001F0B8BD2046FFF76FFFF8BD7D
:1021A0002046FFF76BFF6564F8BD266B2023012EE8
:1021B0007CD1C6067AD5D60678D5086848680090DE
:1021C00048694FF00206400640D5E16B0868406858
:1021D0000004000CE8D0A28D8242E5D9E085886930
:1021E00020282DD020680C3050E8001F21F4807189
:1021F00040E80012002AF5D12068143050E8001F92
:1022000021F0010140E80012002AF5D120681430C5
:1022100050E8001F21F0400140E80012002AF5D1EB
:1022200084F84230256320680C3050E8001F21F00C
:10223000100140E80012002AF5D1E06BFEF7C4FB64
:102240006663A08DE18D401A81B22AE0A08DE18DF8
:10225000401A81B2E08D0028A6D00029A4D02268BF
:102260000C3252E8000F20F4907042E80007002F73
:10227000F5D12068143050E8002F22F0010240E828
:102280000027002FF5D184F84230256320680C30F8
:1022900050E8002F22F0100240E80023002BF5D177
:1022A00066632046FFF7A8FEF8BDFFE705062BD5BD
:1022B000150629D594F841002128F5D1A068B0F57C
:1022C000805F01D12069B0B1206A411C2162216880
:1022D00000784860E08C401E0004000CE084E3D1EC
:1022E0002068C16821F08001C1602068C16841F0A8
:1022F0004001C160D8E7206A0088C0F30800486048
:10230000206A801C2062E5E74006CDD55006CBD57B
:10231000CA68204622F04002CA6084F8413000F0CA
:102320006CF9C1E7A13B000870B5040004D094F833
:102330004100002510B106E0012070BD84F8405036
:10234000204600F023F8242084F841002068C1686A
:1023500021F40051C160204601F038FD2068016978
:1023600021F4904101612068416921F02A01416115
:102370002068C16841F40051C1606564202084F880
:10238000410084F842006563002070BD2DE9F041F2
:1023900086B0002400940194029403940646DFF86A
:1023A00038C103684D48022103224D4D80274FF06C
:1023B0001008634538D1836943F48043836183699E
:1023C00003F480430493836943F0040383618069C9
:1023D000039200F0040004900802CDE90001694670
:1023E0002846FEF78DFD2815CDE9000469462846EC
:1023F0000294FEF785FD3C4D3A48C5E902472C6141
:102400006C61AC61EC61C5E900082846FEF7BCFCD4
:1024100008B1FEF767FAB5630022052125206E6238
:10242000FFF7C6F9252051E0DFF8C0C063454FD162
:10243000C36943F40033C361C36903F400330493F5
:10244000836943F0040383618069039200F0040010
:1024500004900420CDE9000169462846FEF750FDAE
:102460000820CDE90004694628460294FEF748FD9D
:102470001D4D1C4844352830C5E90004C5E9024714
:102480002C616C61AC612846EC61FEF77DFC08B103
:10249000FEF728FAF5636E62134D124888353C301A
:1024A000C5E902472C616C61AC61EC61C5E90008CB
:1024B0002846FEF769FC08B1FEF714FAB56300225E
:1024C000052126206E62FFF773F92620FFF762F9D7
:1024D00006B0BDE8F0810000003801400010024065
:1024E000000801404400024008030020004400406E
:1024F00090F84230202B01D00220704721B11AB150
:102500000023036301F0BEBC0120704790F8423005
:10251000202B01D00220704721B11AB100230363A0
:1025200001F0F8BC01207047074A0168914204D1CC
:10253000012206490648FFF7E9BF064A914201D148
:10254000FEF778B97047000000380140BE00002057
:10255000780200200044004070472DE9F84304460B
:1025600090F84100984616460D46202802D00220D9
:10257000BDE8F88385B17EB100206064212084F835
:102580004100FEF7BFFDA6848146E684A0682027AF
:10259000B0F5805F02D003E00120E9E7206910B1C7
:1025A0002E4600250EE000260CE08021204601F09A
:1025B000CCFCA8B9C6B116F8010B21684860E08CC4
:1025C000401EE084E08C4B464FF00002CDF80080C6
:1025D0000028EAD14FF04001204601F0B6FC40B19E
:1025E00084F841700320C3E735F8020BC0F30800FC
:1025F000E3E784F841700020BAE77047FEE701681E
:102600004A69D24352050FD46FF480624A610021B7
:1026100040F8301F202242738173026942F00402A5
:10262000026101730120704700207047F8B504462D
:10263000C06A1E460D461746082807D0012805D057
:1026400010F5803F02D0206B122804D12068016869
:1026500041F480710160134600224FF001112046C1
:10266000009600F0DBF840B120680068C00502D594
:102670004FF4007020640320F8BD2069B0F5804F4E
:102680000ED00620216800EAD51040F0F000086165
:1026900033463A460B49204600F008F978B902E083
:1026A00005F0FE0000E0E8B2216808610549334604
:1026B0003A46891F204600F0F9F80028DCD00120B6
:1026C000F8BD0000080001002DE9F84F044600683D
:1026D00089460B9D01689846174641F48061016068
:1026E0002068016841F48071016000954FF0011B82
:1026F0000022594620460A9B00F090F84FF4007AD9
:1027000040B120680068C00501D5C4F840A003208E
:10271000BDE8F88F216809F0FE0008612B462849C2
:1027200020460A9A00F0C2F8F0BB2068416980692F
:1027300000902A4620460A9900F04EF940B1206CDC
:1027400004283AD12068016841F40071016034E046
:10275000FEB2B8F1010F09D02168380A08612A4693
:1027600020460A9900F038F90028E8D1206806616F
:102770002A4620460A9900F02FF90028DFD1206868
:10278000016841F48071016000950022594620469D
:102790000A9B00F043F80028B3D1216809F0FF003C
:1027A00040F00100086100E007E02B4604492046A4
:1027B0000A9A00F07BF80028AAD00120A8E70000C0
:1027C0000200010070B516460D4604461EE0204684
:1027D000FFF715FF08B1012070BD681C16D0FEF789
:1027E00091FC801BA84200D885B920684069C0438D
:1027F00040070BD5002044F8300F20216173A073EF
:10280000216941F0200121612073E4E720684069DB
:10281000C0434007DBD4002070BD00002DE9F04725
:10282000984617460D460446C1F30746DDF820904A
:102830002AE000BFB8F1FF3F26D0FEF763FCA0EB13
:102840000901414502D8B8F1000F1DD12068012EC1
:1028500016D0806925EA00000004000C12D0002088
:10286000B84211D1002044F8300F20216173A073C9
:10287000216941F02001216120730120BDE8F0872A
:102880004069E7E70120EBE72068012E0AD0806964
:1028900025EA00000004000C06D00020B842C9D090
:1028A0000020EBE74069F3E70120F7E72DE9F04767
:1028B000984616460D4604464FF000094FF0200A90
:1028C000C1F3074723E020684069C043400515D4A1
:1028D0002068016841F40071016021686FF4806034
:1028E0004861C4F8309084F83DA084F83E90216C93
:1028F00041F00401216484F83C9021E0701C06D072
:10290000FEF700FCA0EB0800B04203D816B1012F7F
:102910001FD021E02068012F15D0806925EA000032
:102920000004000C18D000BF44F8309F84F80DA0BC
:1029300084F80E90216941F02001216184F80C9007
:102940000120BDE8F087406925EA00000004000C82
:10295000EAD12068406901E02068806925EA00002A
:102960000004000CAFD1ECE72DE9F04100259046C2
:102970000E460446202728E04069C043C0060CD418
:1029800054F8301B6FF01000486144F81059677715
:10299000A577206A2062257714E0FEF7B3FBA0EB51
:1029A0000800B04200D886B920684069C04340069C
:1029B0000BD544F8305F6773A573206940F02000A1
:1029C000206125730120BDE8F08120684169C94379
:1029D0004906D1D40020F6E770B516460D460446E8
:1029E0001EE02046FFF70BFE08B1012070BD681CF9
:1029F00016D0FEF787FB801BA84200D885B9206857
:102A00004069C04300060BD5002044F8300F202158
:102A10006173A073216941F0200121612073E4E713
:102A200020684069C0430006DBD4002070BD000070
:102A3000034908B1080601E04FF480500860704770
:102A40001014014070B51C46154600F0D1F8044939
:102A500005FB04F04989BDE8704000F067B800004C
:102A6000C400002001B5009801E0401E009000283D
:102A7000FBD108BDF0B5184E203A1FFA82FCF5686C
:102A8000AA88EB882D6802FB03F7FC1707EB547448
:102A9000C4F3C7040CFB045500F0AAF82C20C106AF
:102AA00008800021728933890C4E802710E00020B5
:102AB00015F801C027FA00FE1CEA0E0F01D0338082
:102AC00000E03280401CC0B20828F1D3491CC9B2D2
:102AD000A142ECD3F0BD0000C40000200000026061
:102AE000F0B50F46064600250F4C19E0E0686388F4
:102AF00081882944994203D9C188002531448EB286
:102B0000C088A1883044884201D900252E4631462C
:102B10002846FFF7AFFFE0687F1C8088284485B215
:102B20003A78002AE2D1F0BDC400002010B500229E
:102B30002C23DC062380034B01E01980521C8242C7
:102B4000FBD310BD0000026030B507283AD81E49FB
:102B5000C4074FF0F00208704FF4A07313D04B80FD
:102B60008A80362213071A80CC88184AA4F51345A8
:102B7000413D04D0A4F50545523D07D008E00824A6
:102B800044EA401003E04A808B80EAE7400110806D
:102B90002A2018800020108010804888401EC0F332
:102BA00007241480C0B210802B20188000201080D1
:102BB00010808888401EC0F307211180C0B21080A9
:102BC0002C20188030BD0000C400002000000260EE
:102BD00010B50120FFF72CFF00F0BEF900F028F837
:102BE00002480078BDE81040FFF7AEBFC4000020E7
:102BF00070B54FF0C0452A242C800C4C060A268064
:102C0000C6B226801044401E020A2280C0B2208034
:102C10002B202880080A2080C8B22080C818401EB7
:102C2000010A2180C0B2208070BD00000000026057
:102C300010B500F06DF9B349B44AA0F51343C8804C
:102C4000B1494FF0C044413B7ED0A0F50543523B13
:102C50007BD1CF20208000200880C1200880302038
:102C60000880ED2020806420088003200880122046
:102C7000088081200880E82020808520088010209E
:102C8000088078200880CB202080392008802C20E4
:102C90000880002008803420088002200880F72067
:102CA000208020200880EA202080002008800880E2
:102CB000C020208021200880C12020801120088091
:102CC000C52020802D2008803320088036202080D9
:102CD000002008803A20208055200880B1202080E4
:102CE0000020088017200880B62020800A20088055
:102CF000A2200880F6202080012008803020088053
:102D0000F2202080002008802620208001200880DA
:102D1000E0202080D0200880002008800220088049
:102D2000072008800B2008801A20088031200880A6
:102D30005420088040200880292008801220088024
:102D400008800880172001E029E027E00880E120C2
:102D50002080D020088000200880022008800720E2
:102D6000088005200880252008802D200880442028
:102D70000880452008801C20088018200880162024
:102D800008801C2008801D2008801120208010460B
:102D9000FFF768FE292020802C20208010BDCF2046
:102DA0002080002008808120088030200880ED20CD
:102DB0002080642008800320088012200880812061
:102DC0000880E82020808520088010200880782056
:102DD0000880CB202080392008802C20088000200B
:102DE00008803420088006200880F72020802020DA
:102DF0000880EA202080002008800880B120208000
:102E0000002008801B200880B62020800A2008802F
:102E1000A2200880C020208035200880C12020808A
:102E200011200880C5202080452008800880C72008
:102E30002080A2200880F220208000200880262008
:102E4000208001200880E02020800F20088026209C
:102E50000880242008800B2008800E20088009208C
:102E6000088054200880A8200880462008800C2074
:102E7000088017200880092008800F20088007207C
:102E8000088000200880E120208000200880192090
:102E900008801B200880042008801020088007205C
:102EA00008802A20088047200880392008800320D5
:102EB000088006200880088030200880382008809C
:102EC0000F20088036202080C82008802A202080FB
:102ED0000020088008800880EF2008802B202080B8
:102EE000002008800880012008803F2008803A20C8
:102EF000208055200880112020801046FFF7B2FD69
:102F000029204AE7C400002000000260FCBF020044
:102F100010B54FF0C043042018800E490888088877
:102F200008884FF6FF7202EA002408882043A0F5C3
:102F30000544523C0DD0D3201880088808880888A2
:102F400002EA002208881043A0F51341413900D05D
:102F5000002010BD0000026070B5084C4FF4003036
:102F6000206040F6FF252846FFF77CFD0220206008
:102F70002846BDE87040FFF775BD000010180140FD
:102F80009CB0FFF725FE0620FFF7DEFD7EA000F0D7
:102F9000BDF98248824C0021038801252288084619
:102FA000FFF750FDDFF8FC9110274FF6FF784FF444
:102FB0007A7A00231A461AA9D9F8180001F06AFD96
:102FC00000287DD000F026F900F024F9C08807EB36
:102FD000400086B200F01EF90021334622880846E0
:102FE000FFF706FE00F016F900F014F9C08807EBB1
:102FF000400086B200F00EF90021334622880846D0
:10300000FFF720FD684800F00BF94FF47846304692
:1030100000F00CF900F0FEF864A10020FFF760FD5D
:10302000614800F0FDF8304600F000F900F0F2F8D9
:10303000C18808EA410062A1FFF752FD00F0EAF8FA
:10304000C08800EB400101EB001600F0E3F8C088F7
:103050006FF0120100FB0160103086B200F0DAF868
:10306000C088334600EB400101EB001081B222889A
:103070000020FFF7BDFD00F0CDF8C08800EB400157
:1030800001EB001600F0C6F8C0886FF0120100FBDB
:103090000160103086B200F0BDF8C088334600EB06
:1030A000400101EB001081B222880020FFF7CAFC2A
:1030B0003D4800F0B5F8404600F0B8F82A4600E078
:1030C00014E044A1684600F0E9FF00F0A3F8C088CE
:1030D00000EB400101EB001080B26946FFF700FDF4
:1030E000504601F095FC6D1CADB262E700F092F81D
:1030F00000F090F8C08807EB400086B200F08AF834
:103100000021334622880846FFF772FD00F082F85E
:1031100000F080F8C08807EB400086B200F07AF833
:103120000021334622880846FFF78CFC1E4800F039
:1031300077F84FF4FC66304600F078F800F06AF853
:1031400029A10020FFF7CCFC174800F069F84FF6E2
:10315000E07000F06BF8DDE91A2327A1684600F063
:103160009DFF00F057F8C0886946FFF7B9FC0E488C
:1031700000F056F8304600F059F800F04BF8C188DE
:1031800008EA41001FA157E74C4344205461736B88
:10319000207374617274656400000000C800002030
:1031A000C600002000000020D40000204E6F2050F8
:1031B000726573737572652044617461000000006C
:1031C0005374617475733A2057616974696E672E20
:1031D0002E2E0000446973706C617920436F756E08
:1031E000743A20256400000050726573737572652F
:1031F00020446174613A0000252E3466204D5061F0
:10320000000000005374617475733A204461746166
:10321000204F4B000148C06870470000C4000020E8
:103220000149C86070470000C400002001490881BE
:1032300070470000C4000020AAB000F077F81A4CD4
:103240004FF0FF352B46002202A9206901F022FC35
:103250000028F7D1154B0DF1980C0FCB8CE80F001F
:103260009DF8080004A9042803D226AA52F82000D9
:1032700000E00FA0CDE900010FA2502112A8039B8E
:1032800000F0F2FE2946E06901F096FC12A8FCF776
:10329000F9FF82B2642312A90B48FFF75EF9E069D7
:1032A00001F0E7FCCEE7000000000020F068000815
:1032B000554E4B4E000000005B25356C755D20259A
:1032C000733A2025730D0A00780200200FB43821CC
:1032D00000B58FB011AB6846109A00F0F3FE694656
:1032E000032000F035F80FB05DF814FB0FB438215F
:1032F00000B58FB011AB6846109A00F0E3FE694646
:10330000002000F025F80FB05DF814FB0FB4382151
:1033100000B58FB011AB6846109A00F0D3FE694635
:10332000022000F015F80FB05DF814FB02490320ED
:10333000087002A0FFF7EABFB80000206C6F67209A
:10334000696E6974207375636365737300000000B0
:1033500010B50C460D4990B00978884213D88DF805
:10336000000001F062FB01903722214602A8FCF721
:103370007DFF00208DF83F00034602460448694661
:10338000006801F0E5FB10B010BD0000B80000209F
:10339000100000200FB4382100B58FB011AB684683
:1033A000109A00F08FFE69460120FFF7D1FF0FB0A1
:1033B0005DF814FB114808B5416941F00101416114
:1033C0004069002200F00100009005210E20FEF768
:1033D000EFF90E20FEF7DEF9002205211020FEF79E
:1033E000E7F91020FEF7D6F9002205211120FEF79B
:1033F000DFF9BDE808401120FEF7CCB9001002400B
:1034000010B51C4801F001FC1B4C1A4A4021E06138
:10341000483A0A2001F070FB164A2061303A4FF416
:103420008371052001F068FB124A6061183A082197
:10343000032001F061FB0F4AA061D83A00210F4838
:1034400001F038FC0B4A2060B43A00210C4801F02E
:1034500031FC084A6060903A00210A4801F02AFCD9
:10346000044AA0606C3A0021074801F023FCE060A8
:1034700010BD0000E068000800000020393200089C
:10348000AD370008D93F0008812F000800B587B08C
:103490001C216846FCF7DFFE17484FF02041102240
:1034A00001601649416000218160C160C0E90412D9
:1034B0008161C16113020162C0E90913C162016344
:1034C000416381630F20CDE9001002AB082083E83F
:1034D00007001120CDE90501002269460648FEF7E4
:1034E00025FC08B1FDF7FEF90548C16941F480618A
:1034F000C16107B000BD0000DC010020040100A094
:10350000000001402DE9F04F85B000253D480095B1
:10351000019502950395816941F0400181618169BE
:1035200001F040010491816941F0040181618169E8
:1035300001F004010491816941F008018161816910
:1035400001F008010491816941F0200181618069E5
:10355000002200F02000049005212B48FDF7CCFD4F
:10356000DFF8A8A0012211465046FDF7C5FDDFF89F
:10357000A0B04FF48058002241465846FDF7BCFDEC
:103580004FF40059012249465846FDF7B5FD012286
:1035900002211D48FDF7B0FD0520012403268DE81A
:1035A000710069461848FDF7ABFC1820CDE900050D
:1035B000694602941448FDF7A3FC01AA022700946F
:1035C00082E8B00069465046FDF79AFCCDE90084D8
:1035D000CDE9024669465846FDF792FC01AACDF8AE
:1035E000009082E8700069465846FDF789FCCDE9F5
:1035F0000074CDE9024669460348FDF781FC05B039
:10360000BDE8F08F0010024000180140000C01409E
:10361000001401400D4810B50B4901600C49416090
:1036200000214FF480428160C0E903124161816151
:10363000C1610162FDF76CFD002803D0BDE81040B8
:10364000FDF750B910BD00000058004024020020D2
:10365000A08601000C4810B50A4901604FF4E13121
:103660004160002181600C22C160C0E904128161C7
:10367000C161FEF759FE002803D0BDE81040FDF7F8
:1036800031B910BD00380140780200200C4810B557
:103690000A4901604FF4E1314160002181600C2250
:1036A000C160C0E904128161C161FEF73DFE0028DE
:1036B00003D0BDE81040FDF715B910BD004400402F
:1036C000C0020020FEE7FEE77CB5134C3025002148
:1036D00020608DF804508DF805106426022301AA9D
:1036E000DA210096FDF7D8FD78B90A20FDF7C2FB74
:1036F0008DF8045003208DF805000096022301AADE
:10370000DA212068FDF7C8FD08B101207CBD322018
:1037100001F07EF900207CBDC00000201FB56422AE
:10372000032103A88DE80700164801230622DA21A9
:103730000068FDF747FE20B104B000204FF0804143
:1037400010BD9DF80C009DF80D10000440EA012406
:103750009DF80E000443200202D5641EE04344425B
:10376000214609A0FFF7D2FD2046FCF7ABFE0C4A2C
:103770000C4BFCF72FFE04B00022BDE810400A4BB2
:10378000FCF72EBEC0000020507265737375726521
:10379000207261772076616C75653A20256400009F
:1037A0009A999999999929410000843E1FB54FF43F
:1037B000FA7001F02DF92EA0FFF7A8FD3248FFF7AF
:1037C00083FF4FF47A7530B130A0FFF78FFD2846A4
:1037D00001F01EF9FBE737A0FFF798FD404C4FF0D2
:1037E00080462948FFF79AFF00223346CDE90201BF
:1037F000FCF792FE3AD000231A4602A9A06901F014
:10380000A7F9010005D0C81C15D036A0FFF76EFD42
:1038100028E0DDE902010022394BFCF7E1FDFCF76D
:1038200062FE81B237A0FFF751FDDDE902233EA021
:10383000FFF74CFD16E000231A4601A9A06901F02C
:1038400029F900231A4602A9A06901F081F920B1E3
:103850003FA000BFFFF74AFD04E0DDE9022344A0DA
:10386000FFF798FD284601F0D3F8BAE74DA0F1E73D
:103870005072657373757265205461736B20737435
:103880006172746564000000240200205072657348
:10389000737572652073656E736F7220696E6974DB
:1038A00069616C697A6174696F6E206661696C65C3
:1038B0006400000050726573737572652073656EE5
:1038C000736F7220696E697469616C697A656420CE
:1038D0007375636365737366756C6C7900000000C3
:1038E00000000020556E6578706563746564207112
:1038F00075657565206572726F723A2025640000E7
:103900000088C34050726573737572655F6870613B
:1039100020646174612073656E7420746F2071750A
:103920006575653A2025640050726573737572651C
:103930005F6D506120646174612073656E742074E2
:103940006F2071756575653A20252E34660000007C
:1039500051756575652066756C6C20616E642072AA
:1039600065706C616365206661696C656421000047
:1039700051756575652066756C6C2C206F6C64657F
:10398000737420646174612064726F707065642E5A
:10399000204E65772070726573737572653A2025C5
:1039A0002E33660050726573737572652073656E91
:1039B000736F722072656164206572726F720000AD
:1039C00010B54FF0E020006902F024FD012803D07B
:1039D000BDE8104002F0CCB810BD30B58FB0282142
:1039E0006846FCF738FC14210AA8FCF734FC0121D6
:1039F0000804CDE900100024029402250491CDE9C9
:103A000007504FF4E01009906846FDF7FFFF08B13A
:103A100072B6FEE70F20CDE90A054FF48060CDE9CC
:103A20000C4002210AA80E94FDF7F4FE002801D0F4
:103A300072B6FEE70FB030BD704700000148FEF7D8
:103A400010BA0000D4030020F0B50268204C214DCC
:103A5000214E224F224B4FF0804CA04209D0984279
:103A600007D0604505D0A84203D0B04201D0B8428B
:103A700004D122F0700E4A6842EA0E02A04209D038
:103A8000984207D0604505D0A84203D0B04201D08B
:103A9000B84203D122F44075CA682A434D6922F026
:103AA00080022A4302608A68C2620A688262A04277
:103AB00001D0984201D10969016301214161016985
:103AC000C90703D0016921F001010161F0BD0000C7
:103AD000002C01400004004000080040000C0040A1
:103AE0000034014070B50E4C002060802070012031
:103AF0006070050229460BA0FFF7E8FB2A4614492F
:103B00001448FEF7F5FC28B113A0FFF7EFFB0320E4
:103B1000607070BDBDE8704017A0FFF7D7BB000014
:103B2000BA0000205374617274696E672055415267
:103B3000543220444D4120726563656976652C20BE
:103B40006275666665722073697A653A202564003D
:103B5000F0600020C0020020554152543220444DF4
:103B600041207265636569766520737461727420A3
:103B70006661696C65640000554152543220444DC1
:103B8000412072656365697665207374617274653E
:103B900064207375636365737366756C6C7900007C
:103BA00010B5406A0021C185C184FEF767FA10BDD7
:103BB00070B5446A2068406994F84110C0F3C010A1
:103BC0000025212904D118B1E584204600F08EF8A3
:103BD0002068406994F84210C0F38010222904D173
:103BE00018B1E585204600F05AF8606C40F01000EE
:103BF00060642046FEF742FA70BD10B50146406A87
:103C0000096809684FF0000289062ED4C285016850
:103C10000C3151E8003F23F4807341E80034002C5C
:103C2000F5D10168143151E8003F23F0010341E868
:103C30000034002CF5D10168143151E8003F23F025
:103C4000400341E80034002CF5D1202180F84210D7
:103C5000016B012909D101680C3151E8003F23F0C3
:103C6000100341E80034002CF5D14263016B0129B7
:103C700002D0FEF759FC10BD818DFEF7BDF910BDD5
:103C800010B5406A01214163016B012902D0FEF7A2
:103C900063FC10BD818D4908FEF7AEF910BD0168C7
:103CA0000C3151E8002F22F4907241E80023002BE0
:103CB000F5D10168143151E8002F22F0010241E8EA
:103CC0000023002BF5D1016B012909D101680C31CA
:103CD00051E8002F22F0100241E80023002BF5D11B
:103CE000202180F8421000210163704701680C31E7
:103CF00051E8002F22F0C00241E80023002BF5D14B
:103D0000202180F84110704708B590F84210222910
:103D100001D0022008BD82684FF480539A4201D13D
:103D2000016921B1816A9A421BD04AB10AE0026856
:103D3000816A5268C2F308020A80816A891C08E01D
:103D4000026972B10268526802F07F020A70816AE9
:103D5000491C8162C18D491E0904090CC18503D02B
:103D60001BE002685268F1E70168CA6822F020028D
:103D7000CA600168CA6822F48072CA6001684A6930
:103D800022F001024A61202180F8421000214163A3
:103D9000026B012A03D0FEF7C7FB002008BD0163B8
:103DA00001680C3151E8002F22F0100241E8002395
:103DB000002BF5D101680A68D20602D50A68496865
:103DC0000091818DFEF718F9E7E7000070B5044611
:103DD00000680169E26821F44051114301612169E1
:103DE000A0680843616908432168CA6841F20C630E
:103DF0009A430243CA6020684169A26921F4407174
:103E0000114341611E492068884202D1FDF7C8FD77
:103E100001E0FDF7B5FD00EBC00101EB00126068A9
:103E200064218000B2FBF0F3B3FBF1F36FF01806EE
:103E30007343B2FBF0F5B2FBF0F605EB83053223DA
:103E400003EB0515B5FBF1F5B6FBF1F605F0F00552
:103E500005EB0615B2FBF0F6B2FBF0F0B0FBF1F0AB
:103E60006FF01802504306EB800003EB0010B0FB2C
:103E7000F1F0216800F00F002844886070BD000058
:103E80000038014038B5816204468285002013461F
:103E90006064222284F84220E56B1B4AAA62E56B2B
:103EA0001A4AEA62E56B1A4A2A63E26B50630A46D1
:103EB0002168E06B091DFCF7A5FF206801684068D8
:103EC0000090206948B120680C3050E8001F41F490
:103ED000807140E80012002AF5D12068143050E8C3
:103EE000001F41F0010140E80012002AF5D12068CE
:103EF000143050E8001F41F0400140E80012002A51
:103F0000F5D1002038BD0000FB3B0008813C0008D3
:103F1000B13B000881628285C28500214164222173
:103F200080F84210016921B10168CA6842F48072C8
:103F3000CA6001684A6942F001024A610068C168CA
:103F400041F02001C160002070472DE9F8439846F8
:103F500017460D460446089E24E0701C22D0FDF74B
:103F6000D1F8A0EB0800B0421AD8CEB12068C168E1
:103F7000490717D5802D15D0402D13D00168C943AE
:103F800009070FD401680025406800902046FFF71C
:103F900086FE0820606484F840500120BDE8F88364
:103FA0000320FBE72068006835EA000004D0002009
:103FB000B842D2D00020F1E70120F9E70148FEF72E
:103FC0007DB80000780200200148FEF777B80000B5
:103FD000C0020020FEE70000C2B0C82000F018FDBB
:103FE00011A0FFF793F91D4C4FF0FF352B4600222F
:103FF0006946606900F04EFD0028F7D12946E06966
:1040000000F0DAFDBDF80021642369461448FEF78C
:10401000A4FA6423022213A11148FEF79EFAE06974
:1040200000F027FEE2E700005573617274322054FD
:1040300061736B20737461727465642C207761699D
:1040400074696E6720666F722064617461206672A5
:104050006F6D2055415254320000000000000020D6
:10406000780200200D0A00000FB47CB50C0009ADE9
:1040700001D0611E00E00021CDE90001064B6A4637
:104080002946089800F01AF9002C02D0009A002165
:1040900011707CBC5DF814FBC34900080FB4084BD9
:1040A00010B504A902AA039800F008F9044602A971
:1040B000002000F091FC204610BC5DF814FB0000CD
:1040C000D94900087CB50C001D461646014601D0B2
:1040D000601E00E00020CDE90010064B6A4629462C
:1040E000304600F0EBF8002C02D0009A002111704D
:1040F0007CBD0000C34900080907090E002804DB45
:1041000000F1E02080F80014704700F00F0000F18B
:10411000E02080F8141D704702E008C8121F08C193
:10412000002AFAD170477047002001E001C1121F38
:10413000002AFBD1704700002DE9FF5F82B000210B
:10414000DDE90430020DDDF840B0034318D044F639
:104150001050A2F2FF3242431514119801281FD0CB
:10416000A5EB0B00401C5FEA000A4FF000064E4F23
:10417000DFF83891B046504615D5CAF1000413E077
:10418000119801244AA3012801D16FEA0B0102987A
:10419000119AC0E90031C0E9024206B0BDE8F09FC3
:1041A000CBF10000DFE704460021404A491842EB0A
:1041B0000450CDE9001012E0E00707D032463B463C
:1041C00040464946FCF70CF98046894632463B4654
:1041D00010461946FCF704F906460F466410002CF9
:1041E000EAD1DDE90401DDE90023BAF1000F06DAC6
:1041F000FCF7F6F842464B46FCF7F2F805E0FCF710
:1042000068FA42464B46FCF764FA04460E46002222
:10421000284BFCF7E5FA03D84FF0FF30014607E0E2
:104220000022254B20463146FCF733F8FCF7C0FA54
:10423000102409E0002C0ADB0A220023FCF79AF97B
:10424000039B30321A55641E50EA0102F2D1641CFD
:10425000039AC4F111031444119A012A03D00122D4
:1042600008430DD10AE0084304D000204FF0110BA1
:10427000119072E7A3EB0B056D1E0DE05B4504DDAD
:104280004FF0000205F1010504E003DA4FF00002EF
:10429000A5F10105002AECD002981199C0E902317C
:1042A000C0E9004579E70000000014400000F03F3D
:1042B000300000000000F0430000E03F2DE9FF4F18
:1042C00095B09A46884606460025EEE1252877D126
:1042D00000242746F94A0121039400E0044316F81C
:1042E000013F203B01FA03F01042F7D130782A2831
:1042F00011D06FF02F033078A0F13002092A16D8C0
:10430000039A44F0020402EB820203EB42021044DF
:10431000761C0390EFE758F8042B0392002A03DA87
:10432000504244F40054039044F00204761C307868
:104330002E2816D116F8010F44F004042A280DD0B7
:104340006FF02F023078A0F13003092B09D807EB6A
:10435000870302EB4303C718761CF3E758F8047B86
:10436000761C30786C280FD006DC4C2817D06828D3
:104370000DD06A2814D104E0742810D07A280FD107
:104380000DE044F400140AE044F4801401E044F425
:1043900040147278824202D104F58014761C761C97
:1043A000307866280BD013DC582877D009DC002839
:1043B00075D04528F6D04628F4D047281AD193E185
:1043C00018E0632835D0642879D0652812D18BE1B4
:1043D000702873D008DC6728F1D069286FD06E2868
:1043E0000DD06F2806D1ACE073282CD0752874D07E
:1043F000782853D05246179990476D1C54E1C4F366
:104400000250022809D003280DD0D8F80010042843
:104410000DD00D6008F1040846E1D8F80010EA1745
:10442000C1E90052F6E7D8F800100D80F2E70D70F0
:10443000F0E718F8041B8DF8001000208DF801003B
:10444000EB46012003E058F804BB4FF0FF30610752
:104450004FF0000102D40DE009F101018946B94293
:104460000FDA8145F8DB1BF809100029F4D108E0C8
:1044700009F1010189468142FADB1BF80910002984
:10448000F6D103985346A0EB090721463846179A00
:1044900000F080FA284400EB090507E044E008E159
:1044A0000DE01BF8010B524617999047B9F101092D
:1044B000F7D2534621463846179AF2E039E00A21EE
:1044C000C4F302524FF0000B0091022A06D058F8B4
:1044D000040BC117032A09D00AE023E008F1070002
:1044E00020F00702F2E80201904605E000B2C11791
:1044F000042A01D140B2C117002906DA0A46002178
:10450000404261EB02012D2202E0220504D52B225C
:104510008DF80420012203E0E20701D02022F7E712
:10452000914657E00A2100E010214FF0000B009166
:104530000BE010214FF0000B44F004040827009119
:1045400003E008204FF0000B0090C4F30252022A4F
:1045500005D058F8040B0021032A08D008E008F120
:10456000070020F00702F2E80201904603E080B263
:10457000042A00D1C0B24FF0000922072AD53278B0
:10458000702A07D0DDF800C08CF0100C5CEA0B0C30
:1045900005D00EE040228DF80420012208E050EA08
:1045A000010306D030238DF804308DF80520022257
:1045B0009146009B83F0080353EA0B030AD150EAAB
:1045C000010201D1620705D530228DF804204FF099
:1045D00001097F1E3278582A04D039A20C920CAA05
:1045E00002920BE03BA2F9E75B46009AFBF7C2FFA1
:1045F0000C9B9B5C029A521E0292137050EA0102BD
:10460000F2D1029804A9081A00F1200B600702D524
:1046100024F4803400E001275F4502DDA7EB0B00A6
:1046200000E0002000EB0B01009003984944401A81
:104630000390E00306D453462146179A039800F0EE
:10464000A9F90544002706E001A85246C05D179964
:1046500090476D1C7F1C4F45F6DBE0030CD553469D
:104660002146179A039800F095F9054404E030209C
:104670005246179990476D1C0099481E00900029DA
:10468000F5DC08E00298029952460078491C029134
:10469000179990476D1CBBF10001ABF1010BF1DCE8
:1046A0005BE100F065F90544761C307800287FF462
:1046B0000DAE19B02846BDE8F08F000009280100B2
:1046C0003031323334353637383961626364656688
:1046D000000000003031323334353637383941424A
:1046E0004344454600000000600700D4062708F157
:1046F000070020F00700F0E80223804603F0004C9A
:104700005FEA0C0001D097A009E0200501D596A032
:1047100005E0E00701D095A001E0AFF24C00139056
:10472000307823F0004365280CD006DC452809D0FA
:1047300046281DD047287FD13BE0662818D067283F
:104740007AD136E00021112F01DB112000E0781C26
:10475000CDE9000104A90CA8FFF7EEFCDDE90D018D
:104760000C9A4FF0000B07F10109109200914EE0F6
:104770004FF000400097CDE9011004A90CA8FFF705
:10478000DBFCDDE90D020C9B0F994FF0000B91460D
:104790001093009211B9791C00EB0109B7EB0900E5
:1047A00003D4C0F1FF3B07F10109A9EB0700019019
:1047B00042E0012F00DA01270021112F01DD112035
:1047C00000E03846CDE9000104A90CA8FFF7B4FCCD
:1047D000DDE90D010C9A00914FF0000BB9461092E3
:1047E00021070FD4009A4A4503DA914601E0A9F166
:1047F0000109B9F1010F05DD109AA9F10101515C20
:104800003029F4D0B84202DA10F1040F03DA0121A2
:10481000CDE9011010E0002803DC8344A9EB00017E
:1048200002E0411C494500DD8946A0EB0B00401C1D
:1048300001904FF000400290200705D401984845B0
:1048400002DB4FF0FF30019000208DF84B00029802
:104850000DF14B07B0F1004F25D002200C902B201A
:104860000D90029800280CDA404202902D200D9005
:1048700007E00A210298FBF767FE3031029007F843
:10488000011D0C99481E0C900029F2DC02980028AA
:10489000EFD1791E0D980870307800F0200040F0BC
:1048A000450007F8020D11A8C01BC01D0290139807
:1048B000007800B1012000EB0901019801EBE071E3
:1048C000029801440398401A401E0390E00306D466
:1048D00053462146179A039800F05CF80544139854
:1048E000007818B15246179990476D1CE00323D504
:1048F00053462146179A039800F04CF805441BE0F4
:10490000BBF1000F07DB0098584504DD109817999C
:1049100010F80B0001E0179930205246904701989B
:104920000BF1010B401E05F10105019004D12E2071
:104930005246179990476D1CB9F10001A9F1010980
:10494000DEDC05E017F8010B5246179990476D1C05
:104950000299481E02900029F4DC53462146179A1A
:1049600003989EE62D0000002B00000020000000B0
:104970002DE9F041044600251E461746880404D45C
:1049800005E039462020B0476D1C641EF9D5284645
:10499000BDE8F0812DE9F041044600251E46904611
:1049A000C80301D5302700E02027880404D505E09E
:1049B00041463846B0476D1C641EF9D52846BDE80F
:1049C000F0814A68002A06D00A68531C0B601070F8
:1049D0004868401E486070470A68531C0B6010709E
:1049E0007047FCF755FEFEF7F8FFFEF78BFDFEF76C
:1049F000E1FCFEF72FFEFEF749FEFEF70BFEFEF789
:104A000045FD00F019F8FEF7FBFC00F027F8FEE783
:104A100010B5EFF3058111B16FF0050403E0002438
:104A200008B100F023FF204610BDEFF3058008B168
:104A300001F004BD01F0FCBCEFF3058010B16FF094
:104A4000050070470448016811B14FF0FF3070470E
:104A500001210160002070478800002010B5EFF3AD
:104A6000058010B16FF0050010BD084801680129EC
:104A700002D04FF0FF3010BD054A002182F8141D0E
:104A80000221016000F0A2FF002010BD880000207C
:104A90000BE000E0F8B51D466FF003026FF0020670
:104AA0004FF00004EFF30583A3B1F0B1E9B1E5B92C
:104AB000002200926A4601F0EBFA012817D1009813
:104AC000B0B10C494FF080500860BFF34F8FBFF377
:104AD0006F8F0DE048B141B12A4601F03DFA01283F
:104AE00006D025B16FF0010402E0144600E0344620
:104AF0002046F8BD04ED00E0F8B514464FF000057F
:104B0000EFF3058212BB08B301B3A4B1D4E90232BA
:104B100063B1502A1AD32269C2B1676900FB01F65A
:104B2000B74213D3009501F072F807E072B9226919
:104B300062B9626952B9002201F048F8050005D057
:104B40000CB1216800E0002100F05AFE2846F8BDB3
:104B5000F8B51D466FF003026FF002064FF0000437
:104B6000EFF30583ABB100B3F9B1F5B900221346F9
:104B700000926A4601F072F9012818D10098B8B184
:104B80000C494FF080500860BFF34F8FBFF36F8F19
:104B90000EE050B149B100232A4601F0AFF80128D8
:104BA00006D025B16FF0010402E0144600E034465F
:104BB0002046F8BD04ED00E02DE9F0410D46014628
:104BC00021F0010001F001014FF00004EFF3058234
:104BD0000AB1A41F16E048B100296FF001066FF07A
:104BE0000207294608D001F05DFB07E06FF00304DF
:104BF00008E035B1344605E001F098FA0128F8D113
:104C000000E03C462046BDE8F08170B505464FF017
:104C10000004EFF3058050BB0DB1686800E0002090
:104C2000C10701D0012600E0002600071FD46DB1A6
:104C3000D5E9021021B1502819D31EB1042002E099
:104C400020B114E0012000F0B4FF05E00EB1042013
:104C500000E0012000F0A2FF040008D00DB1296897
:104C600000E0002100F0CCFD0EB144F0010420462C
:104C700070BD70B5014621F0010001F001014FF057
:104C80000004EFF305820AB1A41F11E028B16FF010
:104C9000020529B101F041F907E06FF0030407E0D4
:104CA00000231A46194601F029F8012800D02C46A5
:104CB000204670BD2DE9FF414FEA01034FF000058A
:104CC000EFF30581039549BB40B3802718210024E9
:104CD0004AB3166806B1344696691EB13146761E4F
:104CE000382E02D21679F60703D0002004B0BDE8B2
:104CF000F081566906B1B708D2F808C0BCF1000FC0
:104D00000DD0D5685C2D18D312693AB136B18DE853
:104D100006103A46214601F04CFB03900DE0D668A0
:104D20005EB912694AB903AACDE90012BAB22146A6
:104D300001F012FB012800D003950398D6E700008C
:104D40002DE9F041134C0F460546E6682068001D2A
:104D500000F058FC681C07D137B12168BDE8F0416C
:104D60000D48091D00F09EBC20683544B5424560E1
:104D7000216805D2A06BBDE8F041091D00F07ABCA6
:104D8000606B091D00F076FCA06A854200D2A56226
:104D9000BDE8F081380000200C0900202DE9F04129
:104DA000054600F08BFC2D4CA068401CA0602068DC
:104DB0002B4F10B1606930B32BE02560A06801284B
:104DC00027D1002606EB860007EB800000F044FCAC
:104DD000761C382EF6D3234800F03EFC21481430D0
:104DE00000F03AFC1F48283000F036FC1D483C30EB
:104DF00000F032FC1B48503000F02EFC1948606374
:104E00001430A06305E02068E96AC06A884200D8CF
:104E10002560606A401C60626864E86A21698842B3
:104E200000D9206100EB800007EB8000291D00F015
:104E300039FC00F063FC606900280CD02068E96A46
:104E4000C06A884207D208494FF080500860BFF31B
:104E50004F8FBFF36F8FBDE8F08100003800002056
:104E60005C040020BC08002004ED00E038B500F030
:104E700025FC104C2068C8B90F4800F0EDFB0E4827
:104E8000143000F0E9FB0C48E060143020610A4B5C
:104E90000020F03B009003F1500210210A2000F0A6
:104EA000B6FE206010B105A100F0AAFCBDE83840B4
:104EB00000F024BC74000020100A0020546D7251D0
:104EC0000000000030B4026C0B46002A0BD0C16811
:104ED0001144C1608468A14201D30168C16030BC43
:104EE0001846FBF79FB930BC70472DE9F041856B40
:104EF000174604460026026C82B1C7B1E068FBF792
:104F000091F9E168206C091AE1602268914202D2AD
:104F1000A168081AE060022F16D017E02068A8B92F
:104F2000A06801F0F7FA06460020A0600EE0606875
:104F3000FBF778F9216C606808446060A1688842DA
:104F400004D32068606001E005B16D1E6D1CA5638F
:104F50003046BDE8F08110B5044690F8590058B1CC
:104F600001280CD002280FD0502080F31188BFF305
:104F70004F8FBFF36F8FFEE7206B00F0D3FB20460F
:104F8000BDE8104000F0CEBB10BD000010484FF44B
:104F9000A041420706D0C01D0D4920F00700411A6C
:104FA000C1F5A0410B4A00230144C2E900030839BE
:104FB000183A21F0070111604B600B600B1AC0E931
:104FC000001393604FF00040536050617047000041
:104FD000F0100020A4000020144E154CA6F29C47AF
:104FE0004FF08058DFF84C9012E000BF00F066FBF5
:104FF000F068C568281D00F005FBA068401EA06091
:105000006068401E606000F079FB2846FFF7A3FF50
:1050100060680028EAD138680128F9D9C9F8008009
:10502000BFF34F8FBFF36F8FF2E70000F808002047
:105030003800002004ED00E0002807D00021816046
:1050400001600B460A46C16000F058BE7047000080
:1050500070B51D46049C51B1C4F80020C4E90F018D
:105060000121204600F006FE84F84C5070BD2460FB
:10507000F4E700002DE9F05F8846DDE90B94154662
:10508000834691009A460A9EA522206BFBF7DCF826
:105090006FF00301206B01EB8501084420F0070746
:1050A000780707D0502080F31188BFF34F8FBFF3EC
:1050B0006F8FFEE70025B8F1000F0FD05FF0000002
:1050C000221818F8001082F8341018F8001011B1E6
:1050D000401C1028F4D384F8435001E084F8345085
:1050E000382E00D33726E662C4E91365201D00F090
:1050F000BEFA04F1180000F0BAFA2461C6F13800D3
:105100006462A061656584F8585052465946384635
:1051100000F066FA2060B9F1000F01D0C9F8004034
:10512000BDE8F09F30B5114900E011460A6882429F
:10513000FBD34B685C18844203D140681844486034
:10514000084643681C18944209D1084C183C24684E
:10515000A24209D052681A4442600A68126802608A
:10516000814200D0086030BD0460F9E7A40000204F
:1051700070B5002441600B4D0061914206D8D11AF0
:105180008269914206D2011D286907E09A4203D242
:10519000994201D3012403E0011DE86800F06AFA96
:1051A000204670BD7400002010B5044600F086FA59
:1051B000A06B28B15FF0000400F0A0FA204610BDFB
:1051C0000124F9E730B589B03C4D6EE00498002821
:1051D00006DADDE90601059A90470498002864DBA9
:1051E000069C606910B1201D00F00CFA03A800F0C5
:1051F000D7F8024604980A2857D2DFE800F00505E0
:10520000052D334A05052D3394F8280040F00100A0
:1052100084F828000599A069059B01442046FFF702
:10522000A7FF68B3216A2046884794F82800400702
:105230003BD5002000900598A1690023421819462B
:10524000204601F0ADFAD8B9502080F31188BFF3A1
:105250004F8FBFF36F8FFEE714F8280F20F0010087
:10526000207022E094F8280040F0010084F8280023
:105270000598A06128B1811813462046FFF778FFF2
:1052800013E0502080F31188BFF34F8FBFF36F8F6F
:10529000FEE794F82800810703D4204600F042FA84
:1052A00003E020F0010084F82800002204A9286807
:1052B00000F052FE002889D109B030BD74000020F2
:1052C0002DE9FC410F46054600F0C4FB01A800F0A3
:1052D00067F80446019818B101F0D0F9BDE8FC81E7
:1052E000254EAFB130690068D0B30027291B3A467C
:1052F000306800F099FA01F0C1F90028EED11F4999
:105300004FF080500860BFF34F8FBFF36F8FE5E71A
:10531000A542EBD801F0B2F9F0682746C068C4682E
:10532000201D00F06FF994F82800410719D5A069F5
:105330002B4641193A462046FFF71AFFA8B1002034
:105340000346014600902A46204601F029FA60B93A
:10535000502080F31188BFF34F8FBFF36F8FFEE7AC
:1053600007E020F0010084F82800216A20468847E1
:10537000B4E70127BAE700007400002004ED00E064
:105380000648416B096829B1416BC968C968496819
:10539000816270474FF0FF31FAE7000038000020CB
:1053A00070B5054601F044F8064E0446B0688442E4
:1053B00003D200F009F8012000E000202860204618
:1053C000B46070BD74000020F8B5194D20E0C068CD
:1053D000C4680668201D00F015F9216A2046884738
:1053E00094F82800400713D5A0693044B04206D98C
:1053F00024616060211DE86800F03CF908E00020AD
:105400000346014600903246204601F0C9F938B102
:10541000E86801680029DAD12969C5E90310F8BDF7
:10542000502080F31188BFF34F8FBFF36F8FFEE7DB
:105430007400002008484068401C4FF0500080F382
:10544000118804D0BFF34F8FBFF36F8FFEE7BFF318
:105450004F8FBFF36F8FFEE7AC000020074CE06872
:10546000016841B1C0680021D0F80000FFF728FFB3
:10547000FFF7A8FEF3E701210020F7E77400002002
:105480002DE9F041044600F019F994F9455004F172
:10549000240609E0606A48B1304601F0B7F808B167
:1054A00000F012FA6D1E6DB2002DF3DC4FF0FF36E6
:1054B00084F8456000F022F900F000F994F94450B6
:1054C00004F1100709E0206948B1384601F09EF860
:1054D00008B100F0F9F96D1E6DB2002DF3DC84F80F
:1054E0004460BDE8F04100F009B900002DE9F04149
:1054F0000546002700F0AEFA324E306808B9FFF7D3
:1055000045FD706905424ED1C5B3083568070ED018
:1055100005F00700C0F108000544680707D05020D7
:1055200080F31188BFF34F8FBFF36F8FFEE72DB36A
:105530007068854237D82348183001460C6801E06E
:1055400020460C466168A94202D221680029F7D1A1
:1055500031688C4227D0076821680160606808378D
:10556000411B10290FD96019420708D0502080F341
:105570001188BFF34F8FBFF36F8FFEE713E04160D9
:105580006560FFF7CFFD61687068401A7060B268AF
:10559000904200D2B060706901430020C4E900016C
:1055A000F068401CF06001F069F8780707D05020DF
:1055B00080F31188BFF34F8FBFF36F8FFEE738463C
:1055C000BDE8F0818C0000200449086818B1086823
:1055D000026D521C02650868704700003800002008
:1055E00010B5031F4FF080741C601B1F21F00101D8
:1055F0001960191F024B0B60143940380A6010BD46
:1056000035540008D0E9013201699A60D0E90123DC
:105610005A604A68824201D182684A60002202616F
:105620000868401E0860086870470000034B03606C
:1056300003F15C000860802010607047380A002089
:10564000044B036003F15C0008604FF4807010604D
:1056500070470000940C002000F108014FF0FF3269
:10566000C0E90112C16001610021016070470021A1
:105670000161704730B50B685A1C02D000F1080276
:1056800002E0026904E02246546825689D42FAD986
:1056900053684B6099608A60516008610168491CD9
:1056A000016030BD42684A6093688B6093685960BE
:1056B000916008610168491C01607047502080F3C7
:1056C0001188BFF34F8FBFF36F8F0A494868401CA2
:1056D000486001280CD10848006810F0FF0F07D07F
:1056E000502080F31188BFF34F8FBFF36F8FFEE719
:1056F00070470000AC00002004ED00E00849486855
:1057000028B1401E486001D180F3118870475020B5
:1057100080F31188BFF34F8FBFF36F8FFEE7000058
:10572000AC00002070B500282AD0164DA0F1080466
:1057300060686969084207D1502080F31188BFF37F
:105740004F8FBFF36F8FFEE722683AB1502080F38E
:105750001188BFF34F8FBFF36F8FFEE78843606000
:1057600000F078F960686968084468602046FFF7CF
:10577000D9FC2869401C2861BDE8704000F07EBF5C
:1057800070BD00008C0000204FF0E020002101617E
:10579000816105494FF47A720968B1FBF2F1491E43
:1057A00041610721016170473400002010B5FAF70C
:1057B00013FD114910280ED300F1E02090F8F003FA
:1057C0000A78904207D2502080F31188BFF34F8FA0
:1057D000BFF36F8FFEE709480068896800F4E06056
:1057E000884207D9502080F31188BFF34F8FBFF351
:1057F0006F8FFEE710BD0000AC0000200CED00E054
:1058000010B5084B002200BF53F832401CB1521CA7
:10581000082AF9D310BD43F8321003EBC2014860E7
:1058200010BD00001C04002070B515460E4604464D
:10583000FFF744FF94F944100020491C01D184F87B
:10584000440094F94510491C01D184F84500FFF744
:1058500055FFA06B28B92A46314604F1240000F018
:1058600051F82046BDE87040FFF70ABE10B50200AF
:1058700014D00F48006B38B1502080F31188BFF36B
:105880004F8FBFF36F8FFEE700F0E4F80021104662
:10589000FFF756FA00F0F2FE002807D105494FF055
:1058A00080500860BFF34F8FBFF36F8F10BD0000B3
:1058B0003800002004ED00E002490A6A0260C9686D
:1058C000416070473800002001490120C8617047DD
:1058D0003800002010B50C4650B10949096818314C
:1058E000FFF7C8FE2046BDE810400121FFF728BAA7
:1058F000502080F31188BFF34F8FBFF36F8FFEE707
:105900003800002070B514460D4668B10A49096890
:105910001831FFF7C7FE0CB14FF0FF35214628467E
:10592000BDE87040FFF70CBA502080F31188BFF338
:105930004F8FBFF36F8FFEE73800002070B5040073
:105940003ED0226DA2B1E06C884200D30146E06AED
:10595000884235D0012A33D11A4D2A6894420FD19A
:10596000502080F31188BFF34F8FBFF36F8FFEE796
:10597000502080F31188BFF34F8FBFF36F8FFEE786
:10598000E162A269002A02DBC1F13801A1610E4E79
:1059900000EB8000616906EB8000814210D1201D80
:1059A000FFF730FEE06A2969884200D9286100EBE0
:1059B000800006EB8000211DBDE87040FFF772BE3D
:1059C00070BD0000380000205C04002030B587B0B6
:1059D0000024039405AA04A903A80494FFF726FE53
:1059E000DDE903010094CDE90110002315A117485A
:1059F000059A00F0DEFC164D0028E8621FD000F08A
:105A00009FFE012809D0401C19D1502080F3118835
:105A1000BFF34F8FBFF36F8FFEE7502080F31188E5
:105A2000BFF34F8FBFF36F8F4FF0FF30A86201209D
:105A30006861EC6007B0BDE8304000F045B807B0E1
:105A400030BD000049444C4500000000D94F00081B
:105A5000380000200248016B491C016370470000B8
:105A600038000020164810B5016B11B10121C16149
:105A700010BD0021C1610169124A01E0B9B1491E9E
:105A800001EB810352F82330002BF7D001EB8103A7
:105A900002EB830202F1080453685B685360A3427F
:105AA00001D15B685360DA680260016110BD50206B
:105AB00080F31188BFF34F8FBFF36F8FFEE70000B5
:105AC000380000205C0400201CB5264908780190AD
:105AD000FF20087008788DF800009DF800009DF800
